{"abi":[{"type":"constructor","inputs":[],"stateMutability":"nonpayable"},{"type":"function","name":"isApprovedForAll","inputs":[{"name":"owner_","type":"address","internalType":"address"},{"name":"operator_","type":"address","internalType":"address"}],"outputs":[{"name":"","type":"bool","internalType":"bool"}],"stateMutability":"view"},{"type":"function","name":"owner","inputs":[{"name":"node_","type":"bytes32","internalType":"bytes32"}],"outputs":[{"name":"","type":"address","internalType":"address"}],"stateMutability":"view"},{"type":"function","name":"recordExists","inputs":[{"name":"node_","type":"bytes32","internalType":"bytes32"}],"outputs":[{"name":"","type":"bool","internalType":"bool"}],"stateMutability":"view"},{"type":"function","name":"resolver","inputs":[{"name":"node_","type":"bytes32","internalType":"bytes32"}],"outputs":[{"name":"","type":"address","internalType":"address"}],"stateMutability":"view"},{"type":"function","name":"setApprovalForAll","inputs":[{"name":"operator_","type":"address","internalType":"address"},{"name":"approved_","type":"bool","internalType":"bool"}],"outputs":[],"stateMutability":"nonpayable"},{"type":"function","name":"setOwner","inputs":[{"name":"node_","type":"bytes32","internalType":"bytes32"},{"name":"owner_","type":"address","internalType":"address"}],"outputs":[],"stateMutability":"nonpayable"},{"type":"function","name":"setRecord","inputs":[{"name":"node_","type":"bytes32","internalType":"bytes32"},{"name":"owner_","type":"address","internalType":"address"},{"name":"resolver_","type":"address","internalType":"address"},{"name":"ttl_","type":"uint64","internalType":"uint64"}],"outputs":[],"stateMutability":"nonpayable"},{"type":"function","name":"setResolver","inputs":[{"name":"node_","type":"bytes32","internalType":"bytes32"},{"name":"resolver_","type":"address","internalType":"address"}],"outputs":[],"stateMutability":"nonpayable"},{"type":"function","name":"setSubnodeOwner","inputs":[{"name":"node_","type":"bytes32","internalType":"bytes32"},{"name":"label_","type":"bytes32","internalType":"bytes32"},{"name":"owner_","type":"address","internalType":"address"}],"outputs":[{"name":"","type":"bytes32","internalType":"bytes32"}],"stateMutability":"nonpayable"},{"type":"function","name":"setSubnodeRecord","inputs":[{"name":"node_","type":"bytes32","internalType":"bytes32"},{"name":"label_","type":"bytes32","internalType":"bytes32"},{"name":"owner_","type":"address","internalType":"address"},{"name":"resolver_","type":"address","internalType":"address"},{"name":"ttl_","type":"uint64","internalType":"uint64"}],"outputs":[],"stateMutability":"nonpayable"},{"type":"function","name":"setTTL","inputs":[{"name":"node_","type":"bytes32","internalType":"bytes32"},{"name":"ttl_","type":"uint64","internalType":"uint64"}],"outputs":[],"stateMutability":"nonpayable"},{"type":"function","name":"ttl","inputs":[{"name":"node_","type":"bytes32","internalType":"bytes32"}],"outputs":[{"name":"","type":"uint64","internalType":"uint64"}],"stateMutability":"view"},{"type":"event","name":"ApprovalForAll","inputs":[{"name":"owner","type":"address","indexed":true,"internalType":"address"},{"name":"operator","type":"address","indexed":true,"internalType":"address"},{"name":"approved","type":"bool","indexed":false,"internalType":"bool"}],"anonymous":false},{"type":"event","name":"NewOwner","inputs":[{"name":"node","type":"bytes32","indexed":true,"internalType":"bytes32"},{"name":"label","type":"bytes32","indexed":true,"internalType":"bytes32"},{"name":"owner","type":"address","indexed":false,"internalType":"address"}],"anonymous":false},{"type":"event","name":"NewResolver","inputs":[{"name":"node","type":"bytes32","indexed":true,"internalType":"bytes32"},{"name":"resolver","type":"address","indexed":false,"internalType":"address"}],"anonymous":false},{"type":"event","name":"NewTTL","inputs":[{"name":"node","type":"bytes32","indexed":true,"internalType":"bytes32"},{"name":"ttl","type":"uint64","indexed":false,"internalType":"uint64"}],"anonymous":false},{"type":"event","name":"Transfer","inputs":[{"name":"node","type":"bytes32","indexed":true,"internalType":"bytes32"},{"name":"owner","type":"address","indexed":false,"internalType":"address"}],"anonymous":false},{"type":"error","name":"NotAuthorised","inputs":[{"name":"node","type":"bytes32","internalType":"bytes32"},{"name":"sender","type":"address","internalType":"address"}]}],"bytecode":{"object":"0x608060405234801561000f575f5ffd5b50335f5f5f5f1b81526020019081526020015f205f015f6101000a81548173ffffffffffffffffffffffffffffffffffffffff021916908373ffffffffffffffffffffffffffffffffffffffff1602179055505f5f1b7fd4735d920b0f87494915f556dd9b54c8f309026070caea5c737245152564d2663360405161009491906100e0565b60405180910390a26100f9565b5f73ffffffffffffffffffffffffffffffffffffffff82169050919050565b5f6100ca826100a1565b9050919050565b6100da816100c0565b82525050565b5f6020820190506100f35f8301846100d1565b92915050565b6112d2806101065f395ff3fe608060405234801561000f575f5ffd5b50600436106100b2575f3560e01c80635b0fc9c31161006f5780635b0fc9c3146101ae5780635ef2c7f0146101ca578063a22cb465146101e6578063cf40882314610202578063e985e9c51461021e578063f79fe5381461024e576100b2565b80630178b8bf146100b657806302571be3146100e657806306ab59231461011657806314ab90381461014657806316a25cbd146101625780631896f70a14610192575b5f5ffd5b6100d060048036038101906100cb9190610e70565b61027e565b6040516100dd9190610eda565b60405180910390f35b61010060048036038101906100fb9190610e70565b6102b9565b60405161010d9190610eda565b60405180910390f35b610130600480360381019061012b9190610f1d565b610335565b60405161013d9190610f7c565b60405180910390f35b610160600480360381019061015b9190610fd2565b6104ea565b005b61017c60048036038101906101779190610e70565b61069a565b604051610189919061101f565b60405180910390f35b6101ac60048036038101906101a79190611038565b6106ca565b005b6101c860048036038101906101c39190611038565b610891565b005b6101e460048036038101906101df9190611076565b610a11565b005b61020060048036038101906101fb9190611122565b610a32565b005b61021c60048036038101906102179190611160565b610b2a565b005b610238600480360381019061023391906111c4565b610b45565b6040516102459190611211565b60405180910390f35b61026860048036038101906102639190610e70565b610bd3565b6040516102759190611211565b60405180910390f35b5f5f5f8381526020019081526020015f206001015f9054906101000a900473ffffffffffffffffffffffffffffffffffffffff169050919050565b5f5f5f5f8481526020019081526020015f205f015f9054906101000a900473ffffffffffffffffffffffffffffffffffffffff1690503073ffffffffffffffffffffffffffffffffffffffff168173ffffffffffffffffffffffffffffffffffffffff160361032b575f915050610330565b809150505b919050565b5f835f5f5f8381526020019081526020015f205f015f9054906101000a900473ffffffffffffffffffffffffffffffffffffffff1690503373ffffffffffffffffffffffffffffffffffffffff168173ffffffffffffffffffffffffffffffffffffffff161415801561042a575060015f8273ffffffffffffffffffffffffffffffffffffffff1673ffffffffffffffffffffffffffffffffffffffff1681526020019081526020015f205f3373ffffffffffffffffffffffffffffffffffffffff1673ffffffffffffffffffffffffffffffffffffffff1681526020019081526020015f205f9054906101000a900460ff16155b1561046e5781336040517f14c417b500000000000000000000000000000000000000000000000000000000815260040161046592919061122a565b60405180910390fd5b5f8686604051602001610482929190611271565b6040516020818303038152906040528051906020012090506104a48186610c3c565b85877fce0457fe73731f824cc272376169235128c118b49d344817417c6d108d155e82876040516104d59190610eda565b60405180910390a38093505050509392505050565b815f5f5f8381526020019081526020015f205f015f9054906101000a900473ffffffffffffffffffffffffffffffffffffffff1690503373ffffffffffffffffffffffffffffffffffffffff168173ffffffffffffffffffffffffffffffffffffffff16141580156105de575060015f8273ffffffffffffffffffffffffffffffffffffffff1673ffffffffffffffffffffffffffffffffffffffff1681526020019081526020015f205f3373ffffffffffffffffffffffffffffffffffffffff1673ffffffffffffffffffffffffffffffffffffffff1681526020019081526020015f205f9054906101000a900460ff16155b156106225781336040517f14c417b500000000000000000000000000000000000000000000000000000000815260040161061992919061122a565b60405180910390fd5b837f1d4f9bbfc9cab89d66e1a1562f2233ccbf1308cb4f63de2ead5787adddb8fa6884604051610652919061101f565b60405180910390a2825f5f8681526020019081526020015f2060010160146101000a81548167ffffffffffffffff021916908367ffffffffffffffff16021790555050505050565b5f5f5f8381526020019081526020015f2060010160149054906101000a900467ffffffffffffffff169050919050565b815f5f5f8381526020019081526020015f205f015f9054906101000a900473ffffffffffffffffffffffffffffffffffffffff1690503373ffffffffffffffffffffffffffffffffffffffff168173ffffffffffffffffffffffffffffffffffffffff16141580156107be575060015f8273ffffffffffffffffffffffffffffffffffffffff1673ffffffffffffffffffffffffffffffffffffffff1681526020019081526020015f205f3373ffffffffffffffffffffffffffffffffffffffff1673ffffffffffffffffffffffffffffffffffffffff1681526020019081526020015f205f9054906101000a900460ff16155b156108025781336040517f14c417b50000000000000000000000000000000000000000000000000000000081526004016107f992919061122a565b60405180910390fd5b837f335721b01866dc23fbee8b6b2c7b1e14d6f05c28cd35a2c934239f94095602a0846040516108329190610eda565b60405180910390a2825f5f8681526020019081526020015f206001015f6101000a81548173ffffffffffffffffffffffffffffffffffffffff021916908373ffffffffffffffffffffffffffffffffffffffff16021790555050505050565b815f5f5f8381526020019081526020015f205f015f9054906101000a900473ffffffffffffffffffffffffffffffffffffffff1690503373ffffffffffffffffffffffffffffffffffffffff168173ffffffffffffffffffffffffffffffffffffffff1614158015610985575060015f8273ffffffffffffffffffffffffffffffffffffffff1673ffffffffffffffffffffffffffffffffffffffff1681526020019081526020015f205f3373ffffffffffffffffffffffffffffffffffffffff1673ffffffffffffffffffffffffffffffffffffffff1681526020019081526020015f205f9054906101000a900460ff16155b156109c95781336040517f14c417b50000000000000000000000000000000000000000000000000000000081526004016109c092919061122a565b60405180910390fd5b6109d38484610c3c565b837fd4735d920b0f87494915f556dd9b54c8f309026070caea5c737245152564d26684604051610a039190610eda565b60405180910390a250505050565b5f610a1d868686610335565b9050610a2a818484610c90565b505050505050565b8060015f3373ffffffffffffffffffffffffffffffffffffffff1673ffffffffffffffffffffffffffffffffffffffff1681526020019081526020015f205f8473ffffffffffffffffffffffffffffffffffffffff1673ffffffffffffffffffffffffffffffffffffffff1681526020019081526020015f205f6101000a81548160ff0219169083151502179055508173ffffffffffffffffffffffffffffffffffffffff163373ffffffffffffffffffffffffffffffffffffffff167f17307eab39ab6107e8899845ad3d59bd9653f200f220920489ca2b5937696c3183604051610b1e9190611211565b60405180910390a35050565b610b348484610891565b610b3f848383610c90565b50505050565b5f60015f8473ffffffffffffffffffffffffffffffffffffffff1673ffffffffffffffffffffffffffffffffffffffff1681526020019081526020015f205f8373ffffffffffffffffffffffffffffffffffffffff1673ffffffffffffffffffffffffffffffffffffffff1681526020019081526020015f205f9054906101000a900460ff16905092915050565b5f5f73ffffffffffffffffffffffffffffffffffffffff165f5f8481526020019081526020015f205f015f9054906101000a900473ffffffffffffffffffffffffffffffffffffffff1673ffffffffffffffffffffffffffffffffffffffff1614159050919050565b805f5f8481526020019081526020015f205f015f6101000a81548173ffffffffffffffffffffffffffffffffffffffff021916908373ffffffffffffffffffffffffffffffffffffffff1602179055505050565b5f5f8481526020019081526020015f206001015f9054906101000a900473ffffffffffffffffffffffffffffffffffffffff1673ffffffffffffffffffffffffffffffffffffffff168273ffffffffffffffffffffffffffffffffffffffff1614610d7f57815f5f8581526020019081526020015f206001015f6101000a81548173ffffffffffffffffffffffffffffffffffffffff021916908373ffffffffffffffffffffffffffffffffffffffff160217905550827f335721b01866dc23fbee8b6b2c7b1e14d6f05c28cd35a2c934239f94095602a083604051610d769190610eda565b60405180910390a25b5f5f8481526020019081526020015f2060010160149054906101000a900467ffffffffffffffff1667ffffffffffffffff168167ffffffffffffffff1614610e3457805f5f8581526020019081526020015f2060010160146101000a81548167ffffffffffffffff021916908367ffffffffffffffff160217905550827f1d4f9bbfc9cab89d66e1a1562f2233ccbf1308cb4f63de2ead5787adddb8fa6882604051610e2b919061101f565b60405180910390a25b505050565b5f5ffd5b5f819050919050565b610e4f81610e3d565b8114610e59575f5ffd5b50565b5f81359050610e6a81610e46565b92915050565b5f60208284031215610e8557610e84610e39565b5b5f610e9284828501610e5c565b91505092915050565b5f73ffffffffffffffffffffffffffffffffffffffff82169050919050565b5f610ec482610e9b565b9050919050565b610ed481610eba565b82525050565b5f602082019050610eed5f830184610ecb565b92915050565b610efc81610eba565b8114610f06575f5ffd5b50565b5f81359050610f1781610ef3565b92915050565b5f5f5f60608486031215610f3457610f33610e39565b5b5f610f4186828701610e5c565b9350506020610f5286828701610e5c565b9250506040610f6386828701610f09565b9150509250925092565b610f7681610e3d565b82525050565b5f602082019050610f8f5f830184610f6d565b92915050565b5f67ffffffffffffffff82169050919050565b610fb181610f95565b8114610fbb575f5ffd5b50565b5f81359050610fcc81610fa8565b92915050565b5f5f60408385031215610fe857610fe7610e39565b5b5f610ff585828601610e5c565b925050602061100685828601610fbe565b9150509250929050565b61101981610f95565b82525050565b5f6020820190506110325f830184611010565b92915050565b5f5f6040838503121561104e5761104d610e39565b5b5f61105b85828601610e5c565b925050602061106c85828601610f09565b9150509250929050565b5f5f5f5f5f60a0868803121561108f5761108e610e39565b5b5f61109c88828901610e5c565b95505060206110ad88828901610e5c565b94505060406110be88828901610f09565b93505060606110cf88828901610f09565b92505060806110e088828901610fbe565b9150509295509295909350565b5f8115159050919050565b611101816110ed565b811461110b575f5ffd5b50565b5f8135905061111c816110f8565b92915050565b5f5f6040838503121561113857611137610e39565b5b5f61114585828601610f09565b92505060206111568582860161110e565b9150509250929050565b5f5f5f5f6080858703121561117857611177610e39565b5b5f61118587828801610e5c565b945050602061119687828801610f09565b93505060406111a787828801610f09565b92505060606111b887828801610fbe565b91505092959194509250565b5f5f604083850312156111da576111d9610e39565b5b5f6111e785828601610f09565b92505060206111f885828601610f09565b9150509250929050565b61120b816110ed565b82525050565b5f6020820190506112245f830184611202565b92915050565b5f60408201905061123d5f830185610f6d565b61124a6020830184610ecb565b9392505050565b5f819050919050565b61126b61126682610e3d565b611251565b82525050565b5f61127c828561125a565b60208201915061128c828461125a565b602082019150819050939250505056fea2646970667358221220a28a962b5200bf5a760348c9a1f8620c7f08601cf168c44b8949bf6277ea7e9c64736f6c634300081e0033","linkReferences":{}},"methodIdentifiers":{"isApprovedForAll(address,address)":"e985e9c5","owner(bytes32)":"02571be3","recordExists(bytes32)":"f79fe538","resolver(bytes32)":"0178b8bf","setApprovalForAll(address,bool)":"a22cb465","setOwner(bytes32,address)":"5b0fc9c3","setRecord(bytes32,address,address,uint64)":"cf408823","setResolver(bytes32,address)":"1896f70a","setSubnodeOwner(bytes32,bytes32,address)":"06ab5923","setSubnodeRecord(bytes32,bytes32,address,address,uint64)":"5ef2c7f0","setTTL(bytes32,uint64)":"14ab9038","ttl(bytes32)":"16a25cbd"},"id":57}