{"abi":[{"type":"constructor","inputs":[{"name":"base_","type":"address","internalType":"contract BaseRegistrar"},{"name":"prices_","type":"address","internalType":"contract IPriceOracle"},{"name":"reverseRegistrar_","type":"address","internalType":"contract IReverseRegistrar"},{"name":"whitelistSigner_","type":"address","internalType":"address"},{"name":"freeWhitelistSigner_","type":"address","internalType":"address"},{"name":"reservedRegistry_","type":"address","internalType":"contract IReservedRegistry"},{"name":"owner_","type":"address","internalType":"address"},{"name":"rootNode_","type":"bytes32","internalType":"bytes32"},{"name":"rootName_","type":"string","internalType":"string"},{"name":"paymentReceiver_","type":"address","internalType":"address"}],"stateMutability":"nonpayable"},{"type":"function","name":"MIN_NAME_LENGTH","inputs":[],"outputs":[{"name":"","type":"uint256","internalType":"uint256"}],"stateMutability":"view"},{"type":"function","name":"MIN_REGISTRATION_DURATION","inputs":[],"outputs":[{"name":"","type":"uint256","internalType":"uint256"}],"stateMutability":"view"},{"type":"function","name":"available","inputs":[{"name":"name","type":"string","internalType":"string"}],"outputs":[{"name":"","type":"bool","internalType":"bool"}],"stateMutability":"view"},{"type":"function","name":"freeMintsByAddress","inputs":[{"name":"","type":"address","internalType":"address"}],"outputs":[{"name":"","type":"uint8","internalType":"uint8"}],"stateMutability":"view"},{"type":"function","name":"getFreeWhitelistAuthorizer","inputs":[],"outputs":[{"name":"","type":"address","internalType":"address"}],"stateMutability":"view"},{"type":"function","name":"getReservedNamesMinter","inputs":[],"outputs":[{"name":"","type":"address","internalType":"address"}],"stateMutability":"view"},{"type":"function","name":"getWhitelistAuthorizer","inputs":[],"outputs":[{"name":"","type":"address","internalType":"address"}],"stateMutability":"view"},{"type":"function","name":"launchTime","inputs":[],"outputs":[{"name":"","type":"uint256","internalType":"uint256"}],"stateMutability":"view"},{"type":"function","name":"mintsCountByRoundByAddress","inputs":[{"name":"","type":"address","internalType":"address"},{"name":"","type":"uint256","internalType":"uint256"}],"outputs":[{"name":"","type":"uint256","internalType":"uint256"}],"stateMutability":"view"},{"type":"function","name":"owner","inputs":[],"outputs":[{"name":"","type":"address","internalType":"address"}],"stateMutability":"view"},{"type":"function","name":"paymentReceiver","inputs":[],"outputs":[{"name":"","type":"address","internalType":"address"}],"stateMutability":"view"},{"type":"function","name":"prices","inputs":[],"outputs":[{"name":"","type":"address","internalType":"contract IPriceOracle"}],"stateMutability":"view"},{"type":"function","name":"recoverFunds","inputs":[{"name":"_token","type":"address","internalType":"address"},{"name":"_to","type":"address","internalType":"address"},{"name":"_amount","type":"uint256","internalType":"uint256"}],"outputs":[],"stateMutability":"nonpayable"},{"type":"function","name":"register","inputs":[{"name":"request","type":"tuple","internalType":"struct RegistrarController.RegisterRequest","components":[{"name":"name","type":"string","internalType":"string"},{"name":"owner","type":"address","internalType":"address"},{"name":"duration","type":"uint256","internalType":"uint256"},{"name":"resolver","type":"address","internalType":"address"},{"name":"data","type":"bytes[]","internalType":"bytes[]"},{"name":"reverseRecord","type":"bool","internalType":"bool"},{"name":"referrer","type":"address","internalType":"address"}]}],"outputs":[],"stateMutability":"payable"},{"type":"function","name":"registerPrice","inputs":[{"name":"name","type":"string","internalType":"string"},{"name":"duration","type":"uint256","internalType":"uint256"}],"outputs":[{"name":"","type":"uint256","internalType":"uint256"}],"stateMutability":"view"},{"type":"function","name":"renew","inputs":[{"name":"name","type":"string","internalType":"string"},{"name":"duration","type":"uint256","internalType":"uint256"}],"outputs":[],"stateMutability":"payable"},{"type":"function","name":"renounceOwnership","inputs":[],"outputs":[],"stateMutability":"nonpayable"},{"type":"function","name":"rentPrice","inputs":[{"name":"name","type":"string","internalType":"string"},{"name":"duration","type":"uint256","internalType":"uint256"}],"outputs":[{"name":"price","type":"tuple","internalType":"struct IPriceOracle.Price","components":[{"name":"base","type":"uint256","internalType":"uint256"},{"name":"discount","type":"uint256","internalType":"uint256"}]}],"stateMutability":"view"},{"type":"function","name":"reservedRegister","inputs":[{"name":"request","type":"tuple","internalType":"struct RegistrarController.RegisterRequest","components":[{"name":"name","type":"string","internalType":"string"},{"name":"owner","type":"address","internalType":"address"},{"name":"duration","type":"uint256","internalType":"uint256"},{"name":"resolver","type":"address","internalType":"address"},{"name":"data","type":"bytes[]","internalType":"bytes[]"},{"name":"reverseRecord","type":"bool","internalType":"bool"},{"name":"referrer","type":"address","internalType":"address"}]}],"outputs":[],"stateMutability":"nonpayable"},{"type":"function","name":"reservedRegistry","inputs":[],"outputs":[{"name":"","type":"address","internalType":"contract IReservedRegistry"}],"stateMutability":"view"},{"type":"function","name":"reverseRegistrar","inputs":[],"outputs":[{"name":"","type":"address","internalType":"contract IReverseRegistrar"}],"stateMutability":"view"},{"type":"function","name":"rootName","inputs":[],"outputs":[{"name":"","type":"string","internalType":"string"}],"stateMutability":"view"},{"type":"function","name":"rootNode","inputs":[],"outputs":[{"name":"","type":"bytes32","internalType":"bytes32"}],"stateMutability":"view"},{"type":"function","name":"setFreeWhitelistAuthorizer","inputs":[{"name":"_freeWhitelistAuthorizer","type":"address","internalType":"address"}],"outputs":[],"stateMutability":"nonpayable"},{"type":"function","name":"setLaunchTime","inputs":[{"name":"launchTime_","type":"uint256","internalType":"uint256"}],"outputs":[],"stateMutability":"nonpayable"},{"type":"function","name":"setPaymentReceiver","inputs":[{"name":"paymentReceiver_","type":"address","internalType":"address"}],"outputs":[],"stateMutability":"nonpayable"},{"type":"function","name":"setPriceOracle","inputs":[{"name":"prices_","type":"address","internalType":"contract IPriceOracle"}],"outputs":[],"stateMutability":"nonpayable"},{"type":"function","name":"setReservedNamesMinter","inputs":[{"name":"reservedNamesMinter_","type":"address","internalType":"address"}],"outputs":[],"stateMutability":"nonpayable"},{"type":"function","name":"setReverseRegistrar","inputs":[{"name":"reverse_","type":"address","internalType":"contract IReverseRegistrar"}],"outputs":[],"stateMutability":"nonpayable"},{"type":"function","name":"setWhitelistAuthorizer","inputs":[{"name":"_whitelistAuthorizer","type":"address","internalType":"address"}],"outputs":[],"stateMutability":"nonpayable"},{"type":"function","name":"transferOwnership","inputs":[{"name":"newOwner","type":"address","internalType":"address"}],"outputs":[],"stateMutability":"nonpayable"},{"type":"function","name":"usedFreeMintsSignatures","inputs":[{"name":"","type":"bytes32","internalType":"bytes32"}],"outputs":[{"name":"","type":"bool","internalType":"bool"}],"stateMutability":"view"},{"type":"function","name":"usedSignatures","inputs":[{"name":"","type":"bytes32","internalType":"bytes32"}],"outputs":[{"name":"","type":"bool","internalType":"bool"}],"stateMutability":"view"},{"type":"function","name":"valid","inputs":[{"name":"name","type":"string","internalType":"string"}],"outputs":[{"name":"","type":"bool","internalType":"bool"}],"stateMutability":"pure"},{"type":"function","name":"whitelistFreeRegister","inputs":[{"name":"request","type":"tuple","internalType":"struct RegistrarController.RegisterRequest","components":[{"name":"name","type":"string","internalType":"string"},{"name":"owner","type":"address","internalType":"address"},{"name":"duration","type":"uint256","internalType":"uint256"},{"name":"resolver","type":"address","internalType":"address"},{"name":"data","type":"bytes[]","internalType":"bytes[]"},{"name":"reverseRecord","type":"bool","internalType":"bool"},{"name":"referrer","type":"address","internalType":"address"}]},{"name":"signature","type":"bytes","internalType":"bytes"}],"outputs":[],"stateMutability":"nonpayable"},{"type":"function","name":"whitelistRegister","inputs":[{"name":"request","type":"tuple","internalType":"struct RegistrarController.WhitelistRegisterRequest","components":[{"name":"registerRequest","type":"tuple","internalType":"struct RegistrarController.RegisterRequest","components":[{"name":"name","type":"string","internalType":"string"},{"name":"owner","type":"address","internalType":"address"},{"name":"duration","type":"uint256","internalType":"uint256"},{"name":"resolver","type":"address","internalType":"address"},{"name":"data","type":"bytes[]","internalType":"bytes[]"},{"name":"reverseRecord","type":"bool","internalType":"bool"},{"name":"referrer","type":"address","internalType":"address"}]},{"name":"round_id","type":"uint256","internalType":"uint256"},{"name":"round_total_mint","type":"uint256","internalType":"uint256"}]},{"name":"signature","type":"bytes","internalType":"bytes"}],"outputs":[],"stateMutability":"payable"},{"type":"function","name":"withdrawETH","inputs":[],"outputs":[],"stateMutability":"nonpayable"},{"type":"event","name":"ETHPaymentProcessed","inputs":[{"name":"payee","type":"address","indexed":true,"internalType":"address"},{"name":"price","type":"uint256","indexed":false,"internalType":"uint256"}],"anonymous":false},{"type":"event","name":"FreeWhitelistAuthorizerChanged","inputs":[{"name":"newFreeWhitelistAuthorizerAddress","type":"address","indexed":false,"internalType":"address"}],"anonymous":false},{"type":"event","name":"LaunchTimeUpdated","inputs":[{"name":"newLaunchTime","type":"uint256","indexed":false,"internalType":"uint256"}],"anonymous":false},{"type":"event","name":"NameRegistered","inputs":[{"name":"name","type":"string","indexed":false,"internalType":"string"},{"name":"label","type":"bytes32","indexed":true,"internalType":"bytes32"},{"name":"owner","type":"address","indexed":true,"internalType":"address"},{"name":"expires","type":"uint256","indexed":false,"internalType":"uint256"}],"anonymous":false},{"type":"event","name":"NameRegisteredWithReferral","inputs":[{"name":"name","type":"string","indexed":false,"internalType":"string"},{"name":"label","type":"bytes32","indexed":true,"internalType":"bytes32"},{"name":"owner","type":"address","indexed":true,"internalType":"address"},{"name":"referral","type":"address","indexed":true,"internalType":"address"},{"name":"expires","type":"uint256","indexed":false,"internalType":"uint256"}],"anonymous":false},{"type":"event","name":"NameRenewed","inputs":[{"name":"name","type":"string","indexed":false,"internalType":"string"},{"name":"label","type":"bytes32","indexed":true,"internalType":"bytes32"},{"name":"expires","type":"uint256","indexed":false,"internalType":"uint256"}],"anonymous":false},{"type":"event","name":"OwnershipTransferred","inputs":[{"name":"previousOwner","type":"address","indexed":true,"internalType":"address"},{"name":"newOwner","type":"address","indexed":true,"internalType":"address"}],"anonymous":false},{"type":"event","name":"PaymentReceiverUpdated","inputs":[{"name":"newPaymentReceiver","type":"address","indexed":false,"internalType":"address"}],"anonymous":false},{"type":"event","name":"PriceOracleUpdated","inputs":[{"name":"newPrices","type":"address","indexed":false,"internalType":"address"}],"anonymous":false},{"type":"event","name":"ReservedNamesMinterChanged","inputs":[{"name":"newReservedNameMinterAddress","type":"address","indexed":false,"internalType":"address"}],"anonymous":false},{"type":"event","name":"ReverseRegistrarUpdated","inputs":[{"name":"newReverseRegistrar","type":"address","indexed":false,"internalType":"address"}],"anonymous":false},{"type":"event","name":"WhitelistAuthorizerChanged","inputs":[{"name":"newWhitelistAuthorizerAddress","type":"address","indexed":false,"internalType":"address"}],"anonymous":false},{"type":"error","name":"AddressEmptyCode","inputs":[{"name":"target","type":"address","internalType":"address"}]},{"type":"error","name":"AddressInsufficientBalance","inputs":[{"name":"account","type":"address","internalType":"address"}]},{"type":"error","name":"CantSetReverseRecordForOthers","inputs":[]},{"type":"error","name":"DurationTooShort","inputs":[{"name":"duration","type":"uint256","internalType":"uint256"}]},{"type":"error","name":"ECDSAInvalidSignature","inputs":[]},{"type":"error","name":"ECDSAInvalidSignatureLength","inputs":[{"name":"length","type":"uint256","internalType":"uint256"}]},{"type":"error","name":"ECDSAInvalidSignatureS","inputs":[{"name":"s","type":"bytes32","internalType":"bytes32"}]},{"type":"error","name":"FailedInnerCall","inputs":[]},{"type":"error","name":"FreeMintLimitReached","inputs":[]},{"type":"error","name":"FreeMintSignatureAlreadyUsed","inputs":[]},{"type":"error","name":"InsufficientValue","inputs":[]},{"type":"error","name":"InvalidFreeWhitelistSigner","inputs":[]},{"type":"error","name":"InvalidPaymentReceiver","inputs":[]},{"type":"error","name":"InvalidSignature","inputs":[]},{"type":"error","name":"InvalidUTF8Byte","inputs":[]},{"type":"error","name":"InvalidWhitelistSigner","inputs":[]},{"type":"error","name":"LaunchTimeInPast","inputs":[]},{"type":"error","name":"MintLimitForRoundReached","inputs":[]},{"type":"error","name":"NameNotAvailable","inputs":[{"name":"name","type":"string","internalType":"string"}]},{"type":"error","name":"NameNotReserved","inputs":[]},{"type":"error","name":"NameReserved","inputs":[]},{"type":"error","name":"NotAuthorisedToMintReservedNames","inputs":[]},{"type":"error","name":"OwnableInvalidOwner","inputs":[{"name":"owner","type":"address","internalType":"address"}]},{"type":"error","name":"OwnableUnauthorizedAccount","inputs":[{"name":"account","type":"address","internalType":"address"}]},{"type":"error","name":"PublicSaleNotLive","inputs":[]},{"type":"error","name":"ReentrancyGuardReentrantCall","inputs":[]},{"type":"error","name":"ResolverRequiredWhenDataSupplied","inputs":[]},{"type":"error","name":"ReverseRecordNotAllowedForReservedNames","inputs":[]},{"type":"error","name":"SafeERC20FailedOperation","inputs":[{"name":"token","type":"address","internalType":"address"}]},{"type":"error","name":"SignatureAlreadyUsed","inputs":[]},{"type":"error","name":"TransferFailed","inputs":[]}],"bytecode":{"object":"0x60c060405234801561000f575f5ffd5b506040516160d63803806160d683398181016040528101906100319190610780565b835f73ffffffffffffffffffffffffffffffffffffffff168173ffffffffffffffffffffffffffffffffffffffff16036100a2575f6040517f1e4fbdf70000000000000000000000000000000000000000000000000000000081526004016100999190610884565b60405180910390fd5b6100b1816103f960201b60201c565b50600180819055508973ffffffffffffffffffffffffffffffffffffffff1660808173ffffffffffffffffffffffffffffffffffffffff16815250508860025f6101000a81548173ffffffffffffffffffffffffffffffffffffffff021916908373ffffffffffffffffffffffffffffffffffffffff1602179055508760035f6101000a81548173ffffffffffffffffffffffffffffffffffffffff021916908373ffffffffffffffffffffffffffffffffffffffff1602179055505f73ffffffffffffffffffffffffffffffffffffffff168773ffffffffffffffffffffffffffffffffffffffff16036101d2576040517f3a504b8700000000000000000000000000000000000000000000000000000000815260040160405180910390fd5b86600c5f6101000a81548173ffffffffffffffffffffffffffffffffffffffff021916908373ffffffffffffffffffffffffffffffffffffffff1602179055505f73ffffffffffffffffffffffffffffffffffffffff168673ffffffffffffffffffffffffffffffffffffffff1603610277576040517fb12e506e00000000000000000000000000000000000000000000000000000000815260040160405180910390fd5b85600d5f6101000a81548173ffffffffffffffffffffffffffffffffffffffff021916908373ffffffffffffffffffffffffffffffffffffffff1602179055508260a0818152505081600590816102ce9190610aad565b508060065f6101000a81548173ffffffffffffffffffffffffffffffffffffffff021916908373ffffffffffffffffffffffffffffffffffffffff1602179055508460045f6101000a81548173ffffffffffffffffffffffffffffffffffffffff021916908373ffffffffffffffffffffffffffffffffffffffff16021790555060035f9054906101000a900473ffffffffffffffffffffffffffffffffffffffff1673ffffffffffffffffffffffffffffffffffffffff16631e83409a856040518263ffffffff1660e01b81526004016103a99190610884565b6020604051808303815f875af11580156103c5573d5f5f3e3d5ffd5b505050506040513d601f19601f820116820180604052508101906103e99190610b7c565b5050505050505050505050610ba7565b5f5f5f9054906101000a900473ffffffffffffffffffffffffffffffffffffffff169050815f5f6101000a81548173ffffffffffffffffffffffffffffffffffffffff021916908373ffffffffffffffffffffffffffffffffffffffff1602179055508173ffffffffffffffffffffffffffffffffffffffff168173ffffffffffffffffffffffffffffffffffffffff167f8be0079c531659141344cd1fd0a4f28419497f9722a3daafe3b4186f6b6457e060405160405180910390a35050565b5f604051905090565b5f5ffd5b5f5ffd5b5f73ffffffffffffffffffffffffffffffffffffffff82169050919050565b5f6104f4826104cb565b9050919050565b5f610505826104ea565b9050919050565b610515816104fb565b811461051f575f5ffd5b50565b5f815190506105308161050c565b92915050565b5f610540826104ea565b9050919050565b61055081610536565b811461055a575f5ffd5b50565b5f8151905061056b81610547565b92915050565b5f61057b826104ea565b9050919050565b61058b81610571565b8114610595575f5ffd5b50565b5f815190506105a681610582565b92915050565b6105b5816104ea565b81146105bf575f5ffd5b50565b5f815190506105d0816105ac565b92915050565b5f6105e0826104ea565b9050919050565b6105f0816105d6565b81146105fa575f5ffd5b50565b5f8151905061060b816105e7565b92915050565b5f819050919050565b61062381610611565b811461062d575f5ffd5b50565b5f8151905061063e8161061a565b92915050565b5f5ffd5b5f5ffd5b5f601f19601f8301169050919050565b7f4e487b71000000000000000000000000000000000000000000000000000000005f52604160045260245ffd5b6106928261064c565b810181811067ffffffffffffffff821117156106b1576106b061065c565b5b80604052505050565b5f6106c36104ba565b90506106cf8282610689565b919050565b5f67ffffffffffffffff8211156106ee576106ed61065c565b5b6106f78261064c565b9050602081019050919050565b8281835e5f83830152505050565b5f61072461071f846106d4565b6106ba565b9050828152602081018484840111156107405761073f610648565b5b61074b848285610704565b509392505050565b5f82601f83011261076757610766610644565b5b8151610777848260208601610712565b91505092915050565b5f5f5f5f5f5f5f5f5f5f6101408b8d03121561079f5761079e6104c3565b5b5f6107ac8d828e01610522565b9a505060206107bd8d828e0161055d565b99505060406107ce8d828e01610598565b98505060606107df8d828e016105c2565b97505060806107f08d828e016105c2565b96505060a06108018d828e016105fd565b95505060c06108128d828e016105c2565b94505060e06108238d828e01610630565b9350506101008b015167ffffffffffffffff811115610845576108446104c7565b5b6108518d828e01610753565b9250506101206108638d828e016105c2565b9150509295989b9194979a5092959850565b61087e816104ea565b82525050565b5f6020820190506108975f830184610875565b92915050565b5f81519050919050565b7f4e487b71000000000000000000000000000000000000000000000000000000005f52602260045260245ffd5b5f60028204905060018216806108eb57607f821691505b6020821081036108fe576108fd6108a7565b5b50919050565b5f819050815f5260205f209050919050565b5f6020601f8301049050919050565b5f82821b905092915050565b5f600883026109607fffffffffffffffffffffffffffffffffffffffffffffffffffffffffffffffff82610925565b61096a8683610925565b95508019841693508086168417925050509392505050565b5f819050919050565b5f819050919050565b5f6109ae6109a96109a484610982565b61098b565b610982565b9050919050565b5f819050919050565b6109c783610994565b6109db6109d3826109b5565b848454610931565b825550505050565b5f5f905090565b6109f26109e3565b6109fd8184846109be565b505050565b5b81811015610a2057610a155f826109ea565b600181019050610a03565b5050565b601f821115610a6557610a3681610904565b610a3f84610916565b81016020851015610a4e578190505b610a62610a5a85610916565b830182610a02565b50505b505050565b5f82821c905092915050565b5f610a855f1984600802610a6a565b1980831691505092915050565b5f610a9d8383610a76565b9150826002028217905092915050565b610ab68261089d565b67ffffffffffffffff811115610acf57610ace61065c565b5b610ad982546108d4565b610ae4828285610a24565b5f60209050601f831160018114610b15575f8415610b03578287015190505b610b0d8582610a92565b865550610b74565b601f198416610b2386610904565b5f5b82811015610b4a57848901518255600182019150602085019450602081019050610b25565b86831015610b675784890151610b63601f891682610a76565b8355505b6001600288020188555050505b505050505050565b5f60208284031215610b9157610b906104c3565b5b5f610b9e84828501610630565b91505092915050565b60805160a0516154f2610be45f395f81816119d5015261379701525f8181610ee301528181610fea01528181611bc1015261292101526154f25ff3fe608060405260043610610219575f3560e01c80638da5cb5b11610122578063d3419bf3116100aa578063eeb144da1161006e578063eeb144da14610783578063f20387df1461079f578063f2fde38b146107c9578063f978fd61146107f1578063faff50a81461082d57610219565b8063d3419bf3146106b7578063d57a11f1146106e1578063dc7daea314610709578063e086e5ec14610731578063e72c1e551461074757610219565b8063aeb8ce9b116100f1578063aeb8ce9b146105e3578063b36c3be81461061f578063bf8066841461063b578063cb37f3b214610663578063d2ff3bdc1461068d57610219565b80638da5cb5b146105395780639791c097146105635780639ff46e741461059f578063acf1a841146105c757610219565b80635d3590d5116101a5578063790ca41311610174578063790ca413146104555780637c127a961461047f57806380869853146104a957806383e7f6ff146104d35780638a95b09f1461050f57610219565b80635d3590d5146103b35780635f17e265146103db57806365ebf99a14610417578063715018a61461043f57610219565b806350cfeddd116101ec57806350cfeddd146102d5578063530e784f146102ff57806354826fe714610327578063557499ba146103635780635829831d1461038b57610219565b8063010adc4d1461021d5780630495a8441461024757806313d56a9c14610271578063501b3fd714610299575b5f5ffd5b348015610228575f5ffd5b50610231610857565b60405161023e9190613e03565b60405180910390f35b348015610252575f5ffd5b5061025b61087f565b6040516102689190613e03565b60405180910390f35b34801561027c575f5ffd5b5061029760048036038101906102929190613e57565b6108a7565b005b3480156102a4575f5ffd5b506102bf60048036038101906102ba9190613eb5565b610929565b6040516102cc9190613f02565b60405180910390f35b3480156102e0575f5ffd5b506102e9610949565b6040516102f69190613f02565b60405180910390f35b34801561030a575f5ffd5b5061032560048036038101906103209190613f56565b61094e565b005b348015610332575f5ffd5b5061034d60048036038101906103489190613fb4565b6109d0565b60405161035a9190613ff9565b60405180910390f35b34801561036e575f5ffd5b506103896004803603810190610384919061404d565b6109ed565b005b348015610396575f5ffd5b506103b160048036038101906103ac9190613e57565b610a6f565b005b3480156103be575f5ffd5b506103d960048036038101906103d49190614078565b610b12565b005b3480156103e6575f5ffd5b5061040160048036038101906103fc9190613e57565b610b4a565b60405161040e91906140e3565b60405180910390f35b348015610422575f5ffd5b5061043d60048036038101906104389190613e57565b610b67565b005b34801561044a575f5ffd5b50610453610c4e565b005b348015610460575f5ffd5b50610469610c61565b6040516104769190613f02565b60405180910390f35b34801561048a575f5ffd5b50610493610c67565b6040516104a09190613e03565b60405180910390f35b3480156104b4575f5ffd5b506104bd610c8f565b6040516104ca9190614157565b60405180910390f35b3480156104de575f5ffd5b506104f960048036038101906104f491906142ac565b610cb4565b6040516105069190614342565b60405180910390f35b34801561051a575f5ffd5b50610523610d76565b6040516105309190613f02565b60405180910390f35b348015610544575f5ffd5b5061054d610d7e565b60405161055a9190613e03565b60405180910390f35b34801561056e575f5ffd5b506105896004803603810190610584919061435b565b610da5565b6040516105969190613ff9565b60405180910390f35b3480156105aa575f5ffd5b506105c560048036038101906105c091906143a2565b610de3565b005b6105e160048036038101906105dc919061442a565b610e66565b005b3480156105ee575f5ffd5b506106096004803603810190610604919061435b565b610fcc565b6040516106169190613ff9565b60405180910390f35b610639600480360381019061063491906144fe565b61108b565b005b348015610646575f5ffd5b50610661600480360381019061065c9190613e57565b6110c9565b005b34801561066e575f5ffd5b5061067761114b565b6040516106849190613e03565b60405180910390f35b348015610698575f5ffd5b506106a1611170565b6040516106ae9190614597565b60405180910390f35b3480156106c2575f5ffd5b506106cb611195565b6040516106d891906145d0565b60405180910390f35b3480156106ec575f5ffd5b5061070760048036038101906107029190614607565b6111ba565b005b348015610714575f5ffd5b5061072f600480360381019061072a9190614680565b61141e565b005b34801561073c575f5ffd5b50610745611768565b005b348015610752575f5ffd5b5061076d600480360381019061076891906142ac565b61182b565b60405161077a9190613f02565b60405180910390f35b61079d60048036038101906107989190614680565b611855565b005b3480156107aa575f5ffd5b506107b36118a6565b6040516107c09190614727565b60405180910390f35b3480156107d4575f5ffd5b506107ef60048036038101906107ea9190613e57565b611932565b005b3480156107fc575f5ffd5b5061081760048036038101906108129190613fb4565b6119b6565b6040516108249190613ff9565b60405180910390f35b348015610838575f5ffd5b506108416119d3565b60405161084e9190614756565b60405180910390f35b5f600d5f9054906101000a900473ffffffffffffffffffffffffffffffffffffffff16905090565b5f600b5f9054906101000a900473ffffffffffffffffffffffffffffffffffffffff16905090565b6108af6119f7565b80600c5f6101000a81548173ffffffffffffffffffffffffffffffffffffffff021916908373ffffffffffffffffffffffffffffffffffffffff1602179055507f63651f54b104da052b16eb4d518afa4c0b1f6d2b77b9ab0f445787585234de378160405161091e9190613e03565b60405180910390a150565b6009602052815f5260405f20602052805f5260405f205f91509150505481565b600181565b6109566119f7565b8060025f6101000a81548173ffffffffffffffffffffffffffffffffffffffff021916908373ffffffffffffffffffffffffffffffffffffffff1602179055507fefe8ab924ca486283a79dc604baa67add51afb82af1db8ac386ebbba643cdffd816040516109c59190613e03565b60405180910390a150565b6008602052805f5260405f205f915054906101000a900460ff1681565b6109f56119f7565b8060035f6101000a81548173ffffffffffffffffffffffffffffffffffffffff021916908373ffffffffffffffffffffffffffffffffffffffff1602179055507fd192c0b229b00473ccb6ccfebf6642805bca1dcdf2d9fb4fd102c7dc7ea4ce2381604051610a649190613e03565b60405180910390a150565b610a776119f7565b80600b5f6101000a81548173ffffffffffffffffffffffffffffffffffffffff021916908373ffffffffffffffffffffffffffffffffffffffff1602179055507f1c8833ad9579b88233573f0b91eb8ab86e24450f9e11151c6387dff4d5b4f61a600b5f9054906101000a900473ffffffffffffffffffffffffffffffffffffffff16604051610b079190613e03565b60405180910390a150565b610b1a6119f7565b610b4582828573ffffffffffffffffffffffffffffffffffffffff16611a7e9092919063ffffffff16565b505050565b600e602052805f5260405f205f915054906101000a900460ff1681565b610b6f6119f7565b5f73ffffffffffffffffffffffffffffffffffffffff168173ffffffffffffffffffffffffffffffffffffffff1603610bd4576040517f7b5da9c000000000000000000000000000000000000000000000000000000000815260040160405180910390fd5b8060065f6101000a81548173ffffffffffffffffffffffffffffffffffffffff021916908373ffffffffffffffffffffffffffffffffffffffff1602179055507f6cfddd24d2afc1b9f31d51f0ef77029fdde044799f0a87a2a09b7673b609742281604051610c439190613e03565b60405180910390a150565b610c566119f7565b610c5f5f611afd565b565b600a5481565b5f600c5f9054906101000a900473ffffffffffffffffffffffffffffffffffffffff16905090565b60035f9054906101000a900473ffffffffffffffffffffffffffffffffffffffff1681565b610cbc613dac565b5f8380519060200120905060025f9054906101000a900473ffffffffffffffffffffffffffffffffffffffff1673ffffffffffffffffffffffffffffffffffffffff166350e9a71585610d10845f1c611bbe565b866040518463ffffffff1660e01b8152600401610d2f9392919061476f565b6040805180830381865afa158015610d49573d5f5f3e3d5ffd5b505050506040513d601f19601f82011682018060405250810190610d6d9190614810565b91505092915050565b6301e1338081565b5f5f5f9054906101000a900473ffffffffffffffffffffffffffffffffffffffff16905090565b5f5f610db083611c83565b90505f610dbc84611c8d565b90505f82118015610dda5750600181148015610dd85750600182115b155b92505050919050565b610deb6119f7565b42811015610e25576040517ff7235ed700000000000000000000000000000000000000000000000000000000815260040160405180910390fd5b80600a819055507fdb5fc205901030b15dae0c28aeedbdf381585f7e12f86855899a3b5328aa34e981604051610e5b9190613f02565b60405180910390a150565b5f8383604051610e77929190614869565b604051809103902090505f815f1c90505f610ed586868080601f0160208091040260200160405190810160405280939291908181526020018383808284375f81840152601f19601f820116905080830192505050505050508561182b565b9050610ee081611dff565b5f7f000000000000000000000000000000000000000000000000000000000000000073ffffffffffffffffffffffffffffffffffffffff1663c475abff84876040518363ffffffff1660e01b8152600401610f3c929190614881565b6020604051808303815f875af1158015610f58573d5f5f3e3d5ffd5b505050506040513d601f19601f82011682018060405250810190610f7c91906148a8565b9050610f8782611e8a565b837f93bc1a84707231b1d9552157299797c64a1a8c5bc79f05153716630c9c4936fc888884604051610fbb939291906148ff565b60405180910390a250505050505050565b5f5f82805190602001209050610fe183610da5565b801561108357507f000000000000000000000000000000000000000000000000000000000000000073ffffffffffffffffffffffffffffffffffffffff16633a178d99825f1c6040518263ffffffff1660e01b81526004016110439190613f02565b602060405180830381865afa15801561105e573d5f5f3e3d5ffd5b505050506040513d601f19601f820116820180604052508101906110829190614959565b5b915050919050565b611096838383611f51565b6110ad83805f01906110a89190614990565b6122a9565b6110c483805f01906110bf9190614990565b61241f565b505050565b6110d16119f7565b80600d5f6101000a81548173ffffffffffffffffffffffffffffffffffffffff021916908373ffffffffffffffffffffffffffffffffffffffff1602179055507f3639a5ccd808ae1a86d60a5b738cd981061b7478ad45ae0b2aea54994938022b816040516111409190613e03565b60405180910390a150565b60065f9054906101000a900473ffffffffffffffffffffffffffffffffffffffff1681565b60045f9054906101000a900473ffffffffffffffffffffffffffffffffffffffff1681565b60025f9054906101000a900473ffffffffffffffffffffffffffffffffffffffff1681565b825f8180608001906111cc91906149b7565b905011801561121857505f73ffffffffffffffffffffffffffffffffffffffff168160600160208101906112009190613e57565b73ffffffffffffffffffffffffffffffffffffffff16145b1561124f576040517fd3f605c400000000000000000000000000000000000000000000000000000000815260040160405180910390fd5b6112a881805f01906112619190614a19565b8080601f0160208091040260200160405190810160405280939291908181526020018383808284375f81840152601f19601f82011690508083019250505050505050610fcc565b6112f85780805f01906112bb9190614a19565b6040517f477707e80000000000000000000000000000000000000000000000000000000081526004016112ef929190614a7b565b60405180910390fd5b6301e13380816040013510156113495780604001356040517f9a71997b0000000000000000000000000000000000000000000000000000000081526004016113409190613f02565b60405180910390fd5b61135484848461262f565b5f6113ae85805f01906113679190614a19565b8080601f0160208091040260200160405190810160405280939291908181526020018383808284375f81840152601f19601f82011690508083019250505050505050611c8d565b905060038110156114055784805f01906113c89190614a19565b6040517f477707e80000000000000000000000000000000000000000000000000000000081526004016113fc929190614a7b565b60405180910390fd5b61140e856122a9565b6114178561291e565b5050505050565b805f81806080019061143091906149b7565b905011801561147c57505f73ffffffffffffffffffffffffffffffffffffffff168160600160208101906114649190613e57565b73ffffffffffffffffffffffffffffffffffffffff16145b156114b3576040517fd3f605c400000000000000000000000000000000000000000000000000000000815260040160405180910390fd5b61150c81805f01906114c59190614a19565b8080601f0160208091040260200160405190810160405280939291908181526020018383808284375f81840152601f19601f82011690508083019250505050505050610fcc565b61155c5780805f019061151f9190614a19565b6040517f477707e8000000000000000000000000000000000000000000000000000000008152600401611553929190614a7b565b60405180910390fd5b6301e13380816040013510156115ad5780604001356040517f9a71997b0000000000000000000000000000000000000000000000000000000081526004016115a49190613f02565b60405180910390fd5b600b5f9054906101000a900473ffffffffffffffffffffffffffffffffffffffff1673ffffffffffffffffffffffffffffffffffffffff163373ffffffffffffffffffffffffffffffffffffffff1614611633576040517fe0d1f21700000000000000000000000000000000000000000000000000000000815260040160405180910390fd5b60045f9054906101000a900473ffffffffffffffffffffffffffffffffffffffff1673ffffffffffffffffffffffffffffffffffffffff16631c40a2ac83805f019061167f9190614a19565b6040518363ffffffff1660e01b815260040161169c929190614a7b565b602060405180830381865afa1580156116b7573d5f5f3e3d5ffd5b505050506040513d601f19601f820116820180604052508101906116db9190614959565b611711576040517ffadfd1ae00000000000000000000000000000000000000000000000000000000815260040160405180910390fd5b8160a00160208101906117249190614ab1565b1561175b576040517fb1a5a8ef00000000000000000000000000000000000000000000000000000000815260040160405180910390fd5b6117648261291e565b5050565b5f60065f9054906101000a900473ffffffffffffffffffffffffffffffffffffffff1673ffffffffffffffffffffffffffffffffffffffff16476040516117ae90614aff565b5f6040518083038185875af1925050503d805f81146117e8576040519150601f19603f3d011682016040523d82523d5f602084013e6117ed565b606091505b5050905080611828576040517f90b8ec1800000000000000000000000000000000000000000000000000000000815260040160405180910390fd5b50565b5f5f6118378484610cb4565b90508060200151815f015161184c9190614b40565b91505092915050565b600a54421015611891576040517fa9f4f87100000000000000000000000000000000000000000000000000000000815260040160405180910390fd5b61189a816122a9565b6118a38161241f565b50565b600580546118b390614ba0565b80601f01602080910402602001604051908101604052809291908181526020018280546118df90614ba0565b801561192a5780601f106119015761010080835404028352916020019161192a565b820191905f5260205f20905b81548152906001019060200180831161190d57829003601f168201915b505050505081565b61193a6119f7565b5f73ffffffffffffffffffffffffffffffffffffffff168173ffffffffffffffffffffffffffffffffffffffff16036119aa575f6040517f1e4fbdf70000000000000000000000000000000000000000000000000000000081526004016119a19190613e03565b60405180910390fd5b6119b381611afd565b50565b6007602052805f5260405f205f915054906101000a900460ff1681565b7f000000000000000000000000000000000000000000000000000000000000000081565b6119ff612c9f565b73ffffffffffffffffffffffffffffffffffffffff16611a1d610d7e565b73ffffffffffffffffffffffffffffffffffffffff1614611a7c57611a40612c9f565b6040517f118cdaa7000000000000000000000000000000000000000000000000000000008152600401611a739190613e03565b60405180910390fd5b565b611af8838473ffffffffffffffffffffffffffffffffffffffff1663a9059cbb8585604051602401611ab1929190614bd0565b604051602081830303815290604052915060e01b6020820180517bffffffffffffffffffffffffffffffffffffffffffffffffffffffff8381831617835250505050612ca6565b505050565b5f5f5f9054906101000a900473ffffffffffffffffffffffffffffffffffffffff169050815f5f6101000a81548173ffffffffffffffffffffffffffffffffffffffff021916908373ffffffffffffffffffffffffffffffffffffffff1602179055508173ffffffffffffffffffffffffffffffffffffffff168173ffffffffffffffffffffffffffffffffffffffff167f8be0079c531659141344cd1fd0a4f28419497f9722a3daafe3b4186f6b6457e060405160405180910390a35050565b5f7f000000000000000000000000000000000000000000000000000000000000000073ffffffffffffffffffffffffffffffffffffffff1663727e4ea7835f1b6040518263ffffffff1660e01b8152600401611c1a9190614756565b602060405180830381865afa158015611c35573d5f5f3e3d5ffd5b505050506040513d601f19601f82011682018060405250810190611c5991906148a8565b90505f8103611c6c57600a549050611c7e565b62278d0081611c7b9190614bf7565b90505b919050565b5f81519050919050565b5f5f8290505f5f90505f5f90505f835190505b80821015611df3575f611cb38584612d3b565b90505f8184611cc29190614bf7565b90505b8281108015611cda5750611cd98682612fac565b5b15611cfb57611ce98682612d3b565b81611cf49190614bf7565b9050611cc5565b5b8281108015611d115750611d108682613482565b5b15611d9757611d208682612d3b565b81611d2b9190614bf7565b905082811015611d8d575f611d408783612d3b565b90508082611d4e9190614bf7565b91505b8382108015611d665750611d658783612fac565b5b15611d8757611d758783612d3b565b82611d809190614bf7565b9150611d51565b50611d92565b611d97565b611cfc565b611da1868561359d565b8015611dac57508281105b8015611dbe5750611dbd868261359d565b5b15611ddb57611dcd8682612d3b565b81611dd89190614bf7565b90505b8480611de690614c2a565b9550508093505050611ca0565b82945050505050919050565b80341015611e39576040517f1101129400000000000000000000000000000000000000000000000000000000815260040160405180910390fd5b3373ffffffffffffffffffffffffffffffffffffffff167fbc769889246686134856b409155bb87630ea5797a705fa98b61f576d316aab9b82604051611e7f9190613f02565b60405180910390a250565b611e926136b8565b80341115611f46575f3373ffffffffffffffffffffffffffffffffffffffff168234611ebe9190614b40565b604051611eca90614aff565b5f6040518083038185875af1925050503d805f8114611f04576040519150601f19603f3d011682016040523d82523d5f602084013e611f09565b606091505b5050905080611f44576040517f90b8ec1800000000000000000000000000000000000000000000000000000000815260040160405180910390fd5b505b611f4e6136fe565b50565b5f83805f0190611f619190614990565b805f0190611f6f9190614a19565b85805f0190611f7e9190614990565b6020016020810190611f909190613e57565b86805f0190611f9f9190614990565b6040013587805f0190611fb29190614990565b6060016020810190611fc49190613e57565b88805f0190611fd39190614990565b8060800190611fe291906149b7565b8a805f0190611ff19190614990565b60a00160208101906120039190614ab1565b8b805f01906120129190614990565b60c00160208101906120249190613e57565b8c602001358d604001356040516020016120489b9a99989796959493929190614dc9565b60405160208183030381529060405290505f61206382613707565b905060075f8281526020019081526020015f205f9054906101000a900460ff16156120ba576040517f900bb2c900000000000000000000000000000000000000000000000000000000815260040160405180910390fd5b846040013560095f3373ffffffffffffffffffffffffffffffffffffffff1673ffffffffffffffffffffffffffffffffffffffff1681526020019081526020015f205f876020013581526020019081526020015f205410612147576040517f771a50b300000000000000000000000000000000000000000000000000000000815260040160405180910390fd5b5f61215382868661373d565b90505f73ffffffffffffffffffffffffffffffffffffffff168173ffffffffffffffffffffffffffffffffffffffff1614806121dc5750600c5f9054906101000a900473ffffffffffffffffffffffffffffffffffffffff1673ffffffffffffffffffffffffffffffffffffffff168173ffffffffffffffffffffffffffffffffffffffff1614155b15612213576040517f8baa579f00000000000000000000000000000000000000000000000000000000815260040160405180910390fd5b600160075f8481526020019081526020015f205f6101000a81548160ff02191690831515021790555060095f3373ffffffffffffffffffffffffffffffffffffffff1673ffffffffffffffffffffffffffffffffffffffff1681526020019081526020015f205f876020013581526020019081526020015f205f81548092919061229c90614c2a565b9190505550505050505050565b60045f9054906101000a900473ffffffffffffffffffffffffffffffffffffffff1673ffffffffffffffffffffffffffffffffffffffff16631c40a2ac82805f01906122f59190614a19565b6040518363ffffffff1660e01b8152600401612312929190614a7b565b602060405180830381865afa15801561232d573d5f5f3e3d5ffd5b505050506040513d601f19601f820116820180604052508101906123519190614959565b15612388576040517f577a3cce00000000000000000000000000000000000000000000000000000000815260040160405180910390fd5b3373ffffffffffffffffffffffffffffffffffffffff168160200160208101906123b29190613e57565b73ffffffffffffffffffffffffffffffffffffffff16141580156123e557508060a00160208101906123e49190614ab1565b5b1561241c576040517f6eb6599d00000000000000000000000000000000000000000000000000000000815260040160405180910390fd5b50565b805f81806080019061243191906149b7565b905011801561247d57505f73ffffffffffffffffffffffffffffffffffffffff168160600160208101906124659190613e57565b73ffffffffffffffffffffffffffffffffffffffff16145b156124b4576040517fd3f605c400000000000000000000000000000000000000000000000000000000815260040160405180910390fd5b61250d81805f01906124c69190614a19565b8080601f0160208091040260200160405190810160405280939291908181526020018383808284375f81840152601f19601f82011690508083019250505050505050610fcc565b61255d5780805f01906125209190614a19565b6040517f477707e8000000000000000000000000000000000000000000000000000000008152600401612554929190614a7b565b60405180910390fd5b6301e13380816040013510156125ae5780604001356040517f9a71997b0000000000000000000000000000000000000000000000000000000081526004016125a59190613f02565b60405180910390fd5b5f61260d83805f01906125c19190614a19565b8080601f0160208091040260200160405190810160405280939291908181526020018383808284375f81840152601f19601f82011690508083019250505050505050846040013561182b565b905061261881611dff565b6126218361291e565b61262a81611e8a565b505050565b5f83805f019061263f9190614a19565b8560200160208101906126529190613e57565b866040013587606001602081019061266a9190613e57565b88806080019061267a91906149b7565b8a60a001602081019061268d9190614ab1565b8b60c00160208101906126a09190613e57565b6040516020016126b899989796959493929190614e66565b60405160208183030381529060405290505f6126d382613707565b905060085f8281526020019081526020015f205f9054906101000a900460ff161561272a576040517f3d47d82300000000000000000000000000000000000000000000000000000000815260040160405180910390fd5b5f600e5f3373ffffffffffffffffffffffffffffffffffffffff1673ffffffffffffffffffffffffffffffffffffffff1681526020019081526020015f205f9054906101000a900460ff1660ff16146127af576040517f227a1a7e00000000000000000000000000000000000000000000000000000000815260040160405180910390fd5b5f6127bb82868661373d565b90505f73ffffffffffffffffffffffffffffffffffffffff168173ffffffffffffffffffffffffffffffffffffffff1614806128445750600d5f9054906101000a900473ffffffffffffffffffffffffffffffffffffffff1673ffffffffffffffffffffffffffffffffffffffff168173ffffffffffffffffffffffffffffffffffffffff1614155b1561287b576040517f8baa579f00000000000000000000000000000000000000000000000000000000815260040160405180910390fd5b600160085f8481526020019081526020015f205f6101000a81548160ff021916908315150217905550600e5f3373ffffffffffffffffffffffffffffffffffffffff1673ffffffffffffffffffffffffffffffffffffffff1681526020019081526020015f205f81819054906101000a900460ff16809291906128fd90614ee5565b91906101000a81548160ff021916908360ff16021790555050505050505050565b5f7f000000000000000000000000000000000000000000000000000000000000000073ffffffffffffffffffffffffffffffffffffffff1663eac2aa0983805f019061296a9190614a19565b604051612978929190614869565b60405180910390205f1c8460200160208101906129959190613e57565b85604001358660600160208101906129ad9190613e57565b5f6040518663ffffffff1660e01b81526004016129ce959493929190614f59565b6020604051808303815f875af11580156129ea573d5f5f3e3d5ffd5b505050506040513d601f19601f82011682018060405250810190612a0e91906148a8565b90505f828060800190612a2191906149b7565b90501115612a7a57612a79826060016020810190612a3f9190613e57565b83805f0190612a4e9190614a19565b604051612a5c929190614869565b6040518091039020848060800190612a7491906149b7565b613794565b5b8160a0016020810190612a8d9190614ab1565b15612b0057612aff82805f0190612aa49190614a19565b8080601f0160208091040260200160405190810160405280939291908181526020018383808284375f81840152601f19601f82011690508083019250505050505050836060016020810190612af99190613e57565b3361386d565b5b816020016020810190612b139190613e57565b73ffffffffffffffffffffffffffffffffffffffff1682805f0190612b389190614a19565b604051612b46929190614869565b60405180910390207f0667086d08417333ce63f40d5bc2ef6fd330e25aaaf317b7c489541f8fe600fa84805f0190612b7e9190614a19565b85604051612b8e939291906148ff565b60405180910390a35f73ffffffffffffffffffffffffffffffffffffffff168260c0016020810190612bc09190613e57565b73ffffffffffffffffffffffffffffffffffffffff1614612c9b578160c0016020810190612bee9190613e57565b73ffffffffffffffffffffffffffffffffffffffff16826020016020810190612c179190613e57565b73ffffffffffffffffffffffffffffffffffffffff1683805f0190612c3c9190614a19565b604051612c4a929190614869565b60405180910390207f1124fcbf46055234a873086b844a44635d54b982d7b4ca7e1631d51a7950e66585805f0190612c829190614a19565b86604051612c92939291906148ff565b60405180910390a45b5050565b5f33905090565b5f612cd0828473ffffffffffffffffffffffffffffffffffffffff1661393590919063ffffffff16565b90505f815114158015612cf4575080806020019051810190612cf29190614959565b155b15612d3657826040517f5274afe7000000000000000000000000000000000000000000000000000000008152600401612d2d9190613e03565b60405180910390fd5b505050565b5f5f838381518110612d5057612d4f614faa565b5b602001015160f81c60f81b60f81c905060808160ff161015612d76576001915050612fa6565b60e08160ff16108015612d9557508351600184612d939190614bf7565b105b8015612dd35750608060c085600186612dae9190614bf7565b81518110612dbf57612dbe614faa565b5b602001015160f81c60f81b60f81c1660ff16145b15612de2576002915050612fa6565b60f08160ff16108015612e0157508351600284612dff9190614bf7565b105b8015612e3f5750608060c085600186612e1a9190614bf7565b81518110612e2b57612e2a614faa565b5b602001015160f81c60f81b60f81c1660ff16145b8015612e7d5750608060c085600286612e589190614bf7565b81518110612e6957612e68614faa565b5b602001015160f81c60f81b60f81c1660ff16145b15612e8c576003915050612fa6565b60f88160ff16108015612eab57508351600384612ea99190614bf7565b105b8015612ee95750608060c085600186612ec49190614bf7565b81518110612ed557612ed4614faa565b5b602001015160f81c60f81b60f81c1660ff16145b8015612f275750608060c085600286612f029190614bf7565b81518110612f1357612f12614faa565b5b602001015160f81c60f81b60f81c1660ff16145b8015612f655750608060c085600386612f409190614bf7565b81518110612f5157612f50614faa565b5b602001015160f81c60f81b60f81c1660ff16145b15612f74576004915050612fa6565b6040517fc2e135fe00000000000000000000000000000000000000000000000000000000815260040160405180910390fd5b92915050565b5f5f838381518110612fc157612fc0614faa565b5b602001015160f81c60f81b60f81c905060cc8160ff161480612fe6575060cd8160ff16145b15612ff557600191505061347c565b60e28160ff16148015613014575083516002846130129190614bf7565b105b156130b1575f846001856130289190614bf7565b8151811061303957613038614faa565b5b602001015160f81c60f81b60f81c90505f856002866130589190614bf7565b8151811061306957613068614faa565b5b602001015160f81c60f81b60f81c905060808260ff1614801561309d5750608f8160ff16148061309c5750608e8160ff16145b5b156130ae576001935050505061347c565b50505b60f08160ff161480156130d0575083516003846130ce9190614bf7565b105b156131dd575f846001856130e49190614bf7565b815181106130f5576130f4614faa565b5b602001015160f81c60f81b60f81c90505f856002866131149190614bf7565b8151811061312557613124614faa565b5b602001015160f81c60f81b60f81c90505f866003876131449190614bf7565b8151811061315557613154614faa565b5b602001015160f81c60f81b60f81c9050609f8360ff1614801561317b5750608f8260ff16145b801561319b575060bb8160ff161015801561319a575060bf8160ff1611155b5b806131c75750609f8360ff161480156131b7575060a48260ff16145b80156131c6575060b08160ff16145b5b156131d957600194505050505061347c565b5050505b60ef8160ff161480156131fc575083516002846131fa9190614bf7565b105b1561328b575f846001856132109190614bf7565b8151811061322157613220614faa565b5b602001015160f81c60f81b60f81c90505f856002866132409190614bf7565b8151811061325157613250614faa565b5b602001015160f81c60f81b60f81c905060b88260ff161480156132775750608f8160ff16145b15613288576001935050505061347c565b50505b60e28160ff161480156132aa575083516002846132a89190614bf7565b105b15613339575f846001856132be9190614bf7565b815181106132cf576132ce614faa565b5b602001015160f81c60f81b60f81c90505f856002866132ee9190614bf7565b815181106132ff576132fe614faa565b5b602001015160f81c60f81b60f81c905060838260ff16148015613325575060a38160ff16145b15613336576001935050505061347c565b50505b60f38160ff16148015613358575083516002846133569190614bf7565b105b80156133b2575060a060f81b846001856133729190614bf7565b8151811061338357613382614faa565b5b602001015160f81c60f81b7effffffffffffffffffffffffffffffffffffffffffffffffffffffffffffff1916145b801561340d5750608060f81b846002856133cc9190614bf7565b815181106133dd576133dc614faa565b5b602001015160f81c60f81b7effffffffffffffffffffffffffffffffffffffffffffffffffffffffffffff191610155b80156134685750609f60f81b846002856134279190614bf7565b8151811061343857613437614faa565b5b602001015160f81c60f81b7effffffffffffffffffffffffffffffffffffffffffffffffffffffffffffff191611155b1561347757600191505061347c565b5f9150505b92915050565b5f60e260f81b83838151811061349b5761349a614faa565b5b602001015160f81c60f81b7effffffffffffffffffffffffffffffffffffffffffffffffffffffffffffff19161480156134e1575082516002836134df9190614bf7565b105b801561353b5750608060f81b836001846134fb9190614bf7565b8151811061350c5761350b614faa565b5b602001015160f81c60f81b7effffffffffffffffffffffffffffffffffffffffffffffffffffffffffffff1916145b80156135955750608d60f81b836002846135559190614bf7565b8151811061356657613565614faa565b5b602001015160f81c60f81b7effffffffffffffffffffffffffffffffffffffffffffffffffffffffffffff1916145b905092915050565b5f60f060f81b8383815181106135b6576135b5614faa565b5b602001015160f81c60f81b7effffffffffffffffffffffffffffffffffffffffffffffffffffffffffffff19161480156135fc575082516003836135fa9190614bf7565b105b80156136565750609f60f81b836001846136169190614bf7565b8151811061362757613626614faa565b5b602001015160f81c60f81b7effffffffffffffffffffffffffffffffffffffffffffffffffffffffffffff1916145b80156136b05750608760f81b836002846136709190614bf7565b8151811061368157613680614faa565b5b602001015160f81c60f81b7effffffffffffffffffffffffffffffffffffffffffffffffffffffffffffff1916145b905092915050565b6002600154036136f4576040517f3ee5aeb500000000000000000000000000000000000000000000000000000000815260040160405180910390fd5b6002600181905550565b60018081905550565b5f8180519060200120604051602001613720919061504b565b604051602081830303815290604052805190602001209050919050565b5f61378b8484848080601f0160208091040260200160405190810160405280939291908181526020018383808284375f81840152601f19601f8201169050808301925050505050505061394a565b90509392505050565b5f7f0000000000000000000000000000000000000000000000000000000000000000846040516020016137c8929190615070565b6040516020818303038152906040528051906020012090505f8590508073ffffffffffffffffffffffffffffffffffffffff1663e32954eb8386866040518463ffffffff1660e01b81526004016138219392919061509b565b5f604051808303815f875af115801561383c573d5f5f3e3d5ffd5b505050506040513d5f823e3d601f19601f820116820180604052508101906138649190615247565b50505050505050565b60035f9054906101000a900473ffffffffffffffffffffffffffffffffffffffff1673ffffffffffffffffffffffffffffffffffffffff16637a806d6b3383858760056040516020016138c1929190615350565b6040516020818303038152906040526040518563ffffffff1660e01b81526004016138ef9493929190615373565b6020604051808303815f875af115801561390b573d5f5f3e3d5ffd5b505050506040513d601f19601f8201168201806040525081019061392f91906153d1565b50505050565b606061394283835f613974565b905092915050565b5f5f5f5f6139588686613a3d565b9250925092506139688282613a92565b82935050505092915050565b6060814710156139bb57306040517fcd7860590000000000000000000000000000000000000000000000000000000081526004016139b29190613e03565b60405180910390fd5b5f5f8573ffffffffffffffffffffffffffffffffffffffff1684866040516139e39190615436565b5f6040518083038185875af1925050503d805f8114613a1d576040519150601f19603f3d011682016040523d82523d5f602084013e613a22565b606091505b5091509150613a32868383613bf4565b925050509392505050565b5f5f5f6041845103613a7d575f5f5f602087015192506040870151915060608701515f1a9050613a6f88828585613c81565b955095509550505050613a8b565b5f600285515f1b9250925092505b9250925092565b5f6003811115613aa557613aa461544c565b5b826003811115613ab857613ab761544c565b5b0315613bf05760016003811115613ad257613ad161544c565b5b826003811115613ae557613ae461544c565b5b03613b1c576040517ff645eedf00000000000000000000000000000000000000000000000000000000815260040160405180910390fd5b60026003811115613b3057613b2f61544c565b5b826003811115613b4357613b4261544c565b5b03613b8757805f1c6040517ffce698f7000000000000000000000000000000000000000000000000000000008152600401613b7e9190613f02565b60405180910390fd5b600380811115613b9a57613b9961544c565b5b826003811115613bad57613bac61544c565b5b03613bef57806040517fd78bce0c000000000000000000000000000000000000000000000000000000008152600401613be69190614756565b60405180910390fd5b5b5050565b606082613c0957613c0482613d68565b613c79565b5f8251148015613c2f57505f8473ffffffffffffffffffffffffffffffffffffffff163b145b15613c7157836040517f9996b315000000000000000000000000000000000000000000000000000000008152600401613c689190613e03565b60405180910390fd5b819050613c7a565b5b9392505050565b5f5f5f7f7fffffffffffffffffffffffffffffff5d576e7357a4501ddfe92f46681b20a0845f1c1115613cbd575f600385925092509250613d5e565b5f6001888888886040515f8152602001604052604051613ce09493929190615479565b6020604051602081039080840390855afa158015613d00573d5f5f3e3d5ffd5b5050506020604051035190505f73ffffffffffffffffffffffffffffffffffffffff168173ffffffffffffffffffffffffffffffffffffffff1603613d51575f60015f5f1b93509350935050613d5e565b805f5f5f1b935093509350505b9450945094915050565b5f81511115613d7a5780518082602001fd5b6040517f1425ea4200000000000000000000000000000000000000000000000000000000815260040160405180910390fd5b60405180604001604052805f81526020015f81525090565b5f73ffffffffffffffffffffffffffffffffffffffff82169050919050565b5f613ded82613dc4565b9050919050565b613dfd81613de3565b82525050565b5f602082019050613e165f830184613df4565b92915050565b5f604051905090565b5f5ffd5b5f5ffd5b613e3681613de3565b8114613e40575f5ffd5b50565b5f81359050613e5181613e2d565b92915050565b5f60208284031215613e6c57613e6b613e25565b5b5f613e7984828501613e43565b91505092915050565b5f819050919050565b613e9481613e82565b8114613e9e575f5ffd5b50565b5f81359050613eaf81613e8b565b92915050565b5f5f60408385031215613ecb57613eca613e25565b5b5f613ed885828601613e43565b9250506020613ee985828601613ea1565b9150509250929050565b613efc81613e82565b82525050565b5f602082019050613f155f830184613ef3565b92915050565b5f613f2582613de3565b9050919050565b613f3581613f1b565b8114613f3f575f5ffd5b50565b5f81359050613f5081613f2c565b92915050565b5f60208284031215613f6b57613f6a613e25565b5b5f613f7884828501613f42565b91505092915050565b5f819050919050565b613f9381613f81565b8114613f9d575f5ffd5b50565b5f81359050613fae81613f8a565b92915050565b5f60208284031215613fc957613fc8613e25565b5b5f613fd684828501613fa0565b91505092915050565b5f8115159050919050565b613ff381613fdf565b82525050565b5f60208201905061400c5f830184613fea565b92915050565b5f61401c82613de3565b9050919050565b61402c81614012565b8114614036575f5ffd5b50565b5f8135905061404781614023565b92915050565b5f6020828403121561406257614061613e25565b5b5f61406f84828501614039565b91505092915050565b5f5f5f6060848603121561408f5761408e613e25565b5b5f61409c86828701613e43565b93505060206140ad86828701613e43565b92505060406140be86828701613ea1565b9150509250925092565b5f60ff82169050919050565b6140dd816140c8565b82525050565b5f6020820190506140f65f8301846140d4565b92915050565b5f819050919050565b5f61411f61411a61411584613dc4565b6140fc565b613dc4565b9050919050565b5f61413082614105565b9050919050565b5f61414182614126565b9050919050565b61415181614137565b82525050565b5f60208201905061416a5f830184614148565b92915050565b5f5ffd5b5f5ffd5b5f601f19601f8301169050919050565b7f4e487b71000000000000000000000000000000000000000000000000000000005f52604160045260245ffd5b6141be82614178565b810181811067ffffffffffffffff821117156141dd576141dc614188565b5b80604052505050565b5f6141ef613e1c565b90506141fb82826141b5565b919050565b5f67ffffffffffffffff82111561421a57614219614188565b5b61422382614178565b9050602081019050919050565b828183375f83830152505050565b5f61425061424b84614200565b6141e6565b90508281526020810184848401111561426c5761426b614174565b5b614277848285614230565b509392505050565b5f82601f83011261429357614292614170565b5b81356142a384826020860161423e565b91505092915050565b5f5f604083850312156142c2576142c1613e25565b5b5f83013567ffffffffffffffff8111156142df576142de613e29565b5b6142eb8582860161427f565b92505060206142fc85828601613ea1565b9150509250929050565b61430f81613e82565b82525050565b604082015f8201516143295f850182614306565b50602082015161433c6020850182614306565b50505050565b5f6040820190506143555f830184614315565b92915050565b5f602082840312156143705761436f613e25565b5b5f82013567ffffffffffffffff81111561438d5761438c613e29565b5b6143998482850161427f565b91505092915050565b5f602082840312156143b7576143b6613e25565b5b5f6143c484828501613ea1565b91505092915050565b5f5ffd5b5f5ffd5b5f5f83601f8401126143ea576143e9614170565b5b8235905067ffffffffffffffff811115614407576144066143cd565b5b602083019150836001820283011115614423576144226143d1565b5b9250929050565b5f5f5f6040848603121561444157614440613e25565b5b5f84013567ffffffffffffffff81111561445e5761445d613e29565b5b61446a868287016143d5565b9350935050602061447d86828701613ea1565b9150509250925092565b5f5ffd5b5f606082840312156144a05761449f614487565b5b81905092915050565b5f5f83601f8401126144be576144bd614170565b5b8235905067ffffffffffffffff8111156144db576144da6143cd565b5b6020830191508360018202830111156144f7576144f66143d1565b5b9250929050565b5f5f5f6040848603121561451557614514613e25565b5b5f84013567ffffffffffffffff81111561453257614531613e29565b5b61453e8682870161448b565b935050602084013567ffffffffffffffff81111561455f5761455e613e29565b5b61456b868287016144a9565b92509250509250925092565b5f61458182614126565b9050919050565b61459181614577565b82525050565b5f6020820190506145aa5f830184614588565b92915050565b5f6145ba82614126565b9050919050565b6145ca816145b0565b82525050565b5f6020820190506145e35f8301846145c1565b92915050565b5f60e082840312156145fe576145fd614487565b5b81905092915050565b5f5f5f6040848603121561461e5761461d613e25565b5b5f84013567ffffffffffffffff81111561463b5761463a613e29565b5b614647868287016145e9565b935050602084013567ffffffffffffffff81111561466857614667613e29565b5b614674868287016144a9565b92509250509250925092565b5f6020828403121561469557614694613e25565b5b5f82013567ffffffffffffffff8111156146b2576146b1613e29565b5b6146be848285016145e9565b91505092915050565b5f81519050919050565b5f82825260208201905092915050565b8281835e5f83830152505050565b5f6146f9826146c7565b61470381856146d1565b93506147138185602086016146e1565b61471c81614178565b840191505092915050565b5f6020820190508181035f83015261473f81846146ef565b905092915050565b61475081613f81565b82525050565b5f6020820190506147695f830184614747565b92915050565b5f6060820190508181035f83015261478781866146ef565b90506147966020830185613ef3565b6147a36040830184613ef3565b949350505050565b5f5ffd5b5f815190506147bd81613e8b565b92915050565b5f604082840312156147d8576147d76147ab565b5b6147e260406141e6565b90505f6147f1848285016147af565b5f830152506020614804848285016147af565b60208301525092915050565b5f6040828403121561482557614824613e25565b5b5f614832848285016147c3565b91505092915050565b5f81905092915050565b5f614850838561483b565b935061485d838584614230565b82840190509392505050565b5f614875828486614845565b91508190509392505050565b5f6040820190506148945f830185613ef3565b6148a16020830184613ef3565b9392505050565b5f602082840312156148bd576148bc613e25565b5b5f6148ca848285016147af565b91505092915050565b5f6148de83856146d1565b93506148eb838584614230565b6148f483614178565b840190509392505050565b5f6040820190508181035f8301526149188185876148d3565b90506149276020830184613ef3565b949350505050565b61493881613fdf565b8114614942575f5ffd5b50565b5f815190506149538161492f565b92915050565b5f6020828403121561496e5761496d613e25565b5b5f61497b84828501614945565b91505092915050565b5f5ffd5b5f5ffd5b5f5ffd5b5f8235600160e0038336030381126149ab576149aa614984565b5b80830191505092915050565b5f5f833560016020038436030381126149d3576149d2614984565b5b80840192508235915067ffffffffffffffff8211156149f5576149f4614988565b5b602083019250602082023603831315614a1157614a1061498c565b5b509250929050565b5f5f83356001602003843603038112614a3557614a34614984565b5b80840192508235915067ffffffffffffffff821115614a5757614a56614988565b5b602083019250600182023603831315614a7357614a7261498c565b5b509250929050565b5f6020820190508181035f830152614a948184866148d3565b90509392505050565b5f81359050614aab8161492f565b92915050565b5f60208284031215614ac657614ac5613e25565b5b5f614ad384828501614a9d565b91505092915050565b50565b5f614aea5f8361483b565b9150614af582614adc565b5f82019050919050565b5f614b0982614adf565b9150819050919050565b7f4e487b71000000000000000000000000000000000000000000000000000000005f52601160045260245ffd5b5f614b4a82613e82565b9150614b5583613e82565b9250828203905081811115614b6d57614b6c614b13565b5b92915050565b7f4e487b71000000000000000000000000000000000000000000000000000000005f52602260045260245ffd5b5f6002820490506001821680614bb757607f821691505b602082108103614bca57614bc9614b73565b5b50919050565b5f604082019050614be35f830185613df4565b614bf06020830184613ef3565b9392505050565b5f614c0182613e82565b9150614c0c83613e82565b9250828201905080821115614c2457614c23614b13565b5b92915050565b5f614c3482613e82565b91507fffffffffffffffffffffffffffffffffffffffffffffffffffffffffffffffff8203614c6657614c65614b13565b5b600182019050919050565b5f82825260208201905092915050565b5f819050919050565b5f82825260208201905092915050565b5f614ca58385614c8a565b9350614cb2838584614230565b614cbb83614178565b840190509392505050565b5f614cd2848484614c9a565b90509392505050565b5f5ffd5b5f5ffd5b5f5ffd5b5f5f83356001602003843603038112614d0357614d02614ce3565b5b83810192508235915060208301925067ffffffffffffffff821115614d2b57614d2a614cdb565b5b600182023603831315614d4157614d40614cdf565b5b509250929050565b5f602082019050919050565b5f614d608385614c71565b935083602084028501614d7284614c81565b805f5b87811015614db7578484038952614d8c8284614ce7565b614d97868284614cc6565b9550614da284614d49565b935060208b019a505050600181019050614d75565b50829750879450505050509392505050565b5f610120820190508181035f830152614de3818d8f6148d3565b9050614df2602083018c613df4565b614dff604083018b613ef3565b614e0c606083018a613df4565b8181036080830152614e1f81888a614d55565b9050614e2e60a0830187613fea565b614e3b60c0830186613df4565b614e4860e0830185613ef3565b614e56610100830184613ef3565b9c9b505050505050505050505050565b5f60e0820190508181035f830152614e7f818b8d6148d3565b9050614e8e602083018a613df4565b614e9b6040830189613ef3565b614ea86060830188613df4565b8181036080830152614ebb818688614d55565b9050614eca60a0830185613fea565b614ed760c0830184613df4565b9a9950505050505050505050565b5f614eef826140c8565b915060ff8203614f0257614f01614b13565b5b600182019050919050565b5f819050919050565b5f67ffffffffffffffff82169050919050565b5f614f43614f3e614f3984614f0d565b6140fc565b614f16565b9050919050565b614f5381614f29565b82525050565b5f60a082019050614f6c5f830188613ef3565b614f796020830187613df4565b614f866040830186613ef3565b614f936060830185613df4565b614fa06080830184614f4a565b9695505050505050565b7f4e487b71000000000000000000000000000000000000000000000000000000005f52603260045260245ffd5b5f81905092915050565b7f19457468657265756d205369676e6564204d6573736167653a0a3332000000005f82015250565b5f615015601c83614fd7565b915061502082614fe1565b601c82019050919050565b5f819050919050565b61504561504082613f81565b61502b565b82525050565b5f61505582615009565b91506150618284615034565b60208201915081905092915050565b5f61507b8285615034565b60208201915061508b8284615034565b6020820191508190509392505050565b5f6040820190506150ae5f830186614747565b81810360208301526150c1818486614d55565b9050949350505050565b5f67ffffffffffffffff8211156150e5576150e4614188565b5b602082029050602081019050919050565b5f67ffffffffffffffff8211156151105761510f614188565b5b61511982614178565b9050602081019050919050565b5f615138615133846150f6565b6141e6565b90508281526020810184848401111561515457615153614174565b5b61515f8482856146e1565b509392505050565b5f82601f83011261517b5761517a614170565b5b815161518b848260208601615126565b91505092915050565b5f6151a66151a1846150cb565b6141e6565b905080838252602082019050602084028301858111156151c9576151c86143d1565b5b835b8181101561521057805167ffffffffffffffff8111156151ee576151ed614170565b5b8086016151fb8982615167565b855260208501945050506020810190506151cb565b5050509392505050565b5f82601f83011261522e5761522d614170565b5b815161523e848260208601615194565b91505092915050565b5f6020828403121561525c5761525b613e25565b5b5f82015167ffffffffffffffff81111561527957615278613e29565b5b6152858482850161521a565b91505092915050565b5f615298826146c7565b6152a28185614fd7565b93506152b28185602086016146e1565b80840191505092915050565b5f819050815f5260205f209050919050565b5f81546152dc81614ba0565b6152e68186614fd7565b9450600182165f8114615300576001811461531557615347565b60ff1983168652811515820286019350615347565b61531e856152be565b5f5b8381101561533f57815481890152600182019150602081019050615320565b838801955050505b50505092915050565b5f61535b828561528e565b915061536782846152d0565b91508190509392505050565b5f6080820190506153865f830187613df4565b6153936020830186613df4565b6153a06040830185613df4565b81810360608301526153b281846146ef565b905095945050505050565b5f815190506153cb81613f8a565b92915050565b5f602082840312156153e6576153e5613e25565b5b5f6153f3848285016153bd565b91505092915050565b5f81519050919050565b5f615410826153fc565b61541a818561483b565b935061542a8185602086016146e1565b80840191505092915050565b5f6154418284615406565b915081905092915050565b7f4e487b71000000000000000000000000000000000000000000000000000000005f52602160045260245ffd5b5f60808201905061548c5f830187614747565b61549960208301866140d4565b6154a66040830185614747565b6154b36060830184614747565b9594505050505056fea2646970667358221220a78a370ab0ca7fb3a4b04087879cc15402f91d944122cec3699ec18596ae307564736f6c634300081e0033","linkReferences":{}},"methodIdentifiers":{"MIN_NAME_LENGTH()":"50cfeddd","MIN_REGISTRATION_DURATION()":"8a95b09f","available(string)":"aeb8ce9b","freeMintsByAddress(address)":"5f17e265","getFreeWhitelistAuthorizer()":"010adc4d","getReservedNamesMinter()":"0495a844","getWhitelistAuthorizer()":"7c127a96","launchTime()":"790ca413","mintsCountByRoundByAddress(address,uint256)":"501b3fd7","owner()":"8da5cb5b","paymentReceiver()":"cb37f3b2","prices()":"d3419bf3","recoverFunds(address,address,uint256)":"5d3590d5","register((string,address,uint256,address,bytes[],bool,address))":"eeb144da","registerPrice(string,uint256)":"e72c1e55","renew(string,uint256)":"acf1a841","renounceOwnership()":"715018a6","rentPrice(string,uint256)":"83e7f6ff","reservedRegister((string,address,uint256,address,bytes[],bool,address))":"dc7daea3","reservedRegistry()":"d2ff3bdc","reverseRegistrar()":"80869853","rootName()":"f20387df","rootNode()":"faff50a8","setFreeWhitelistAuthorizer(address)":"bf806684","setLaunchTime(uint256)":"9ff46e74","setPaymentReceiver(address)":"65ebf99a","setPriceOracle(address)":"530e784f","setReservedNamesMinter(address)":"5829831d","setReverseRegistrar(address)":"557499ba","setWhitelistAuthorizer(address)":"13d56a9c","transferOwnership(address)":"f2fde38b","usedFreeMintsSignatures(bytes32)":"54826fe7","usedSignatures(bytes32)":"f978fd61","valid(string)":"9791c097","whitelistFreeRegister((string,address,uint256,address,bytes[],bool,address),bytes)":"d57a11f1","whitelistRegister(((string,address,uint256,address,bytes[],bool,address),uint256,uint256),bytes)":"b36c3be8","withdrawETH()":"e086e5ec"},"id":46}