{"abi":[{"type":"constructor","inputs":[{"name":"registry_","type":"address","internalType":"contract LNS"}],"stateMutability":"nonpayable"},{"type":"function","name":"claim","inputs":[{"name":"owner","type":"address","internalType":"address"}],"outputs":[{"name":"","type":"bytes32","internalType":"bytes32"}],"stateMutability":"nonpayable"},{"type":"function","name":"claimForAddr","inputs":[{"name":"addr","type":"address","internalType":"address"},{"name":"owner","type":"address","internalType":"address"},{"name":"resolver","type":"address","internalType":"address"}],"outputs":[{"name":"","type":"bytes32","internalType":"bytes32"}],"stateMutability":"nonpayable"},{"type":"function","name":"claimWithResolver","inputs":[{"name":"owner","type":"address","internalType":"address"},{"name":"resolver","type":"address","internalType":"address"}],"outputs":[{"name":"","type":"bytes32","internalType":"bytes32"}],"stateMutability":"nonpayable"},{"type":"function","name":"controllers","inputs":[{"name":"","type":"address","internalType":"address"}],"outputs":[{"name":"","type":"bool","internalType":"bool"}],"stateMutability":"view"},{"type":"function","name":"defaultResolver","inputs":[],"outputs":[{"name":"","type":"address","internalType":"contract AbstractNameResolver"}],"stateMutability":"view"},{"type":"function","name":"node","inputs":[{"name":"addr","type":"address","internalType":"address"}],"outputs":[{"name":"","type":"bytes32","internalType":"bytes32"}],"stateMutability":"pure"},{"type":"function","name":"owner","inputs":[],"outputs":[{"name":"","type":"address","internalType":"address"}],"stateMutability":"view"},{"type":"function","name":"registry","inputs":[],"outputs":[{"name":"","type":"address","internalType":"contract LNS"}],"stateMutability":"view"},{"type":"function","name":"renounceOwnership","inputs":[],"outputs":[],"stateMutability":"nonpayable"},{"type":"function","name":"setController","inputs":[{"name":"controller","type":"address","internalType":"address"},{"name":"enabled","type":"bool","internalType":"bool"}],"outputs":[],"stateMutability":"nonpayable"},{"type":"function","name":"setDefaultResolver","inputs":[{"name":"resolver","type":"address","internalType":"address"}],"outputs":[],"stateMutability":"nonpayable"},{"type":"function","name":"setName","inputs":[{"name":"name","type":"string","internalType":"string"}],"outputs":[{"name":"","type":"bytes32","internalType":"bytes32"}],"stateMutability":"nonpayable"},{"type":"function","name":"setNameForAddr","inputs":[{"name":"addr","type":"address","internalType":"address"},{"name":"owner","type":"address","internalType":"address"},{"name":"resolver","type":"address","internalType":"address"},{"name":"name","type":"string","internalType":"string"}],"outputs":[{"name":"","type":"bytes32","internalType":"bytes32"}],"stateMutability":"nonpayable"},{"type":"function","name":"transferOwnership","inputs":[{"name":"newOwner","type":"address","internalType":"address"}],"outputs":[],"stateMutability":"nonpayable"},{"type":"event","name":"ControllerChanged","inputs":[{"name":"controller","type":"address","indexed":true,"internalType":"address"},{"name":"enabled","type":"bool","indexed":false,"internalType":"bool"}],"anonymous":false},{"type":"event","name":"DefaultResolverChanged","inputs":[{"name":"resolver","type":"address","indexed":true,"internalType":"contract AbstractNameResolver"}],"anonymous":false},{"type":"event","name":"OwnershipTransferred","inputs":[{"name":"previousOwner","type":"address","indexed":true,"internalType":"address"},{"name":"newOwner","type":"address","indexed":true,"internalType":"address"}],"anonymous":false},{"type":"event","name":"ReverseClaimed","inputs":[{"name":"addr","type":"address","indexed":true,"internalType":"address"},{"name":"node","type":"bytes32","indexed":true,"internalType":"bytes32"}],"anonymous":false},{"type":"error","name":"InvalidRegistry","inputs":[]},{"type":"error","name":"OwnableInvalidOwner","inputs":[{"name":"owner","type":"address","internalType":"address"}]},{"type":"error","name":"OwnableUnauthorizedAccount","inputs":[{"name":"account","type":"address","internalType":"address"}]}],"bytecode":{"object":"0x60a060405234801561000f575f5ffd5b506040516117a73803806117a783398181016040528101906100319190610283565b33805f73ffffffffffffffffffffffffffffffffffffffff168173ffffffffffffffffffffffffffffffffffffffff16036100a3575f6040517f1e4fbdf700000000000000000000000000000000000000000000000000000000815260040161009a91906102bd565b60405180910390fd5b6100b28161015360201b60201c565b50505f73ffffffffffffffffffffffffffffffffffffffff168173ffffffffffffffffffffffffffffffffffffffff1603610119576040517f11a1e69700000000000000000000000000000000000000000000000000000000815260040160405180910390fd5b8073ffffffffffffffffffffffffffffffffffffffff1660808173ffffffffffffffffffffffffffffffffffffffff1681525050506102d6565b5f5f5f9054906101000a900473ffffffffffffffffffffffffffffffffffffffff169050815f5f6101000a81548173ffffffffffffffffffffffffffffffffffffffff021916908373ffffffffffffffffffffffffffffffffffffffff1602179055508173ffffffffffffffffffffffffffffffffffffffff168173ffffffffffffffffffffffffffffffffffffffff167f8be0079c531659141344cd1fd0a4f28419497f9722a3daafe3b4186f6b6457e060405160405180910390a35050565b5f5ffd5b5f73ffffffffffffffffffffffffffffffffffffffff82169050919050565b5f61024182610218565b9050919050565b5f61025282610237565b9050919050565b61026281610248565b811461026c575f5ffd5b50565b5f8151905061027d81610259565b92915050565b5f6020828403121561029857610297610214565b5b5f6102a58482850161026f565b91505092915050565b6102b781610237565b82525050565b5f6020820190506102d05f8301846102ae565b92915050565b6080516114ab6102fc5f395f81816103c60152818161050a01526106a101526114ab5ff3fe608060405234801561000f575f5ffd5b50600436106100e8575f3560e01c80638da5cb5b1161008a578063c66485b211610064578063c66485b214610270578063da8c229e1461028c578063e0dba60f146102bc578063f2fde38b146102d8576100e8565b80638da5cb5b146101f2578063bffbe61c14610210578063c47f002714610240576100e8565b8063715018a6116100c6578063715018a61461017c5780637a806d6b146101865780637b103999146101b6578063828eab0e146101d4576100e8565b80630f5a5466146100ec5780631e83409a1461011c578063656696311461014c575b5f5ffd5b61010660048036038101906101019190610cbb565b6102f4565b6040516101139190610d11565b60405180910390f35b61013660048036038101906101319190610d2a565b610308565b6040516101439190610d11565b60405180910390f35b61016660048036038101906101619190610d55565b61033c565b6040516101739190610d11565b60405180910390f35b610184610609565b005b6101a0600480360381019061019b9190610ee1565b61061c565b6040516101ad9190610d11565b60405180910390f35b6101be61069f565b6040516101cb9190610fbc565b60405180910390f35b6101dc6106c3565b6040516101e99190610ff5565b60405180910390f35b6101fa6106e8565b604051610207919061101d565b60405180910390f35b61022a60048036038101906102259190610d2a565b61070f565b6040516102379190610d11565b60405180910390f35b61025a60048036038101906102559190611036565b61076a565b6040516102679190610d11565b60405180910390f35b61028a60048036038101906102859190610d2a565b61079f565b005b6102a660048036038101906102a19190610d2a565b61089b565b6040516102b39190611097565b60405180910390f35b6102d660048036038101906102d191906110da565b6108b8565b005b6102f260048036038101906102ed9190610d2a565b610966565b005b5f61030033848461033c565b905092915050565b5f610335338360025f9054906101000a900473ffffffffffffffffffffffffffffffffffffffff1661033c565b9050919050565b5f833373ffffffffffffffffffffffffffffffffffffffff168173ffffffffffffffffffffffffffffffffffffffff1614806103be575060015f3373ffffffffffffffffffffffffffffffffffffffff1673ffffffffffffffffffffffffffffffffffffffff1681526020019081526020015f205f9054906101000a900460ff165b8061045f57507f000000000000000000000000000000000000000000000000000000000000000073ffffffffffffffffffffffffffffffffffffffff1663e985e9c582336040518363ffffffff1660e01b815260040161041f929190611118565b602060405180830381865afa15801561043a573d5f5f3e3d5ffd5b505050506040513d601f19601f8201168201806040525081019061045e9190611153565b5b8061046f575061046e816109ea565b5b6104ae576040517f08c379a00000000000000000000000000000000000000000000000000000000081526004016104a590611224565b60405180910390fd5b5f6104b886610a97565b90505f7f91d1777781884d03a6757a803996e38de2a42967fb37eeaca72729271025a9e25f1b826040516020016104f0929190611262565b6040516020818303038152906040528051906020012090507f000000000000000000000000000000000000000000000000000000000000000073ffffffffffffffffffffffffffffffffffffffff16635ef2c7f07f91d1777781884d03a6757a803996e38de2a42967fb37eeaca72729271025a9e25f1b8489895f6040518663ffffffff1660e01b815260040161058b9594939291906112d9565b5f604051808303815f87803b1580156105a2575f5ffd5b505af11580156105b4573d5f5f3e3d5ffd5b50505050808773ffffffffffffffffffffffffffffffffffffffff167f6ada868dd3058cf77a48a74489fd7963688e5464b2b0fa957ace976243270e9260405160405180910390a38093505050509392505050565b610611610b01565b61061a5f610b88565b565b5f5f61062986868661033c565b90508373ffffffffffffffffffffffffffffffffffffffff16637737221382856040518363ffffffff1660e01b815260040161066692919061137a565b5f604051808303815f87803b15801561067d575f5ffd5b505af115801561068f573d5f5f3e3d5ffd5b5050505080915050949350505050565b7f000000000000000000000000000000000000000000000000000000000000000081565b60025f9054906101000a900473ffffffffffffffffffffffffffffffffffffffff1681565b5f5f5f9054906101000a900473ffffffffffffffffffffffffffffffffffffffff16905090565b5f7f91d1777781884d03a6757a803996e38de2a42967fb37eeaca72729271025a9e25f1b61073c83610a97565b60405160200161074d929190611262565b604051602081830303815290604052805190602001209050919050565b5f610798333360025f9054906101000a900473ffffffffffffffffffffffffffffffffffffffff168561061c565b9050919050565b6107a7610b01565b5f73ffffffffffffffffffffffffffffffffffffffff168173ffffffffffffffffffffffffffffffffffffffff1603610815576040517f08c379a000000000000000000000000000000000000000000000000000000000815260040161080c90611418565b60405180910390fd5b8060025f6101000a81548173ffffffffffffffffffffffffffffffffffffffff021916908373ffffffffffffffffffffffffffffffffffffffff1602179055508073ffffffffffffffffffffffffffffffffffffffff167feae17a84d9eb83d8c8eb317f9e7d64857bc363fa51674d996c023f4340c577cf60405160405180910390a250565b6001602052805f5260405f205f915054906101000a900460ff1681565b6108c0610b01565b8060015f8473ffffffffffffffffffffffffffffffffffffffff1673ffffffffffffffffffffffffffffffffffffffff1681526020019081526020015f205f6101000a81548160ff0219169083151502179055508173ffffffffffffffffffffffffffffffffffffffff167f4c97694570a07277810af7e5669ffd5f6a2d6b74b6e9a274b8b870fd5114cf878260405161095a9190611097565b60405180910390a25050565b61096e610b01565b5f73ffffffffffffffffffffffffffffffffffffffff168173ffffffffffffffffffffffffffffffffffffffff16036109de575f6040517f1e4fbdf70000000000000000000000000000000000000000000000000000000081526004016109d5919061101d565b60405180910390fd5b6109e781610b88565b50565b5f8173ffffffffffffffffffffffffffffffffffffffff16638da5cb5b6040518163ffffffff1660e01b8152600401602060405180830381865afa925050508015610a5357506040513d601f19601f82011682018060405250810190610a50919061144a565b60015b610a5f575f9050610a92565b3373ffffffffffffffffffffffffffffffffffffffff168173ffffffffffffffffffffffffffffffffffffffff16149150505b919050565b5f5f7f3031323334353637383961626364656600000000000000000000000000000000905060285b5f811115610af45760018103905081600f85161a815360108404935060018103905081600f85161a8153601084049350610abf565b5060285f20915050919050565b610b09610c49565b73ffffffffffffffffffffffffffffffffffffffff16610b276106e8565b73ffffffffffffffffffffffffffffffffffffffff1614610b8657610b4a610c49565b6040517f118cdaa7000000000000000000000000000000000000000000000000000000008152600401610b7d919061101d565b60405180910390fd5b565b5f5f5f9054906101000a900473ffffffffffffffffffffffffffffffffffffffff169050815f5f6101000a81548173ffffffffffffffffffffffffffffffffffffffff021916908373ffffffffffffffffffffffffffffffffffffffff1602179055508173ffffffffffffffffffffffffffffffffffffffff168173ffffffffffffffffffffffffffffffffffffffff167f8be0079c531659141344cd1fd0a4f28419497f9722a3daafe3b4186f6b6457e060405160405180910390a35050565b5f33905090565b5f604051905090565b5f5ffd5b5f5ffd5b5f73ffffffffffffffffffffffffffffffffffffffff82169050919050565b5f610c8a82610c61565b9050919050565b610c9a81610c80565b8114610ca4575f5ffd5b50565b5f81359050610cb581610c91565b92915050565b5f5f60408385031215610cd157610cd0610c59565b5b5f610cde85828601610ca7565b9250506020610cef85828601610ca7565b9150509250929050565b5f819050919050565b610d0b81610cf9565b82525050565b5f602082019050610d245f830184610d02565b92915050565b5f60208284031215610d3f57610d3e610c59565b5b5f610d4c84828501610ca7565b91505092915050565b5f5f5f60608486031215610d6c57610d6b610c59565b5b5f610d7986828701610ca7565b9350506020610d8a86828701610ca7565b9250506040610d9b86828701610ca7565b9150509250925092565b5f5ffd5b5f5ffd5b5f601f19601f8301169050919050565b7f4e487b71000000000000000000000000000000000000000000000000000000005f52604160045260245ffd5b610df382610dad565b810181811067ffffffffffffffff82111715610e1257610e11610dbd565b5b80604052505050565b5f610e24610c50565b9050610e308282610dea565b919050565b5f67ffffffffffffffff821115610e4f57610e4e610dbd565b5b610e5882610dad565b9050602081019050919050565b828183375f83830152505050565b5f610e85610e8084610e35565b610e1b565b905082815260208101848484011115610ea157610ea0610da9565b5b610eac848285610e65565b509392505050565b5f82601f830112610ec857610ec7610da5565b5b8135610ed8848260208601610e73565b91505092915050565b5f5f5f5f60808587031215610ef957610ef8610c59565b5b5f610f0687828801610ca7565b9450506020610f1787828801610ca7565b9350506040610f2887828801610ca7565b925050606085013567ffffffffffffffff811115610f4957610f48610c5d565b5b610f5587828801610eb4565b91505092959194509250565b5f819050919050565b5f610f84610f7f610f7a84610c61565b610f61565b610c61565b9050919050565b5f610f9582610f6a565b9050919050565b5f610fa682610f8b565b9050919050565b610fb681610f9c565b82525050565b5f602082019050610fcf5f830184610fad565b92915050565b5f610fdf82610f8b565b9050919050565b610fef81610fd5565b82525050565b5f6020820190506110085f830184610fe6565b92915050565b61101781610c80565b82525050565b5f6020820190506110305f83018461100e565b92915050565b5f6020828403121561104b5761104a610c59565b5b5f82013567ffffffffffffffff81111561106857611067610c5d565b5b61107484828501610eb4565b91505092915050565b5f8115159050919050565b6110918161107d565b82525050565b5f6020820190506110aa5f830184611088565b92915050565b6110b98161107d565b81146110c3575f5ffd5b50565b5f813590506110d4816110b0565b92915050565b5f5f604083850312156110f0576110ef610c59565b5b5f6110fd85828601610ca7565b925050602061110e858286016110c6565b9150509250929050565b5f60408201905061112b5f83018561100e565b611138602083018461100e565b9392505050565b5f8151905061114d816110b0565b92915050565b5f6020828403121561116857611167610c59565b5b5f6111758482850161113f565b91505092915050565b5f82825260208201905092915050565b7f526576657273655265676973747261723a2043616c6c6572206973206e6f74205f8201527f6120636f6e74726f6c6c6572206f7220617574686f726973656420627920616460208201527f6472657373206f7220746865206164647265737320697473656c660000000000604082015250565b5f61120e605b8361117e565b91506112198261118e565b606082019050919050565b5f6020820190508181035f83015261123b81611202565b9050919050565b5f819050919050565b61125c61125782610cf9565b611242565b82525050565b5f61126d828561124b565b60208201915061127d828461124b565b6020820191508190509392505050565b5f819050919050565b5f67ffffffffffffffff82169050919050565b5f6112c36112be6112b98461128d565b610f61565b611296565b9050919050565b6112d3816112a9565b82525050565b5f60a0820190506112ec5f830188610d02565b6112f96020830187610d02565b611306604083018661100e565b611313606083018561100e565b61132060808301846112ca565b9695505050505050565b5f81519050919050565b8281835e5f83830152505050565b5f61134c8261132a565b611356818561117e565b9350611366818560208601611334565b61136f81610dad565b840191505092915050565b5f60408201905061138d5f830185610d02565b818103602083015261139f8184611342565b90509392505050565b7f526576657273655265676973747261723a205265736f6c7665722061646472655f8201527f7373206d757374206e6f74206265203000000000000000000000000000000000602082015250565b5f61140260308361117e565b915061140d826113a8565b604082019050919050565b5f6020820190508181035f83015261142f816113f6565b9050919050565b5f8151905061144481610c91565b92915050565b5f6020828403121561145f5761145e610c59565b5b5f61146c84828501611436565b9150509291505056fea26469706673582212208aa41bf4806f630426ece60959db1c9bfe80d6fe18a8f96ea39e4f99f0f24d6c64736f6c634300081e0033","linkReferences":{}},"methodIdentifiers":{"claim(address)":"1e83409a","claimForAddr(address,address,address)":"65669631","claimWithResolver(address,address)":"0f5a5466","controllers(address)":"da8c229e","defaultResolver()":"828eab0e","node(address)":"bffbe61c","owner()":"8da5cb5b","registry()":"7b103999","renounceOwnership()":"715018a6","setController(address,bool)":"e0dba60f","setDefaultResolver(address)":"c66485b2","setName(string)":"c47f0027","setNameForAddr(address,address,address,string)":"7a806d6b","transferOwnership(address)":"f2fde38b"},"id":47}