{"abi":[{"type":"constructor","inputs":[{"name":"lns_","type":"address","internalType":"contract LNS"},{"name":"registrarController_","type":"address","internalType":"address"},{"name":"reverseRegistrar_","type":"address","internalType":"address"},{"name":"owner_","type":"address","internalType":"address"}],"stateMutability":"nonpayable"},{"type":"function","name":"ABI","inputs":[{"name":"node","type":"bytes32","internalType":"bytes32"},{"name":"contentTypes","type":"uint256","internalType":"uint256"}],"outputs":[{"name":"","type":"uint256","internalType":"uint256"},{"name":"","type":"bytes","internalType":"bytes"}],"stateMutability":"view"},{"type":"function","name":"addr","inputs":[{"name":"node","type":"bytes32","internalType":"bytes32"}],"outputs":[{"name":"","type":"address","internalType":"address payable"}],"stateMutability":"view"},{"type":"function","name":"addr","inputs":[{"name":"node","type":"bytes32","internalType":"bytes32"},{"name":"coinType","type":"uint256","internalType":"uint256"}],"outputs":[{"name":"","type":"bytes","internalType":"bytes"}],"stateMutability":"view"},{"type":"function","name":"approve","inputs":[{"name":"node","type":"bytes32","internalType":"bytes32"},{"name":"delegate","type":"address","internalType":"address"},{"name":"approved","type":"bool","internalType":"bool"}],"outputs":[],"stateMutability":"nonpayable"},{"type":"function","name":"clearRecords","inputs":[{"name":"node","type":"bytes32","internalType":"bytes32"}],"outputs":[],"stateMutability":"nonpayable"},{"type":"function","name":"contenthash","inputs":[{"name":"node","type":"bytes32","internalType":"bytes32"}],"outputs":[{"name":"","type":"bytes","internalType":"bytes"}],"stateMutability":"view"},{"type":"function","name":"interfaceImplementer","inputs":[{"name":"node","type":"bytes32","internalType":"bytes32"},{"name":"interfaceID","type":"bytes4","internalType":"bytes4"}],"outputs":[{"name":"","type":"address","internalType":"address"}],"stateMutability":"view"},{"type":"function","name":"isApprovedFor","inputs":[{"name":"owner","type":"address","internalType":"address"},{"name":"node","type":"bytes32","internalType":"bytes32"},{"name":"delegate","type":"address","internalType":"address"}],"outputs":[{"name":"","type":"bool","internalType":"bool"}],"stateMutability":"view"},{"type":"function","name":"isApprovedForAll","inputs":[{"name":"account","type":"address","internalType":"address"},{"name":"operator","type":"address","internalType":"address"}],"outputs":[{"name":"","type":"bool","internalType":"bool"}],"stateMutability":"view"},{"type":"function","name":"lns","inputs":[],"outputs":[{"name":"","type":"address","internalType":"contract LNS"}],"stateMutability":"view"},{"type":"function","name":"multicall","inputs":[{"name":"data","type":"bytes[]","internalType":"bytes[]"}],"outputs":[{"name":"results","type":"bytes[]","internalType":"bytes[]"}],"stateMutability":"nonpayable"},{"type":"function","name":"multicallWithNodeCheck","inputs":[{"name":"nodehash","type":"bytes32","internalType":"bytes32"},{"name":"data","type":"bytes[]","internalType":"bytes[]"}],"outputs":[{"name":"results","type":"bytes[]","internalType":"bytes[]"}],"stateMutability":"nonpayable"},{"type":"function","name":"name","inputs":[{"name":"node","type":"bytes32","internalType":"bytes32"}],"outputs":[{"name":"","type":"string","internalType":"string"}],"stateMutability":"view"},{"type":"function","name":"owner","inputs":[],"outputs":[{"name":"","type":"address","internalType":"address"}],"stateMutability":"view"},{"type":"function","name":"pubkey","inputs":[{"name":"node","type":"bytes32","internalType":"bytes32"}],"outputs":[{"name":"x","type":"bytes32","internalType":"bytes32"},{"name":"y","type":"bytes32","internalType":"bytes32"}],"stateMutability":"view"},{"type":"function","name":"recordVersions","inputs":[{"name":"","type":"bytes32","internalType":"bytes32"}],"outputs":[{"name":"","type":"uint64","internalType":"uint64"}],"stateMutability":"view"},{"type":"function","name":"registrarController","inputs":[],"outputs":[{"name":"","type":"address","internalType":"address"}],"stateMutability":"view"},{"type":"function","name":"renounceOwnership","inputs":[],"outputs":[],"stateMutability":"nonpayable"},{"type":"function","name":"resolve","inputs":[{"name":"","type":"bytes","internalType":"bytes"},{"name":"data","type":"bytes","internalType":"bytes"}],"outputs":[{"name":"","type":"bytes","internalType":"bytes"}],"stateMutability":"view"},{"type":"function","name":"reverseRegistrar","inputs":[],"outputs":[{"name":"","type":"address","internalType":"address"}],"stateMutability":"view"},{"type":"function","name":"setABI","inputs":[{"name":"node","type":"bytes32","internalType":"bytes32"},{"name":"contentType","type":"uint256","internalType":"uint256"},{"name":"data","type":"bytes","internalType":"bytes"}],"outputs":[],"stateMutability":"nonpayable"},{"type":"function","name":"setAddr","inputs":[{"name":"node","type":"bytes32","internalType":"bytes32"},{"name":"coinType","type":"uint256","internalType":"uint256"},{"name":"a","type":"bytes","internalType":"bytes"}],"outputs":[],"stateMutability":"nonpayable"},{"type":"function","name":"setAddr","inputs":[{"name":"node","type":"bytes32","internalType":"bytes32"},{"name":"a","type":"address","internalType":"address"}],"outputs":[],"stateMutability":"nonpayable"},{"type":"function","name":"setApprovalForAll","inputs":[{"name":"operator","type":"address","internalType":"address"},{"name":"approved","type":"bool","internalType":"bool"}],"outputs":[],"stateMutability":"nonpayable"},{"type":"function","name":"setContenthash","inputs":[{"name":"node","type":"bytes32","internalType":"bytes32"},{"name":"hash","type":"bytes","internalType":"bytes"}],"outputs":[],"stateMutability":"nonpayable"},{"type":"function","name":"setInterface","inputs":[{"name":"node","type":"bytes32","internalType":"bytes32"},{"name":"interfaceID","type":"bytes4","internalType":"bytes4"},{"name":"implementer","type":"address","internalType":"address"}],"outputs":[],"stateMutability":"nonpayable"},{"type":"function","name":"setName","inputs":[{"name":"node","type":"bytes32","internalType":"bytes32"},{"name":"newName","type":"string","internalType":"string"}],"outputs":[],"stateMutability":"nonpayable"},{"type":"function","name":"setPubkey","inputs":[{"name":"node","type":"bytes32","internalType":"bytes32"},{"name":"x","type":"bytes32","internalType":"bytes32"},{"name":"y","type":"bytes32","internalType":"bytes32"}],"outputs":[],"stateMutability":"nonpayable"},{"type":"function","name":"setRegistrarController","inputs":[{"name":"registrarController_","type":"address","internalType":"address"}],"outputs":[],"stateMutability":"nonpayable"},{"type":"function","name":"setReverseRegistrar","inputs":[{"name":"reverseRegistrar_","type":"address","internalType":"address"}],"outputs":[],"stateMutability":"nonpayable"},{"type":"function","name":"setText","inputs":[{"name":"node","type":"bytes32","internalType":"bytes32"},{"name":"key","type":"string","internalType":"string"},{"name":"value","type":"string","internalType":"string"}],"outputs":[],"stateMutability":"nonpayable"},{"type":"function","name":"supportsInterface","inputs":[{"name":"interfaceID","type":"bytes4","internalType":"bytes4"}],"outputs":[{"name":"","type":"bool","internalType":"bool"}],"stateMutability":"view"},{"type":"function","name":"text","inputs":[{"name":"node","type":"bytes32","internalType":"bytes32"},{"name":"key","type":"string","internalType":"string"}],"outputs":[{"name":"","type":"string","internalType":"string"}],"stateMutability":"view"},{"type":"function","name":"transferOwnership","inputs":[{"name":"newOwner","type":"address","internalType":"address"}],"outputs":[],"stateMutability":"nonpayable"},{"type":"event","name":"ABIChanged","inputs":[{"name":"node","type":"bytes32","indexed":true,"internalType":"bytes32"},{"name":"contentType","type":"uint256","indexed":true,"internalType":"uint256"}],"anonymous":false},{"type":"event","name":"AddrChanged","inputs":[{"name":"node","type":"bytes32","indexed":true,"internalType":"bytes32"},{"name":"a","type":"address","indexed":false,"internalType":"address"}],"anonymous":false},{"type":"event","name":"AddressChanged","inputs":[{"name":"node","type":"bytes32","indexed":true,"internalType":"bytes32"},{"name":"coinType","type":"uint256","indexed":false,"internalType":"uint256"},{"name":"newAddress","type":"bytes","indexed":false,"internalType":"bytes"}],"anonymous":false},{"type":"event","name":"ApprovalForAll","inputs":[{"name":"owner","type":"address","indexed":true,"internalType":"address"},{"name":"operator","type":"address","indexed":true,"internalType":"address"},{"name":"approved","type":"bool","indexed":false,"internalType":"bool"}],"anonymous":false},{"type":"event","name":"Approved","inputs":[{"name":"owner","type":"address","indexed":false,"internalType":"address"},{"name":"node","type":"bytes32","indexed":true,"internalType":"bytes32"},{"name":"delegate","type":"address","indexed":true,"internalType":"address"},{"name":"approved","type":"bool","indexed":true,"internalType":"bool"}],"anonymous":false},{"type":"event","name":"ContenthashChanged","inputs":[{"name":"node","type":"bytes32","indexed":true,"internalType":"bytes32"},{"name":"hash","type":"bytes","indexed":false,"internalType":"bytes"}],"anonymous":false},{"type":"event","name":"InterfaceChanged","inputs":[{"name":"node","type":"bytes32","indexed":true,"internalType":"bytes32"},{"name":"interfaceID","type":"bytes4","indexed":true,"internalType":"bytes4"},{"name":"implementer","type":"address","indexed":false,"internalType":"address"}],"anonymous":false},{"type":"event","name":"NameChanged","inputs":[{"name":"node","type":"bytes32","indexed":true,"internalType":"bytes32"},{"name":"name","type":"string","indexed":false,"internalType":"string"}],"anonymous":false},{"type":"event","name":"OwnershipTransferred","inputs":[{"name":"previousOwner","type":"address","indexed":true,"internalType":"address"},{"name":"newOwner","type":"address","indexed":true,"internalType":"address"}],"anonymous":false},{"type":"event","name":"PubkeyChanged","inputs":[{"name":"node","type":"bytes32","indexed":true,"internalType":"bytes32"},{"name":"x","type":"bytes32","indexed":false,"internalType":"bytes32"},{"name":"y","type":"bytes32","indexed":false,"internalType":"bytes32"}],"anonymous":false},{"type":"event","name":"RegistrarControllerUpdated","inputs":[{"name":"newRegistrarController","type":"address","indexed":true,"internalType":"address"}],"anonymous":false},{"type":"event","name":"ReverseRegistrarUpdated","inputs":[{"name":"newReverseRegistrar","type":"address","indexed":true,"internalType":"address"}],"anonymous":false},{"type":"event","name":"TextChanged","inputs":[{"name":"node","type":"bytes32","indexed":true,"internalType":"bytes32"},{"name":"indexedKey","type":"string","indexed":true,"internalType":"string"},{"name":"key","type":"string","indexed":false,"internalType":"string"},{"name":"value","type":"string","indexed":false,"internalType":"string"}],"anonymous":false},{"type":"event","name":"VersionChanged","inputs":[{"name":"node","type":"bytes32","indexed":true,"internalType":"bytes32"},{"name":"newVersion","type":"uint64","indexed":false,"internalType":"uint64"}],"anonymous":false},{"type":"error","name":"CantSetSelf","inputs":[]},{"type":"error","name":"InvalidRegistrarController","inputs":[]},{"type":"error","name":"InvalidReverseRegistrar","inputs":[]},{"type":"error","name":"NotOwner","inputs":[]},{"type":"error","name":"OwnableInvalidOwner","inputs":[{"name":"owner","type":"address","internalType":"address"}]},{"type":"error","name":"OwnableUnauthorizedAccount","inputs":[{"name":"account","type":"address","internalType":"address"}]}],"bytecode":{"object":"0x60a060405234801561000f575f5ffd5b50604051614bd3380380614bd38339818101604052810190610031919061040f565b805f73ffffffffffffffffffffffffffffffffffffffff168173ffffffffffffffffffffffffffffffffffffffff16036100a2575f6040517f1e4fbdf70000000000000000000000000000000000000000000000000000000081526004016100999190610482565b60405180910390fd5b6100b1816102b360201b60201c565b508373ffffffffffffffffffffffffffffffffffffffff1660808173ffffffffffffffffffffffffffffffffffffffff16815250505f73ffffffffffffffffffffffffffffffffffffffff168373ffffffffffffffffffffffffffffffffffffffff160361014b576040517f1a73c2aa00000000000000000000000000000000000000000000000000000000815260040160405180910390fd5b5f73ffffffffffffffffffffffffffffffffffffffff168273ffffffffffffffffffffffffffffffffffffffff16036101b0576040517f650a718100000000000000000000000000000000000000000000000000000000815260040160405180910390fd5b8260095f6101000a81548173ffffffffffffffffffffffffffffffffffffffff021916908373ffffffffffffffffffffffffffffffffffffffff16021790555081600a5f6101000a81548173ffffffffffffffffffffffffffffffffffffffff021916908373ffffffffffffffffffffffffffffffffffffffff1602179055508173ffffffffffffffffffffffffffffffffffffffff16631e83409a826040518263ffffffff1660e01b81526004016102699190610482565b6020604051808303815f875af1158015610285573d5f5f3e3d5ffd5b505050506040513d601f19601f820116820180604052508101906102a991906104ce565b50505050506104f9565b5f60085f9054906101000a900473ffffffffffffffffffffffffffffffffffffffff1690508160085f6101000a81548173ffffffffffffffffffffffffffffffffffffffff021916908373ffffffffffffffffffffffffffffffffffffffff1602179055508173ffffffffffffffffffffffffffffffffffffffff168173ffffffffffffffffffffffffffffffffffffffff167f8be0079c531659141344cd1fd0a4f28419497f9722a3daafe3b4186f6b6457e060405160405180910390a35050565b5f5ffd5b5f73ffffffffffffffffffffffffffffffffffffffff82169050919050565b5f6103a38261037a565b9050919050565b5f6103b482610399565b9050919050565b6103c4816103aa565b81146103ce575f5ffd5b50565b5f815190506103df816103bb565b92915050565b6103ee81610399565b81146103f8575f5ffd5b50565b5f81519050610409816103e5565b92915050565b5f5f5f5f6080858703121561042757610426610376565b5b5f610434878288016103d1565b9450506020610445878288016103fb565b9350506040610456878288016103fb565b9250506060610467878288016103fb565b91505092959194509250565b61047c81610399565b82525050565b5f6020820190506104955f830184610473565b92915050565b5f819050919050565b6104ad8161049b565b81146104b7575f5ffd5b50565b5f815190506104c8816104a4565b92915050565b5f602082840312156104e3576104e2610376565b5b5f6104f0848285016104ba565b91505092915050565b6080516146b461051f5f395f8181611ac301528181611b4c01526124fd01526146b45ff3fe608060405234801561000f575f5ffd5b5060043610610204575f3560e01c80638da5cb5b11610118578063c8690233116100ab578063e59d895d1161007a578063e59d895d1461062e578063e985e9c51461064a578063f1cb7e061461067a578063f2fde38b146106aa578063f9cd32c5146106c657610204565b8063c869023314610581578063d5fa2b00146105b2578063d700ff33146105ce578063e32954eb146105fe57610204565b8063a4b91a01116100e7578063a4b91a01146104d5578063a9784b3e146104f1578063ac9650d814610521578063bc1c58d11461055157610204565b80638da5cb5b1461044d5780639061b9231461046b578063a22cb4651461049b578063a40dd877146104b757610204565b80633b3b57de1161019b578063691f34311161016a578063691f3431146103bd578063715018a6146103ed57806377372213146103f757806380869853146104135780638b95dd711461043157610204565b80633b3b57de14610325578063557499ba1461035557806359d1d43c14610371578063623195b0146103a157610204565b806329448e1d116101d757806329448e1d146102b557806329cd62ea146102d1578063304e6ade146102ed5780633603d7581461030957610204565b806301ffc9a71461020857806310f13a8c14610238578063124a319c146102545780632203ab5614610284575b5f5ffd5b610222600480360381019061021d9190612ed2565b6106e4565b60405161022f9190612f17565b60405180910390f35b610252600480360381019061024d9190612fc4565b61075d565b005b61026e60048036038101906102699190613055565b610889565b60405161027b91906130d2565b60405180910390f35b61029e6004803603810190610299919061311e565b610cca565b6040516102ac9291906131db565b60405180910390f35b6102cf60048036038101906102ca9190613233565b610e36565b005b6102eb60048036038101906102e6919061325e565b610f29565b005b61030760048036038101906103029190613303565b611033565b005b610323600480360381019061031e9190613360565b611123565b005b61033f600480360381019061033a9190613360565b611225565b60405161034c91906133ab565b60405180910390f35b61036f600480360381019061036a9190613233565b611257565b005b61038b600480360381019061038691906133c4565b61134a565b6040516103989190613473565b60405180910390f35b6103bb60048036038101906103b69190613493565b611451565b005b6103d760048036038101906103d29190613360565b61155e565b6040516103e49190613473565b60405180910390f35b6103f5611645565b005b610411600480360381019061040c91906133c4565b611658565b005b61041b611748565b60405161042891906130d2565b60405180910390f35b61044b6004803603810190610446919061362c565b61176d565b005b6104556118b3565b60405161046291906130d2565b60405180910390f35b61048560048036038101906104809190613698565b6118db565b604051610492919061370e565b60405180910390f35b6104b560048036038101906104b09190613758565b611964565b005b6104bf611ac1565b6040516104cc91906137f1565b60405180910390f35b6104ef60048036038101906104ea919061380a565b611ae5565b005b61050b6004803603810190610506919061385a565b611d3b565b6040516105189190612f17565b60405180910390f35b61053b600480360381019061053691906138ff565b611dd9565b6040516105489190613a4d565b60405180910390f35b61056b60048036038101906105669190613360565b611df0565b604051610578919061370e565b60405180910390f35b61059b60048036038101906105969190613360565b611ed7565b6040516105a9929190613a7c565b60405180910390f35b6105cc60048036038101906105c79190613aa3565b611f79565b005b6105e860048036038101906105e39190613360565b611fdb565b6040516105f59190613b03565b60405180910390f35b61061860048036038101906106139190613b1c565b611ffe565b6040516106259190613a4d565b60405180910390f35b61064860048036038101906106439190613b79565b612014565b005b610664600480360381019061065f9190613bc9565b61219d565b6040516106719190612f17565b60405180910390f35b610694600480360381019061068f919061311e565b61222b565b6040516106a1919061370e565b60405180910390f35b6106c460048036038101906106bf9190613233565b612322565b005b6106ce6123a6565b6040516106db91906130d2565b60405180910390f35b5f7f9061b923000000000000000000000000000000000000000000000000000000007bffffffffffffffffffffffffffffffffffffffffffffffffffffffff1916827bffffffffffffffffffffffffffffffffffffffffffffffffffffffff191614806107565750610755826123cb565b5b9050919050565b8461076781612444565b6107a6576040517f08c379a000000000000000000000000000000000000000000000000000000000815260040161079d90613c51565b60405180910390fd5b828260075f5f5f8b81526020019081526020015f205f9054906101000a900467ffffffffffffffff1667ffffffffffffffff1667ffffffffffffffff1681526020019081526020015f205f8981526020019081526020015f20878760405161080f929190613c9d565b9081526020016040518091039020918261082a929190613eb3565b50848460405161083b929190613c9d565b6040518091039020867f448bc014f1536726cf8d54ff3d6481ed3cbc683c2591ca204274009afa09b1a1878787876040516108799493929190613fac565b60405180910390a3505050505050565b5f5f60045f5f5f8781526020019081526020015f205f9054906101000a900467ffffffffffffffff1667ffffffffffffffff1667ffffffffffffffff1681526020019081526020015f205f8581526020019081526020015f205f847bffffffffffffffffffffffffffffffffffffffffffffffffffffffff19167bffffffffffffffffffffffffffffffffffffffffffffffffffffffff191681526020019081526020015f205f9054906101000a900473ffffffffffffffffffffffffffffffffffffffff1690505f73ffffffffffffffffffffffffffffffffffffffff168173ffffffffffffffffffffffffffffffffffffffff161461098d5780915050610cc4565b5f61099785611225565b90505f73ffffffffffffffffffffffffffffffffffffffff168173ffffffffffffffffffffffffffffffffffffffff16036109d6575f92505050610cc4565b5f5f8273ffffffffffffffffffffffffffffffffffffffff167f01ffc9a700000000000000000000000000000000000000000000000000000000604051602401610a209190613ff4565b6040516020818303038152906040527f01ffc9a7000000000000000000000000000000000000000000000000000000007bffffffffffffffffffffffffffffffffffffffffffffffffffffffff19166020820180517bffffffffffffffffffffffffffffffffffffffffffffffffffffffff8381831617835250505050604051610aaa9190614047565b5f60405180830381855afa9150503d805f8114610ae2576040519150601f19603f3d011682016040523d82523d5f602084013e610ae7565b606091505b5091509150811580610afa575060208151105b80610b4757505f60f81b81601f81518110610b1857610b1761405d565b5b602001015160f81c60f81b7effffffffffffffffffffffffffffffffffffffffffffffffffffffffffffff1916145b15610b58575f945050505050610cc4565b8273ffffffffffffffffffffffffffffffffffffffff1686604051602401610b809190613ff4565b6040516020818303038152906040527f01ffc9a7000000000000000000000000000000000000000000000000000000007bffffffffffffffffffffffffffffffffffffffffffffffffffffffff19166020820180517bffffffffffffffffffffffffffffffffffffffffffffffffffffffff8381831617835250505050604051610c0a9190614047565b5f60405180830381855afa9150503d805f8114610c42576040519150601f19603f3d011682016040523d82523d5f602084013e610c47565b606091505b508092508193505050811580610c5e575060208151105b80610cab57505f60f81b81601f81518110610c7c57610c7b61405d565b5b602001015160f81c60f81b7effffffffffffffffffffffffffffffffffffffffffffffffffffffffffffff1916145b15610cbc575f945050505050610cc4565b829450505050505b92915050565b5f60605f60015f5f5f8881526020019081526020015f205f9054906101000a900467ffffffffffffffff1667ffffffffffffffff1667ffffffffffffffff1681526020019081526020015f205f8681526020019081526020015f2090505f600190505b848111610e18575f85821614158015610d6157505f825f8381526020019081526020015f208054610d5d90613cec565b9050115b15610e0c5780825f8381526020019081526020015f20808054610d8390613cec565b80601f0160208091040260200160405190810160405280929190818152602001828054610daf90613cec565b8015610dfa5780601f10610dd157610100808354040283529160200191610dfa565b820191905f5260205f20905b815481529060010190602001808311610ddd57829003601f168201915b50505050509050935093505050610e2f565b600181901b9050610d2d565b505f60405180602001604052805f81525092509250505b9250929050565b610e3e6125f0565b5f73ffffffffffffffffffffffffffffffffffffffff168173ffffffffffffffffffffffffffffffffffffffff1603610ea3576040517f1a73c2aa00000000000000000000000000000000000000000000000000000000815260040160405180910390fd5b8060095f6101000a81548173ffffffffffffffffffffffffffffffffffffffff021916908373ffffffffffffffffffffffffffffffffffffffff1602179055508073ffffffffffffffffffffffffffffffffffffffff167f1877ffeba0b0229d8385c284d9b459f592be2d0f4acc2696fccfb0ae4b73b6b960405160405180910390a250565b82610f3381612444565b610f72576040517f08c379a0000000000000000000000000000000000000000000000000000000008152600401610f6990613c51565b60405180910390fd5b60405180604001604052808481526020018381525060065f5f5f8881526020019081526020015f205f9054906101000a900467ffffffffffffffff1667ffffffffffffffff1667ffffffffffffffff1681526020019081526020015f205f8681526020019081526020015f205f820151815f015560208201518160010155905050837f1d6f5e03d3f63eb58751986629a5439baee5079ff04f345becb66e23eb154e468484604051611025929190613a7c565b60405180910390a250505050565b8261103d81612444565b61107c576040517f08c379a000000000000000000000000000000000000000000000000000000000815260040161107390613c51565b60405180910390fd5b828260035f5f5f8981526020019081526020015f205f9054906101000a900467ffffffffffffffff1667ffffffffffffffff1667ffffffffffffffff1681526020019081526020015f205f8781526020019081526020015f2091826110e29291906140ec565b50837fe379c1624ed7e714cc0937528a32359d69d5281337765313dba4e081b72d757884846040516111159291906141e5565b60405180910390a250505050565b8061112d81612444565b61116c576040517f08c379a000000000000000000000000000000000000000000000000000000000815260040161116390613c51565b60405180910390fd5b5f5f8381526020019081526020015f205f81819054906101000a900467ffffffffffffffff168092919061119f90614234565b91906101000a81548167ffffffffffffffff021916908367ffffffffffffffff16021790555050817fc6621ccb8f3f5a04bb6502154b2caf6adf5983fe76dfef1cfc9c42e3579db4445f5f8581526020019081526020015f205f9054906101000a900467ffffffffffffffff166040516112199190613b03565b60405180910390a25050565b5f5f61123283603c61222b565b90505f815103611245575f915050611252565b61124e81612677565b9150505b919050565b61125f6125f0565b5f73ffffffffffffffffffffffffffffffffffffffff168173ffffffffffffffffffffffffffffffffffffffff16036112c4576040517f650a718100000000000000000000000000000000000000000000000000000000815260040160405180910390fd5b80600a5f6101000a81548173ffffffffffffffffffffffffffffffffffffffff021916908373ffffffffffffffffffffffffffffffffffffffff1602179055508073ffffffffffffffffffffffffffffffffffffffff167fd192c0b229b00473ccb6ccfebf6642805bca1dcdf2d9fb4fd102c7dc7ea4ce2360405160405180910390a250565b606060075f5f5f8781526020019081526020015f205f9054906101000a900467ffffffffffffffff1667ffffffffffffffff1667ffffffffffffffff1681526020019081526020015f205f8581526020019081526020015f2083836040516113b3929190613c9d565b908152602001604051809103902080546113cc90613cec565b80601f01602080910402602001604051908101604052809291908181526020018280546113f890613cec565b80156114435780601f1061141a57610100808354040283529160200191611443565b820191905f5260205f20905b81548152906001019060200180831161142657829003601f168201915b505050505090509392505050565b8361145b81612444565b61149a576040517f08c379a000000000000000000000000000000000000000000000000000000000815260040161149190613c51565b60405180910390fd5b5f846001866114a99190614263565b16146114b3575f5ffd5b828260015f5f5f8a81526020019081526020015f205f9054906101000a900467ffffffffffffffff1667ffffffffffffffff1667ffffffffffffffff1681526020019081526020015f205f8881526020019081526020015f205f8781526020019081526020015f2091826115289291906140ec565b5083857faa121bbeef5f32f5961a2a28966e769023910fc9479059ee3495d4c1a696efe360405160405180910390a35050505050565b606060055f5f5f8581526020019081526020015f205f9054906101000a900467ffffffffffffffff1667ffffffffffffffff1667ffffffffffffffff1681526020019081526020015f205f8381526020019081526020015f2080546115c290613cec565b80601f01602080910402602001604051908101604052809291908181526020018280546115ee90613cec565b80156116395780601f1061161057610100808354040283529160200191611639565b820191905f5260205f20905b81548152906001019060200180831161161c57829003601f168201915b50505050509050919050565b61164d6125f0565b6116565f612698565b565b8261166281612444565b6116a1576040517f08c379a000000000000000000000000000000000000000000000000000000000815260040161169890613c51565b60405180910390fd5b828260055f5f5f8981526020019081526020015f205f9054906101000a900467ffffffffffffffff1667ffffffffffffffff1667ffffffffffffffff1681526020019081526020015f205f8781526020019081526020015f209182611707929190613eb3565b50837fb7d29e911041e8d9b843369e890bcb72c9388692ba48b65ac54e7214c4c348f7848460405161173a929190614296565b60405180910390a250505050565b600a5f9054906101000a900473ffffffffffffffffffffffffffffffffffffffff1681565b8261177781612444565b6117b6576040517f08c379a00000000000000000000000000000000000000000000000000000000081526004016117ad90613c51565b60405180910390fd5b837f65412581168e88a1e60c6459d7f44ae83ad0832e670826c05a4e2476b57af75284846040516117e89291906131db565b60405180910390a2603c830361183957837f52d7d861f09ab3d26239d492e8968629f95e9e318cf0b73bfddc441522a15fd261182384612677565b60405161183091906142d8565b60405180910390a25b8160025f5f5f8881526020019081526020015f205f9054906101000a900467ffffffffffffffff1667ffffffffffffffff1667ffffffffffffffff1681526020019081526020015f205f8681526020019081526020015f205f8581526020019081526020015f2090816118ac91906142f1565b5050505050565b5f60085f9054906101000a900473ffffffffffffffffffffffffffffffffffffffff16905090565b60605f5f3073ffffffffffffffffffffffffffffffffffffffff16846040516119049190614047565b5f60405180830381855afa9150503d805f811461193c576040519150601f19603f3d011682016040523d82523d5f602084013e611941565b606091505b5091509150811561195657809250505061195e565b805160208201fd5b92915050565b8173ffffffffffffffffffffffffffffffffffffffff163373ffffffffffffffffffffffffffffffffffffffff16036119c9576040517f27cd53b300000000000000000000000000000000000000000000000000000000815260040160405180910390fd5b80600b5f3373ffffffffffffffffffffffffffffffffffffffff1673ffffffffffffffffffffffffffffffffffffffff1681526020019081526020015f205f8473ffffffffffffffffffffffffffffffffffffffff1673ffffffffffffffffffffffffffffffffffffffff1681526020019081526020015f205f6101000a81548160ff0219169083151502179055508173ffffffffffffffffffffffffffffffffffffffff163373ffffffffffffffffffffffffffffffffffffffff167f17307eab39ab6107e8899845ad3d59bd9653f200f220920489ca2b5937696c3183604051611ab59190612f17565b60405180910390a35050565b7f000000000000000000000000000000000000000000000000000000000000000081565b8173ffffffffffffffffffffffffffffffffffffffff163373ffffffffffffffffffffffffffffffffffffffff1603611b4a576040517f27cd53b300000000000000000000000000000000000000000000000000000000815260040160405180910390fd5b7f000000000000000000000000000000000000000000000000000000000000000073ffffffffffffffffffffffffffffffffffffffff166302571be3846040518263ffffffff1660e01b8152600401611ba391906143c0565b602060405180830381865afa158015611bbe573d5f5f3e3d5ffd5b505050506040513d601f19601f82011682018060405250810190611be291906143ed565b73ffffffffffffffffffffffffffffffffffffffff163373ffffffffffffffffffffffffffffffffffffffff1614611c46576040517f30cd747100000000000000000000000000000000000000000000000000000000815260040160405180910390fd5b80600c5f3373ffffffffffffffffffffffffffffffffffffffff1673ffffffffffffffffffffffffffffffffffffffff1681526020019081526020015f205f8581526020019081526020015f205f8473ffffffffffffffffffffffffffffffffffffffff1673ffffffffffffffffffffffffffffffffffffffff1681526020019081526020015f205f6101000a81548160ff0219169083151502179055508015158273ffffffffffffffffffffffffffffffffffffffff16847ff0ddb3b04746704017f9aa8bd728fcc2c1d11675041205350018915f5e4750a033604051611d2e91906130d2565b60405180910390a4505050565b5f600c5f8573ffffffffffffffffffffffffffffffffffffffff1673ffffffffffffffffffffffffffffffffffffffff1681526020019081526020015f205f8481526020019081526020015f205f8373ffffffffffffffffffffffffffffffffffffffff1673ffffffffffffffffffffffffffffffffffffffff1681526020019081526020015f205f9054906101000a900460ff1690509392505050565b6060611de85f5f1b848461275b565b905092915050565b606060035f5f5f8581526020019081526020015f205f9054906101000a900467ffffffffffffffff1667ffffffffffffffff1667ffffffffffffffff1681526020019081526020015f205f8381526020019081526020015f208054611e5490613cec565b80601f0160208091040260200160405190810160405280929190818152602001828054611e8090613cec565b8015611ecb5780601f10611ea257610100808354040283529160200191611ecb565b820191905f5260205f20905b815481529060010190602001808311611eae57829003601f168201915b50505050509050919050565b5f5f5f5f5f8581526020019081526020015f205f9054906101000a900467ffffffffffffffff16905060065f8267ffffffffffffffff1667ffffffffffffffff1681526020019081526020015f205f8581526020019081526020015f205f015460065f8367ffffffffffffffff1667ffffffffffffffff1681526020019081526020015f205f8681526020019081526020015f20600101549250925050915091565b81611f8381612444565b611fc2576040517f08c379a0000000000000000000000000000000000000000000000000000000008152600401611fb990613c51565b60405180910390fd5b611fd683603c611fd185612968565b61176d565b505050565b5f602052805f5260405f205f915054906101000a900467ffffffffffffffff1681565b606061200b84848461275b565b90509392505050565b8261201e81612444565b61205d576040517f08c379a000000000000000000000000000000000000000000000000000000000815260040161205490613c51565b60405180910390fd5b8160045f5f5f8881526020019081526020015f205f9054906101000a900467ffffffffffffffff1667ffffffffffffffff1667ffffffffffffffff1681526020019081526020015f205f8681526020019081526020015f205f857bffffffffffffffffffffffffffffffffffffffffffffffffffffffff19167bffffffffffffffffffffffffffffffffffffffffffffffffffffffff191681526020019081526020015f205f6101000a81548173ffffffffffffffffffffffffffffffffffffffff021916908373ffffffffffffffffffffffffffffffffffffffff160217905550827bffffffffffffffffffffffffffffffffffffffffffffffffffffffff1916847f7c69f06bea0bdef565b709e93a147836b0063ba2dd89f02d0b7e8d931e6a6daa8460405161218f91906130d2565b60405180910390a350505050565b5f600b5f8473ffffffffffffffffffffffffffffffffffffffff1673ffffffffffffffffffffffffffffffffffffffff1681526020019081526020015f205f8373ffffffffffffffffffffffffffffffffffffffff1673ffffffffffffffffffffffffffffffffffffffff1681526020019081526020015f205f9054906101000a900460ff16905092915050565b606060025f5f5f8681526020019081526020015f205f9054906101000a900467ffffffffffffffff1667ffffffffffffffff1667ffffffffffffffff1681526020019081526020015f205f8481526020019081526020015f205f8381526020019081526020015f20805461229e90613cec565b80601f01602080910402602001604051908101604052809291908181526020018280546122ca90613cec565b80156123155780601f106122ec57610100808354040283529160200191612315565b820191905f5260205f20905b8154815290600101906020018083116122f857829003601f168201915b5050505050905092915050565b61232a6125f0565b5f73ffffffffffffffffffffffffffffffffffffffff168173ffffffffffffffffffffffffffffffffffffffff160361239a575f6040517f1e4fbdf700000000000000000000000000000000000000000000000000000000815260040161239191906130d2565b60405180910390fd5b6123a381612698565b50565b60095f9054906101000a900473ffffffffffffffffffffffffffffffffffffffff1681565b5f7f59d1d43c000000000000000000000000000000000000000000000000000000007bffffffffffffffffffffffffffffffffffffffffffffffffffffffff1916827bffffffffffffffffffffffffffffffffffffffffffffffffffffffff1916148061243d575061243c826129cc565b5b9050919050565b5f60095f9054906101000a900473ffffffffffffffffffffffffffffffffffffffff1673ffffffffffffffffffffffffffffffffffffffff163373ffffffffffffffffffffffffffffffffffffffff1614806124ec5750600a5f9054906101000a900473ffffffffffffffffffffffffffffffffffffffff1673ffffffffffffffffffffffffffffffffffffffff163373ffffffffffffffffffffffffffffffffffffffff16145b156124fa57600190506125eb565b5f7f000000000000000000000000000000000000000000000000000000000000000073ffffffffffffffffffffffffffffffffffffffff166302571be3846040518263ffffffff1660e01b815260040161255491906143c0565b602060405180830381865afa15801561256f573d5f5f3e3d5ffd5b505050506040513d601f19601f8201168201806040525081019061259391906143ed565b90503373ffffffffffffffffffffffffffffffffffffffff168173ffffffffffffffffffffffffffffffffffffffff1614806125d557506125d4813361219d565b5b806125e757506125e6818433611d3b565b5b9150505b919050565b6125f8612a45565b73ffffffffffffffffffffffffffffffffffffffff166126166118b3565b73ffffffffffffffffffffffffffffffffffffffff161461267557612639612a45565b6040517f118cdaa700000000000000000000000000000000000000000000000000000000815260040161266c91906130d2565b60405180910390fd5b565b5f6014825114612685575f5ffd5b600c6101000a6020830151049050919050565b5f60085f9054906101000a900473ffffffffffffffffffffffffffffffffffffffff1690508160085f6101000a81548173ffffffffffffffffffffffffffffffffffffffff021916908373ffffffffffffffffffffffffffffffffffffffff1602179055508173ffffffffffffffffffffffffffffffffffffffff168173ffffffffffffffffffffffffffffffffffffffff167f8be0079c531659141344cd1fd0a4f28419497f9722a3daafe3b4186f6b6457e060405160405180910390a35050565b60608282905067ffffffffffffffff81111561277a57612779613508565b5b6040519080825280602002602001820160405280156127ad57816020015b60608152602001906001900390816127985790505b5090505f5f90505b83839050811015612960575f5f1b8514612852575f8484838181106127dd576127dc61405d565b5b90506020028101906127ef9190614424565b6004906024926128019392919061448e565b9061280c91906144c8565b9050858114612850576040517f08c379a000000000000000000000000000000000000000000000000000000000815260040161284790614596565b60405180910390fd5b505b5f5f3073ffffffffffffffffffffffffffffffffffffffff1686868581811061287e5761287d61405d565b5b90506020028101906128909190614424565b60405161289e9291906145d8565b5f60405180830381855af49150503d805f81146128d6576040519150601f19603f3d011682016040523d82523d5f602084013e6128db565b606091505b509150915081612932575f815111156128f75780518060208301fd5b6040517f08c379a000000000000000000000000000000000000000000000000000000000815260040161292990614660565b60405180910390fd5b808484815181106129465761294561405d565b5b6020026020010181905250505080806001019150506127b5565b509392505050565b6060601467ffffffffffffffff81111561298557612984613508565b5b6040519080825280601f01601f1916602001820160405280156129b75781602001600182028036833780820191505090505b509050600c6101000a82026020820152919050565b5f7fc8690233000000000000000000000000000000000000000000000000000000007bffffffffffffffffffffffffffffffffffffffffffffffffffffffff1916827bffffffffffffffffffffffffffffffffffffffffffffffffffffffff19161480612a3e5750612a3d82612a4c565b5b9050919050565b5f33905090565b5f7f691f3431000000000000000000000000000000000000000000000000000000007bffffffffffffffffffffffffffffffffffffffffffffffffffffffff1916827bffffffffffffffffffffffffffffffffffffffffffffffffffffffff19161480612abe5750612abd82612ac5565b5b9050919050565b5f7f124a319c000000000000000000000000000000000000000000000000000000007bffffffffffffffffffffffffffffffffffffffffffffffffffffffff1916827bffffffffffffffffffffffffffffffffffffffffffffffffffffffff19161480612b375750612b3682612b3e565b5b9050919050565b5f7fbc1c58d1000000000000000000000000000000000000000000000000000000007bffffffffffffffffffffffffffffffffffffffffffffffffffffffff1916827bffffffffffffffffffffffffffffffffffffffffffffffffffffffff19161480612bb05750612baf82612bb7565b5b9050919050565b5f7f3b3b57de000000000000000000000000000000000000000000000000000000007bffffffffffffffffffffffffffffffffffffffffffffffffffffffff1916827bffffffffffffffffffffffffffffffffffffffffffffffffffffffff19161480612c8157507ff1cb7e06000000000000000000000000000000000000000000000000000000007bffffffffffffffffffffffffffffffffffffffffffffffffffffffff1916827bffffffffffffffffffffffffffffffffffffffffffffffffffffffff1916145b80612c915750612c9082612c98565b5b9050919050565b5f7f2203ab56000000000000000000000000000000000000000000000000000000007bffffffffffffffffffffffffffffffffffffffffffffffffffffffff1916827bffffffffffffffffffffffffffffffffffffffffffffffffffffffff19161480612d0a5750612d0982612d11565b5b9050919050565b5f7fd700ff33000000000000000000000000000000000000000000000000000000007bffffffffffffffffffffffffffffffffffffffffffffffffffffffff1916827bffffffffffffffffffffffffffffffffffffffffffffffffffffffff19161480612d835750612d8282612d8a565b5b9050919050565b5f7f4fbf0433000000000000000000000000000000000000000000000000000000007bffffffffffffffffffffffffffffffffffffffffffffffffffffffff1916827bffffffffffffffffffffffffffffffffffffffffffffffffffffffff19161480612dfc5750612dfb82612e03565b5b9050919050565b5f7f01ffc9a7000000000000000000000000000000000000000000000000000000007bffffffffffffffffffffffffffffffffffffffffffffffffffffffff1916827bffffffffffffffffffffffffffffffffffffffffffffffffffffffff1916149050919050565b5f604051905090565b5f5ffd5b5f5ffd5b5f7fffffffff0000000000000000000000000000000000000000000000000000000082169050919050565b612eb181612e7d565b8114612ebb575f5ffd5b50565b5f81359050612ecc81612ea8565b92915050565b5f60208284031215612ee757612ee6612e75565b5b5f612ef484828501612ebe565b91505092915050565b5f8115159050919050565b612f1181612efd565b82525050565b5f602082019050612f2a5f830184612f08565b92915050565b5f819050919050565b612f4281612f30565b8114612f4c575f5ffd5b50565b5f81359050612f5d81612f39565b92915050565b5f5ffd5b5f5ffd5b5f5ffd5b5f5f83601f840112612f8457612f83612f63565b5b8235905067ffffffffffffffff811115612fa157612fa0612f67565b5b602083019150836001820283011115612fbd57612fbc612f6b565b5b9250929050565b5f5f5f5f5f60608688031215612fdd57612fdc612e75565b5b5f612fea88828901612f4f565b955050602086013567ffffffffffffffff81111561300b5761300a612e79565b5b61301788828901612f6f565b9450945050604086013567ffffffffffffffff81111561303a57613039612e79565b5b61304688828901612f6f565b92509250509295509295909350565b5f5f6040838503121561306b5761306a612e75565b5b5f61307885828601612f4f565b925050602061308985828601612ebe565b9150509250929050565b5f73ffffffffffffffffffffffffffffffffffffffff82169050919050565b5f6130bc82613093565b9050919050565b6130cc816130b2565b82525050565b5f6020820190506130e55f8301846130c3565b92915050565b5f819050919050565b6130fd816130eb565b8114613107575f5ffd5b50565b5f81359050613118816130f4565b92915050565b5f5f6040838503121561313457613133612e75565b5b5f61314185828601612f4f565b92505060206131528582860161310a565b9150509250929050565b613165816130eb565b82525050565b5f81519050919050565b5f82825260208201905092915050565b8281835e5f83830152505050565b5f601f19601f8301169050919050565b5f6131ad8261316b565b6131b78185613175565b93506131c7818560208601613185565b6131d081613193565b840191505092915050565b5f6040820190506131ee5f83018561315c565b818103602083015261320081846131a3565b90509392505050565b613212816130b2565b811461321c575f5ffd5b50565b5f8135905061322d81613209565b92915050565b5f6020828403121561324857613247612e75565b5b5f6132558482850161321f565b91505092915050565b5f5f5f6060848603121561327557613274612e75565b5b5f61328286828701612f4f565b935050602061329386828701612f4f565b92505060406132a486828701612f4f565b9150509250925092565b5f5f83601f8401126132c3576132c2612f63565b5b8235905067ffffffffffffffff8111156132e0576132df612f67565b5b6020830191508360018202830111156132fc576132fb612f6b565b5b9250929050565b5f5f5f6040848603121561331a57613319612e75565b5b5f61332786828701612f4f565b935050602084013567ffffffffffffffff81111561334857613347612e79565b5b613354868287016132ae565b92509250509250925092565b5f6020828403121561337557613374612e75565b5b5f61338284828501612f4f565b91505092915050565b5f61339582613093565b9050919050565b6133a58161338b565b82525050565b5f6020820190506133be5f83018461339c565b92915050565b5f5f5f604084860312156133db576133da612e75565b5b5f6133e886828701612f4f565b935050602084013567ffffffffffffffff81111561340957613408612e79565b5b61341586828701612f6f565b92509250509250925092565b5f81519050919050565b5f82825260208201905092915050565b5f61344582613421565b61344f818561342b565b935061345f818560208601613185565b61346881613193565b840191505092915050565b5f6020820190508181035f83015261348b818461343b565b905092915050565b5f5f5f5f606085870312156134ab576134aa612e75565b5b5f6134b887828801612f4f565b94505060206134c98782880161310a565b935050604085013567ffffffffffffffff8111156134ea576134e9612e79565b5b6134f6878288016132ae565b925092505092959194509250565b5f5ffd5b7f4e487b71000000000000000000000000000000000000000000000000000000005f52604160045260245ffd5b61353e82613193565b810181811067ffffffffffffffff8211171561355d5761355c613508565b5b80604052505050565b5f61356f612e6c565b905061357b8282613535565b919050565b5f67ffffffffffffffff82111561359a57613599613508565b5b6135a382613193565b9050602081019050919050565b828183375f83830152505050565b5f6135d06135cb84613580565b613566565b9050828152602081018484840111156135ec576135eb613504565b5b6135f78482856135b0565b509392505050565b5f82601f83011261361357613612612f63565b5b81356136238482602086016135be565b91505092915050565b5f5f5f6060848603121561364357613642612e75565b5b5f61365086828701612f4f565b93505060206136618682870161310a565b925050604084013567ffffffffffffffff81111561368257613681612e79565b5b61368e868287016135ff565b9150509250925092565b5f5f604083850312156136ae576136ad612e75565b5b5f83013567ffffffffffffffff8111156136cb576136ca612e79565b5b6136d7858286016135ff565b925050602083013567ffffffffffffffff8111156136f8576136f7612e79565b5b613704858286016135ff565b9150509250929050565b5f6020820190508181035f83015261372681846131a3565b905092915050565b61373781612efd565b8114613741575f5ffd5b50565b5f813590506137528161372e565b92915050565b5f5f6040838503121561376e5761376d612e75565b5b5f61377b8582860161321f565b925050602061378c85828601613744565b9150509250929050565b5f819050919050565b5f6137b96137b46137af84613093565b613796565b613093565b9050919050565b5f6137ca8261379f565b9050919050565b5f6137db826137c0565b9050919050565b6137eb816137d1565b82525050565b5f6020820190506138045f8301846137e2565b92915050565b5f5f5f6060848603121561382157613820612e75565b5b5f61382e86828701612f4f565b935050602061383f8682870161321f565b925050604061385086828701613744565b9150509250925092565b5f5f5f6060848603121561387157613870612e75565b5b5f61387e8682870161321f565b935050602061388f86828701612f4f565b92505060406138a08682870161321f565b9150509250925092565b5f5f83601f8401126138bf576138be612f63565b5b8235905067ffffffffffffffff8111156138dc576138db612f67565b5b6020830191508360208202830111156138f8576138f7612f6b565b5b9250929050565b5f5f6020838503121561391557613914612e75565b5b5f83013567ffffffffffffffff81111561393257613931612e79565b5b61393e858286016138aa565b92509250509250929050565b5f81519050919050565b5f82825260208201905092915050565b5f819050602082019050919050565b5f82825260208201905092915050565b5f61398d8261316b565b6139978185613973565b93506139a7818560208601613185565b6139b081613193565b840191505092915050565b5f6139c68383613983565b905092915050565b5f602082019050919050565b5f6139e48261394a565b6139ee8185613954565b935083602082028501613a0085613964565b805f5b85811015613a3b5784840389528151613a1c85826139bb565b9450613a27836139ce565b925060208a01995050600181019050613a03565b50829750879550505050505092915050565b5f6020820190508181035f830152613a6581846139da565b905092915050565b613a7681612f30565b82525050565b5f604082019050613a8f5f830185613a6d565b613a9c6020830184613a6d565b9392505050565b5f5f60408385031215613ab957613ab8612e75565b5b5f613ac685828601612f4f565b9250506020613ad78582860161321f565b9150509250929050565b5f67ffffffffffffffff82169050919050565b613afd81613ae1565b82525050565b5f602082019050613b165f830184613af4565b92915050565b5f5f5f60408486031215613b3357613b32612e75565b5b5f613b4086828701612f4f565b935050602084013567ffffffffffffffff811115613b6157613b60612e79565b5b613b6d868287016138aa565b92509250509250925092565b5f5f5f60608486031215613b9057613b8f612e75565b5b5f613b9d86828701612f4f565b9350506020613bae86828701612ebe565b9250506040613bbf8682870161321f565b9150509250925092565b5f5f60408385031215613bdf57613bde612e75565b5b5f613bec8582860161321f565b9250506020613bfd8582860161321f565b9150509250929050565b7f556e617574686f72697a656400000000000000000000000000000000000000005f82015250565b5f613c3b600c8361342b565b9150613c4682613c07565b602082019050919050565b5f6020820190508181035f830152613c6881613c2f565b9050919050565b5f81905092915050565b5f613c848385613c6f565b9350613c918385846135b0565b82840190509392505050565b5f613ca9828486613c79565b91508190509392505050565b5f82905092915050565b7f4e487b71000000000000000000000000000000000000000000000000000000005f52602260045260245ffd5b5f6002820490506001821680613d0357607f821691505b602082108103613d1657613d15613cbf565b5b50919050565b5f819050815f5260205f209050919050565b5f6020601f8301049050919050565b5f82821b905092915050565b5f60088302613d787fffffffffffffffffffffffffffffffffffffffffffffffffffffffffffffffff82613d3d565b613d828683613d3d565b95508019841693508086168417925050509392505050565b5f613db4613daf613daa846130eb565b613796565b6130eb565b9050919050565b5f819050919050565b613dcd83613d9a565b613de1613dd982613dbb565b848454613d49565b825550505050565b5f5f905090565b613df8613de9565b613e03818484613dc4565b505050565b5b81811015613e2657613e1b5f82613df0565b600181019050613e09565b5050565b601f821115613e6b57613e3c81613d1c565b613e4584613d2e565b81016020851015613e54578190505b613e68613e6085613d2e565b830182613e08565b50505b505050565b5f82821c905092915050565b5f613e8b5f1984600802613e70565b1980831691505092915050565b5f613ea38383613e7c565b9150826002028217905092915050565b613ebd8383613cb5565b67ffffffffffffffff811115613ed657613ed5613508565b5b613ee08254613cec565b613eeb828285613e2a565b5f601f831160018114613f18575f8415613f06578287013590505b613f108582613e98565b865550613f77565b601f198416613f2686613d1c565b5f5b82811015613f4d57848901358255600182019150602085019450602081019050613f28565b86831015613f6a5784890135613f66601f891682613e7c565b8355505b6001600288020188555050505b50505050505050565b5f613f8b838561342b565b9350613f988385846135b0565b613fa183613193565b840190509392505050565b5f6040820190508181035f830152613fc5818688613f80565b90508181036020830152613fda818486613f80565b905095945050505050565b613fee81612e7d565b82525050565b5f6020820190506140075f830184613fe5565b92915050565b5f81905092915050565b5f6140218261316b565b61402b818561400d565b935061403b818560208601613185565b80840191505092915050565b5f6140528284614017565b915081905092915050565b7f4e487b71000000000000000000000000000000000000000000000000000000005f52603260045260245ffd5b5f82905092915050565b5f819050815f5260205f209050919050565b601f8211156140e7576140b881614094565b6140c184613d2e565b810160208510156140d0578190505b6140e46140dc85613d2e565b830182613e08565b50505b505050565b6140f6838361408a565b67ffffffffffffffff81111561410f5761410e613508565b5b6141198254613cec565b6141248282856140a6565b5f601f831160018114614151575f841561413f578287013590505b6141498582613e98565b8655506141b0565b601f19841661415f86614094565b5f5b8281101561418657848901358255600182019150602085019450602081019050614161565b868310156141a3578489013561419f601f891682613e7c565b8355505b6001600288020188555050505b50505050505050565b5f6141c48385613175565b93506141d18385846135b0565b6141da83613193565b840190509392505050565b5f6020820190508181035f8301526141fe8184866141b9565b90509392505050565b7f4e487b71000000000000000000000000000000000000000000000000000000005f52601160045260245ffd5b5f61423e82613ae1565b915067ffffffffffffffff820361425857614257614207565b5b600182019050919050565b5f61426d826130eb565b9150614278836130eb565b92508282039050818111156142905761428f614207565b5b92915050565b5f6020820190508181035f8301526142af818486613f80565b90509392505050565b5f6142c2826137c0565b9050919050565b6142d2816142b8565b82525050565b5f6020820190506142eb5f8301846142c9565b92915050565b6142fa8261316b565b67ffffffffffffffff81111561431357614312613508565b5b61431d8254613cec565b6143288282856140a6565b5f60209050601f831160018114614359575f8415614347578287015190505b6143518582613e98565b8655506143b8565b601f19841661436786614094565b5f5b8281101561438e57848901518255600182019150602085019450602081019050614369565b868310156143ab57848901516143a7601f891682613e7c565b8355505b6001600288020188555050505b505050505050565b5f6020820190506143d35f830184613a6d565b92915050565b5f815190506143e781613209565b92915050565b5f6020828403121561440257614401612e75565b5b5f61440f848285016143d9565b91505092915050565b5f5ffd5b5f5ffd5b5f5ffd5b5f5f833560016020038436030381126144405761443f614418565b5b80840192508235915067ffffffffffffffff8211156144625761446161441c565b5b60208301925060018202360383131561447e5761447d614420565b5b509250929050565b5f5ffd5b5f5ffd5b5f5f858511156144a1576144a0614486565b5b838611156144b2576144b161448a565b5b6001850283019150848603905094509492505050565b5f6144d3838361408a565b826144de8135612f30565b9250602082101561451e576145197fffffffffffffffffffffffffffffffffffffffffffffffffffffffffffffffff83602003600802613d3d565b831692505b505092915050565b7f6d756c746963616c6c3a20416c6c207265636f726473206d75737420686176655f8201527f2061206d61746368696e67206e616d6568617368000000000000000000000000602082015250565b5f61458060348361342b565b915061458b82614526565b604082019050919050565b5f6020820190508181035f8301526145ad81614574565b9050919050565b5f6145bf838561400d565b93506145cc8385846135b0565b82840190509392505050565b5f6145e48284866145b4565b91508190509392505050565b7f4d756c746963616c6c2064656c656761746563616c6c206661696c65642077695f8201527f74686f7574206120726561736f6e000000000000000000000000000000000000602082015250565b5f61464a602e8361342b565b9150614655826145f0565b604082019050919050565b5f6020820190508181035f8301526146778161463e565b905091905056fea2646970667358221220f158058525ceb13abc80e3bbe757e4f037f50e41821097e0a7e384d22a50cdda64736f6c634300081e0033","linkReferences":{}},"methodIdentifiers":{"ABI(bytes32,uint256)":"2203ab56","addr(bytes32)":"3b3b57de","addr(bytes32,uint256)":"f1cb7e06","approve(bytes32,address,bool)":"a4b91a01","clearRecords(bytes32)":"3603d758","contenthash(bytes32)":"bc1c58d1","interfaceImplementer(bytes32,bytes4)":"124a319c","isApprovedFor(address,bytes32,address)":"a9784b3e","isApprovedForAll(address,address)":"e985e9c5","lns()":"a40dd877","multicall(bytes[])":"ac9650d8","multicallWithNodeCheck(bytes32,bytes[])":"e32954eb","name(bytes32)":"691f3431","owner()":"8da5cb5b","pubkey(bytes32)":"c8690233","recordVersions(bytes32)":"d700ff33","registrarController()":"f9cd32c5","renounceOwnership()":"715018a6","resolve(bytes,bytes)":"9061b923","reverseRegistrar()":"80869853","setABI(bytes32,uint256,bytes)":"623195b0","setAddr(bytes32,address)":"d5fa2b00","setAddr(bytes32,uint256,bytes)":"8b95dd71","setApprovalForAll(address,bool)":"a22cb465","setContenthash(bytes32,bytes)":"304e6ade","setInterface(bytes32,bytes4,address)":"e59d895d","setName(bytes32,string)":"77372213","setPubkey(bytes32,bytes32,bytes32)":"29cd62ea","setRegistrarController(address)":"29448e1d","setReverseRegistrar(address)":"557499ba","setText(bytes32,string,string)":"10f13a8c","supportsInterface(bytes4)":"01ffc9a7","text(bytes32,string)":"59d1d43c","transferOwnership(address)":"f2fde38b"},"id":59}