{"abi":[{"type":"constructor","inputs":[{"name":"base_","type":"address","internalType":"contract BaseRegistrar"},{"name":"resolver_","type":"address","internalType":"contract LitDefaultResolver"},{"name":"weth_","type":"address","internalType":"contract IWETH"},{"name":"auctionDuration_","type":"uint256","internalType":"uint256"},{"name":"registrationDuration_","type":"uint256","internalType":"uint256"},{"name":"reservePrice_","type":"uint192","internalType":"uint192"},{"name":"timeBuffer_","type":"uint56","internalType":"uint56"},{"name":"minBidIncrementPercentage_","type":"uint8","internalType":"uint8"},{"name":"paymentReceiver_","type":"address","internalType":"address"}],"stateMutability":"nonpayable"},{"type":"function","name":"MAX_TIME_BUFFER","inputs":[],"outputs":[{"name":"","type":"uint56","internalType":"uint56"}],"stateMutability":"view"},{"type":"function","name":"auction","inputs":[],"outputs":[{"name":"","type":"tuple","internalType":"struct ILitAuctionHouse.AuctionView","components":[{"name":"tokenId","type":"uint256","internalType":"uint256"},{"name":"amount","type":"uint256","internalType":"uint256"},{"name":"startTime","type":"uint64","internalType":"uint64"},{"name":"endTime","type":"uint64","internalType":"uint64"},{"name":"bidder","type":"address","internalType":"address payable"},{"name":"settled","type":"bool","internalType":"bool"}]}],"stateMutability":"view"},{"type":"function","name":"auctionDuration","inputs":[],"outputs":[{"name":"","type":"uint256","internalType":"uint256"}],"stateMutability":"view"},{"type":"function","name":"auctionStorage","inputs":[],"outputs":[{"name":"tokenId","type":"uint256","internalType":"uint256"},{"name":"amount","type":"uint256","internalType":"uint256"},{"name":"startTime","type":"uint64","internalType":"uint64"},{"name":"endTime","type":"uint64","internalType":"uint64"},{"name":"bidder","type":"address","internalType":"address payable"},{"name":"settled","type":"bool","internalType":"bool"}],"stateMutability":"view"},{"type":"function","name":"base","inputs":[],"outputs":[{"name":"","type":"address","internalType":"contract BaseRegistrar"}],"stateMutability":"view"},{"type":"function","name":"createBid","inputs":[{"name":"tokenId","type":"uint256","internalType":"uint256"}],"outputs":[],"stateMutability":"payable"},{"type":"function","name":"getPrices","inputs":[{"name":"auctionCount","type":"uint256","internalType":"uint256"}],"outputs":[{"name":"prices","type":"uint256[]","internalType":"uint256[]"}],"stateMutability":"view"},{"type":"function","name":"getSettlements","inputs":[{"name":"startId","type":"uint256","internalType":"uint256"},{"name":"endId","type":"uint256","internalType":"uint256"}],"outputs":[{"name":"settlements","type":"tuple[]","internalType":"struct ILitAuctionHouse.Settlement[]","components":[{"name":"blockTimestamp","type":"uint32","internalType":"uint32"},{"name":"amount","type":"uint256","internalType":"uint256"},{"name":"winner","type":"address","internalType":"address"},{"name":"tokenId","type":"uint256","internalType":"uint256"}]}],"stateMutability":"view"},{"type":"function","name":"getSettlements","inputs":[{"name":"auctionCount","type":"uint256","internalType":"uint256"}],"outputs":[{"name":"settlements","type":"tuple[]","internalType":"struct ILitAuctionHouse.Settlement[]","components":[{"name":"blockTimestamp","type":"uint32","internalType":"uint32"},{"name":"amount","type":"uint256","internalType":"uint256"},{"name":"winner","type":"address","internalType":"address"},{"name":"tokenId","type":"uint256","internalType":"uint256"}]}],"stateMutability":"view"},{"type":"function","name":"getSettlementsFromIdtoTimestamp","inputs":[{"name":"startId","type":"uint256","internalType":"uint256"},{"name":"endTimestamp","type":"uint256","internalType":"uint256"}],"outputs":[{"name":"settlements","type":"tuple[]","internalType":"struct ILitAuctionHouse.Settlement[]","components":[{"name":"blockTimestamp","type":"uint32","internalType":"uint32"},{"name":"amount","type":"uint256","internalType":"uint256"},{"name":"winner","type":"address","internalType":"address"},{"name":"tokenId","type":"uint256","internalType":"uint256"}]}],"stateMutability":"view"},{"type":"function","name":"maxAuctionCount","inputs":[],"outputs":[{"name":"","type":"uint256","internalType":"uint256"}],"stateMutability":"view"},{"type":"function","name":"minBidIncrementPercentage","inputs":[],"outputs":[{"name":"","type":"uint8","internalType":"uint8"}],"stateMutability":"view"},{"type":"function","name":"owner","inputs":[],"outputs":[{"name":"","type":"address","internalType":"address"}],"stateMutability":"view"},{"type":"function","name":"pause","inputs":[],"outputs":[],"stateMutability":"nonpayable"},{"type":"function","name":"paused","inputs":[],"outputs":[{"name":"","type":"bool","internalType":"bool"}],"stateMutability":"view"},{"type":"function","name":"paymentReceiver","inputs":[],"outputs":[{"name":"","type":"address","internalType":"address"}],"stateMutability":"view"},{"type":"function","name":"registrationDuration","inputs":[],"outputs":[{"name":"","type":"uint256","internalType":"uint256"}],"stateMutability":"view"},{"type":"function","name":"renounceOwnership","inputs":[],"outputs":[],"stateMutability":"nonpayable"},{"type":"function","name":"reservePrice","inputs":[],"outputs":[{"name":"","type":"uint192","internalType":"uint192"}],"stateMutability":"view"},{"type":"function","name":"resolver","inputs":[],"outputs":[{"name":"","type":"address","internalType":"contract LitDefaultResolver"}],"stateMutability":"view"},{"type":"function","name":"setMaxAuctionCount","inputs":[{"name":"_maxAuctionCount","type":"uint256","internalType":"uint256"}],"outputs":[],"stateMutability":"nonpayable"},{"type":"function","name":"setMinBidIncrementPercentage","inputs":[{"name":"_minBidIncrementPercentage","type":"uint8","internalType":"uint8"}],"outputs":[],"stateMutability":"nonpayable"},{"type":"function","name":"setPaymentReceiver","inputs":[{"name":"paymentReceiver_","type":"address","internalType":"address"}],"outputs":[],"stateMutability":"nonpayable"},{"type":"function","name":"setReservePrice","inputs":[{"name":"_reservePrice","type":"uint192","internalType":"uint192"}],"outputs":[],"stateMutability":"nonpayable"},{"type":"function","name":"setTimeBuffer","inputs":[{"name":"_timeBuffer","type":"uint56","internalType":"uint56"}],"outputs":[],"stateMutability":"nonpayable"},{"type":"function","name":"settleAuction","inputs":[],"outputs":[],"stateMutability":"nonpayable"},{"type":"function","name":"settleCurrentAndCreateNewAuction","inputs":[{"name":"label_","type":"string","internalType":"string"}],"outputs":[],"stateMutability":"nonpayable"},{"type":"function","name":"timeBuffer","inputs":[],"outputs":[{"name":"","type":"uint56","internalType":"uint56"}],"stateMutability":"view"},{"type":"function","name":"transferOwnership","inputs":[{"name":"newOwner","type":"address","internalType":"address"}],"outputs":[],"stateMutability":"nonpayable"},{"type":"function","name":"unpause","inputs":[{"name":"label_","type":"string","internalType":"string"}],"outputs":[],"stateMutability":"nonpayable"},{"type":"function","name":"weth","inputs":[],"outputs":[{"name":"","type":"address","internalType":"contract IWETH"}],"stateMutability":"view"},{"type":"event","name":"AuctionBid","inputs":[{"name":"tokenId","type":"uint256","indexed":true,"internalType":"uint256"},{"name":"sender","type":"address","indexed":false,"internalType":"address"},{"name":"value","type":"uint256","indexed":false,"internalType":"uint256"},{"name":"extended","type":"bool","indexed":false,"internalType":"bool"}],"anonymous":false},{"type":"event","name":"AuctionCreated","inputs":[{"name":"tokenId","type":"uint256","indexed":true,"internalType":"uint256"},{"name":"startTime","type":"uint256","indexed":false,"internalType":"uint256"},{"name":"endTime","type":"uint256","indexed":false,"internalType":"uint256"}],"anonymous":false},{"type":"event","name":"AuctionCreationError","inputs":[{"name":"reason","type":"string","indexed":false,"internalType":"string"}],"anonymous":false},{"type":"event","name":"AuctionExtended","inputs":[{"name":"tokenId","type":"uint256","indexed":true,"internalType":"uint256"},{"name":"endTime","type":"uint256","indexed":false,"internalType":"uint256"}],"anonymous":false},{"type":"event","name":"AuctionMinBidIncrementPercentageUpdated","inputs":[{"name":"minBidIncrementPercentage","type":"uint256","indexed":false,"internalType":"uint256"}],"anonymous":false},{"type":"event","name":"AuctionReservePriceUpdated","inputs":[{"name":"reservePrice","type":"uint256","indexed":false,"internalType":"uint256"}],"anonymous":false},{"type":"event","name":"AuctionSettled","inputs":[{"name":"tokenId","type":"uint256","indexed":true,"internalType":"uint256"},{"name":"winner","type":"address","indexed":false,"internalType":"address"},{"name":"amount","type":"uint256","indexed":false,"internalType":"uint256"}],"anonymous":false},{"type":"event","name":"AuctionTimeBufferUpdated","inputs":[{"name":"timeBuffer","type":"uint256","indexed":false,"internalType":"uint256"}],"anonymous":false},{"type":"event","name":"MaxAuctionCountUpdated","inputs":[{"name":"maxAuctionCount","type":"uint256","indexed":false,"internalType":"uint256"}],"anonymous":false},{"type":"event","name":"OwnershipTransferred","inputs":[{"name":"previousOwner","type":"address","indexed":true,"internalType":"address"},{"name":"newOwner","type":"address","indexed":true,"internalType":"address"}],"anonymous":false},{"type":"event","name":"Paused","inputs":[{"name":"account","type":"address","indexed":false,"internalType":"address"}],"anonymous":false},{"type":"event","name":"PaymentReceiverUpdated","inputs":[{"name":"newPaymentReceiver","type":"address","indexed":false,"internalType":"address"}],"anonymous":false},{"type":"event","name":"Unpaused","inputs":[{"name":"account","type":"address","indexed":false,"internalType":"address"}],"anonymous":false},{"type":"error","name":"AuctionAlreadySettled","inputs":[]},{"type":"error","name":"AuctionExpired","inputs":[]},{"type":"error","name":"AuctionNotBegun","inputs":[]},{"type":"error","name":"AuctionNotCompleted","inputs":[]},{"type":"error","name":"EnforcedPause","inputs":[]},{"type":"error","name":"ExpectedPause","inputs":[]},{"type":"error","name":"InvalidPaymentReceiver","inputs":[]},{"type":"error","name":"InvalidRange","inputs":[]},{"type":"error","name":"InvalidReservePrice","inputs":[]},{"type":"error","name":"MaxAuctionCountExceeded","inputs":[{"name":"auctionCount","type":"uint256","internalType":"uint256"}]},{"type":"error","name":"MaxAuctionCountIsZero","inputs":[]},{"type":"error","name":"MinBidIncrementPercentageIsZero","inputs":[]},{"type":"error","name":"MissingSettlementsData","inputs":[]},{"type":"error","name":"MustSendAtLeastReservePrice","inputs":[]},{"type":"error","name":"MustSendMoreThanLastBidByMinBidIncrementPercentageAmount","inputs":[]},{"type":"error","name":"NoAuctions","inputs":[]},{"type":"error","name":"NotEnoughHistory","inputs":[]},{"type":"error","name":"OwnableInvalidOwner","inputs":[{"name":"owner","type":"address","internalType":"address"}]},{"type":"error","name":"OwnableUnauthorizedAccount","inputs":[{"name":"account","type":"address","internalType":"address"}]},{"type":"error","name":"PriceExceedsUint64Range","inputs":[{"name":"price","type":"uint256","internalType":"uint256"}]},{"type":"error","name":"ReentrancyGuardReentrantCall","inputs":[]},{"type":"error","name":"StartIdTooLarge","inputs":[{"name":"startId","type":"uint256","internalType":"uint256"}]},{"type":"error","name":"TimeBufferTooLarge","inputs":[{"name":"timeBuffer","type":"uint256","internalType":"uint256"}]},{"type":"error","name":"TokenNotForUpAuction","inputs":[{"name":"tokenId","type":"uint256","internalType":"uint256"}]}],"bytecode":{"object":"0x610120604052348015610010575f5ffd5b50604051614a61380380614a61833981810160405281019061003291906106e9565b335f5f5f6101000a81548160ff021916908315150217905550600180819055505f73ffffffffffffffffffffffffffffffffffffffff168173ffffffffffffffffffffffffffffffffffffffff16036100c2575f6040517f1e4fbdf70000000000000000000000000000000000000000000000000000000081526004016100b991906107bc565b60405180910390fd5b6100d18161035660201b60201c565b508873ffffffffffffffffffffffffffffffffffffffff1660808173ffffffffffffffffffffffffffffffffffffffff16815250508773ffffffffffffffffffffffffffffffffffffffff1660a08173ffffffffffffffffffffffffffffffffffffffff16815250508673ffffffffffffffffffffffffffffffffffffffff1660c08173ffffffffffffffffffffffffffffffffffffffff16815250508560e0818152505084610100818152505080600a5f6101000a81548173ffffffffffffffffffffffffffffffffffffffff021916908373ffffffffffffffffffffffffffffffffffffffff16021790555060196003819055506101d561041960201b60201c565b5f8477ffffffffffffffffffffffffffffffffffffffffffffffff1603610228576040517ffb33f9b500000000000000000000000000000000000000000000000000000000815260040160405180910390fd5b5f8260ff1603610264576040517f49ad5d5300000000000000000000000000000000000000000000000000000000815260040160405180910390fd5b6201518066ffffffffffffff168366ffffffffffffff1611156102be57826040517f47004b3e0000000000000000000000000000000000000000000000000000000081526004016102b5919061080e565b60405180910390fd5b8360045f6101000a81548177ffffffffffffffffffffffffffffffffffffffffffffffff021916908377ffffffffffffffffffffffffffffffffffffffffffffffff16021790555082600460186101000a81548166ffffffffffffff021916908366ffffffffffffff160217905550816004601f6101000a81548160ff021916908360ff160217905550505050505050505050610827565b5f60025f9054906101000a900473ffffffffffffffffffffffffffffffffffffffff1690508160025f6101000a81548173ffffffffffffffffffffffffffffffffffffffff021916908373ffffffffffffffffffffffffffffffffffffffff1602179055508173ffffffffffffffffffffffffffffffffffffffff168173ffffffffffffffffffffffffffffffffffffffff167f8be0079c531659141344cd1fd0a4f28419497f9722a3daafe3b4186f6b6457e060405160405180910390a35050565b61042761048660201b60201c565b60015f5f6101000a81548160ff0219169083151502179055507f62e78cea01bee320cd4e420270b5ea74000d11b0c9f74754ebdbfc544b05a25861046f6104cd60201b60201c565b60405161047c91906107bc565b60405180910390a1565b6104946104d460201b60201c565b156104cb576040517fd93c066500000000000000000000000000000000000000000000000000000000815260040160405180910390fd5b565b5f33905090565b5f5f5f9054906101000a900460ff16905090565b5f5ffd5b5f73ffffffffffffffffffffffffffffffffffffffff82169050919050565b5f610515826104ec565b9050919050565b5f6105268261050b565b9050919050565b6105368161051c565b8114610540575f5ffd5b50565b5f815190506105518161052d565b92915050565b5f6105618261050b565b9050919050565b61057181610557565b811461057b575f5ffd5b50565b5f8151905061058c81610568565b92915050565b5f61059c8261050b565b9050919050565b6105ac81610592565b81146105b6575f5ffd5b50565b5f815190506105c7816105a3565b92915050565b5f819050919050565b6105df816105cd565b81146105e9575f5ffd5b50565b5f815190506105fa816105d6565b92915050565b5f77ffffffffffffffffffffffffffffffffffffffffffffffff82169050919050565b61062c81610600565b8114610636575f5ffd5b50565b5f8151905061064781610623565b92915050565b5f66ffffffffffffff82169050919050565b6106688161064d565b8114610672575f5ffd5b50565b5f815190506106838161065f565b92915050565b5f60ff82169050919050565b61069e81610689565b81146106a8575f5ffd5b50565b5f815190506106b981610695565b92915050565b6106c88161050b565b81146106d2575f5ffd5b50565b5f815190506106e3816106bf565b92915050565b5f5f5f5f5f5f5f5f5f6101208a8c031215610707576107066104e8565b5b5f6107148c828d01610543565b99505060206107258c828d0161057e565b98505060406107368c828d016105b9565b97505060606107478c828d016105ec565b96505060806107588c828d016105ec565b95505060a06107698c828d01610639565b94505060c061077a8c828d01610675565b93505060e061078b8c828d016106ab565b92505061010061079d8c828d016106d5565b9150509295985092959850929598565b6107b68161050b565b82525050565b5f6020820190506107cf5f8301846107ad565b92915050565b5f819050919050565b5f6107f86107f36107ee8461064d565b6107d5565b6105cd565b9050919050565b610808816107de565b82525050565b5f6020820190506108215f8301846107ff565b92915050565b60805160a05160c05160e051610100516141be6108a35f395f8181612160015261295201525f81816107f10152612a7401525f818161112101528181612c9b0152612d1801525f81816106e6015261297301525f81816115ad0152818161234b01528181612630015281816126c4015261291401526141be5ff3fe6080604052600436106101d7575f3560e01c80637d9f6db511610101578063b296024d11610094578063de90d11111610063578063de90d11114610640578063e79faa581461066a578063ec91f2a414610692578063f2fde38b146106bc576101d7565b8063b296024d1461059a578063c0555d98146105c4578063cb37f3b2146105ec578063db2e1eed14610616576101d7565b80638da5cb5b116100d05780638da5cb5b146104ef5780639149295614610519578063945c37cb14610555578063a4d0a17e14610584576101d7565b80637d9f6db51461045d578063827cb478146104875780638456cb59146104af57806385317a29146104c5576101d7565b806336ebdb38116101795780635c975abb116101485780635c975abb146103d9578063659dd2b41461040357806365ebf99a1461041f578063715018a614610447576101d7565b806336ebdb38146103215780633fc8cef31461034957806346f920fd146103735780635001f3b5146103af576101d7565b80630cbf54c8116101b55780630cbf54c81461025557806313b3c4e31461027f578063151281e8146102a95780632c34064c146102e5576101d7565b806304f3bcec146101db578063092c7ea8146102055780630ba4e9ea1461022d575b5f5ffd5b3480156101e6575f5ffd5b506101ef6106e4565b6040516101fc9190613169565b60405180910390f35b348015610210575f5ffd5b5061022b600480360381019061022691906132cf565b610708565b005b348015610238575f5ffd5b50610253600480360381019061024e9190613352565b61072c565b005b348015610260575f5ffd5b506102696107ef565b6040516102769190613395565b60405180910390f35b34801561028a575f5ffd5b50610293610813565b6040516102a09190613395565b60405180910390f35b3480156102b4575f5ffd5b506102cf60048036038101906102ca91906133d8565b610819565b6040516102dc919061355e565b60405180910390f35b3480156102f0575f5ffd5b5061030b600480360381019061030691906133d8565b610c34565b604051610318919061355e565b60405180910390f35b34801561032c575f5ffd5b50610347600480360381019061034291906135b4565b611086565b005b348015610354575f5ffd5b5061035d61111f565b60405161036a91906135ff565b60405180910390f35b34801561037e575f5ffd5b5061039960048036038101906103949190613618565b611143565b6040516103a6919061355e565b60405180910390f35b3480156103ba575f5ffd5b506103c36115ab565b6040516103d09190613663565b60405180910390f35b3480156103e4575f5ffd5b506103ed6115cf565b6040516103fa9190613696565b60405180910390f35b61041d60048036038101906104189190613618565b6115e3565b005b34801561042a575f5ffd5b50610445600480360381019061044091906136d9565b611a41565b005b348015610452575f5ffd5b5061045b611b28565b005b348015610468575f5ffd5b50610471611b3b565b60405161047e91906137ce565b60405180910390f35b348015610492575f5ffd5b506104ad60048036038101906104a89190613618565b611c11565b005b3480156104ba575f5ffd5b506104c3611c9d565b005b3480156104d0575f5ffd5b506104d9611caf565b6040516104e691906137f6565b60405180910390f35b3480156104fa575f5ffd5b50610503611cb6565b604051610510919061381e565b60405180910390f35b348015610524575f5ffd5b5061053f600480360381019061053a9190613618565b611cde565b60405161054c91906138df565b60405180910390f35b348015610560575f5ffd5b50610569611f7a565b60405161057b9695949392919061391d565b60405180910390f35b34801561058f575f5ffd5b50610598611ff6565b005b3480156105a5575f5ffd5b506105ae612020565b6040516105bb919061398b565b60405180910390f35b3480156105cf575f5ffd5b506105ea60048036038101906105e591906139f1565b612033565b005b3480156105f7575f5ffd5b50610600612110565b60405161060d919061381e565b60405180910390f35b348015610621575f5ffd5b5061062a612135565b6040516106379190613a2b565b60405180910390f35b34801561064b575f5ffd5b5061065461215e565b6040516106619190613395565b60405180910390f35b348015610675575f5ffd5b50610690600480360381019061068b91906132cf565b612182565b005b34801561069d575f5ffd5b506106a66121e3565b6040516106b391906137f6565b60405180910390f35b3480156106c7575f5ffd5b506106e260048036038101906106dd91906136d9565b6121fc565b005b7f000000000000000000000000000000000000000000000000000000000000000081565b610710612280565b6107186122c1565b610720612348565b610729816128e6565b50565b6107346122c1565b6201518066ffffffffffffff168166ffffffffffffff16111561078e57806040517f47004b3e0000000000000000000000000000000000000000000000000000000081526004016107859190613a74565b60405180910390fd5b80600460186101000a81548166ffffffffffffff021916908366ffffffffffffff1602179055507f1b55d9f7002bda4490f467e326f22a4a847629c0f2d1ed421607d318d25b410d816040516107e49190613a74565b60405180910390a150565b7f000000000000000000000000000000000000000000000000000000000000000081565b60035481565b606060035483111561086257826040517f1616a5760000000000000000000000000000000000000000000000000000000081526004016108599190613395565b60405180910390fd5b8183118061086f57505f83145b8061087957505f82145b156108b0576040517f561ce9bb00000000000000000000000000000000000000000000000000000000815260040160405180910390fd5b5f5f90505f8490505b83811015610a0b575f60095f8381526020019081526020015f206040518060600160405290815f82015f9054906101000a900463ffffffff1663ffffffff1663ffffffff1681526020015f820160049054906101000a900467ffffffffffffffff1667ffffffffffffffff1667ffffffffffffffff1681526020015f8201600c9054906101000a900473ffffffffffffffffffffffffffffffffffffffff1673ffffffffffffffffffffffffffffffffffffffff1673ffffffffffffffffffffffffffffffffffffffff168152505090505f815f015163ffffffff161180156109af57505f816020015167ffffffffffffffff16115b80156109eb57505f73ffffffffffffffffffffffffffffffffffffffff16816040015173ffffffffffffffffffffffffffffffffffffffff1614155b156109ff5782806109fb90613aba565b9350505b508060010190506108b9565b508067ffffffffffffffff811115610a2657610a256131ab565b5b604051908082528060200260200182016040528015610a5f57816020015b610a4c61300f565b815260200190600190039081610a445790505b5091505f5f90505f8590505b84811015610c2b575f60095f8381526020019081526020015f206040518060600160405290815f82015f9054906101000a900463ffffffff1663ffffffff1663ffffffff1681526020015f820160049054906101000a900467ffffffffffffffff1667ffffffffffffffff1667ffffffffffffffff1681526020015f8201600c9054906101000a900473ffffffffffffffffffffffffffffffffffffffff1673ffffffffffffffffffffffffffffffffffffffff1673ffffffffffffffffffffffffffffffffffffffff168152505090505f815f015163ffffffff16118015610b6157505f816020015167ffffffffffffffff16115b8015610b9d57505f73ffffffffffffffffffffffffffffffffffffffff16816040015173ffffffffffffffffffffffffffffffffffffffff1614155b15610c1f576040518060800160405280825f015163ffffffff168152602001610bc98360200151612c23565b8152602001826040015173ffffffffffffffffffffffffffffffffffffffff16815260200183815250858481518110610c0557610c04613b01565b5b60200260200101819052508280610c1b90613aba565b9350505b50806001019050610a6b565b50505092915050565b6060600354831115610c7d57826040517f1616a576000000000000000000000000000000000000000000000000000000008152600401610c749190613395565b60405180910390fd5b5f60055f0154905080841115610cca57836040517f7072c8f6000000000000000000000000000000000000000000000000000000008152600401610cc19190613395565b60405180910390fd5b5f5f90505f8590505b828111610e3a575f60095f8381526020019081526020015f206040518060600160405290815f82015f9054906101000a900463ffffffff1663ffffffff1663ffffffff1681526020015f820160049054906101000a900467ffffffffffffffff1667ffffffffffffffff1667ffffffffffffffff1681526020015f8201600c9054906101000a900473ffffffffffffffffffffffffffffffffffffffff1673ffffffffffffffffffffffffffffffffffffffff1673ffffffffffffffffffffffffffffffffffffffff168152505090508382148015610dbc57506001815f015163ffffffff1611155b8015610df757505f73ffffffffffffffffffffffffffffffffffffffff16816040015173ffffffffffffffffffffffffffffffffffffffff16145b15610e025750610e29565b85815f015163ffffffff161115610e195750610e3a565b8280610e2490613aba565b935050505b80610e3390613aba565b9050610cd3565b508067ffffffffffffffff811115610e5557610e546131ab565b5b604051908082528060200260200182016040528015610e8e57816020015b610e7b61300f565b815260200190600190039081610e735790505b5092505f5f90505f8690505b838111158015610ea957508282105b1561107c575f60095f8381526020019081526020015f206040518060600160405290815f82015f9054906101000a900463ffffffff1663ffffffff1663ffffffff1681526020015f820160049054906101000a900467ffffffffffffffff1667ffffffffffffffff1667ffffffffffffffff1681526020015f8201600c9054906101000a900473ffffffffffffffffffffffffffffffffffffffff1673ffffffffffffffffffffffffffffffffffffffff1673ffffffffffffffffffffffffffffffffffffffff168152505090508482148015610f9057506001815f015163ffffffff1611155b8015610fcb57505f73ffffffffffffffffffffffffffffffffffffffff16816040015173ffffffffffffffffffffffffffffffffffffffff16145b15610fd6575061106b565b86815f015163ffffffff161115610fed575061107c565b6040518060800160405280825f015163ffffffff1681526020016110148360200151612c23565b8152602001826040015173ffffffffffffffffffffffffffffffffffffffff168152602001838152508684815181106110505761104f613b01565b5b6020026020010181905250828061106690613aba565b935050505b8061107590613aba565b9050610e9a565b5050505092915050565b61108e6122c1565b5f8160ff16036110ca576040517f49ad5d5300000000000000000000000000000000000000000000000000000000815260040160405180910390fd5b806004601f6101000a81548160ff021916908360ff1602179055507fec5ccd96cc77b6219e9d44143df916af68fc169339ea7de5008ff15eae13450d816040516111149190613b5e565b60405180910390a150565b7f000000000000000000000000000000000000000000000000000000000000000081565b606060035482111561118c57816040517f1616a5760000000000000000000000000000000000000000000000000000000081526004016111839190613395565b60405180910390fd5b5f60055f015490505f81036111cd576040517f79021b3c00000000000000000000000000000000000000000000000000000000815260040160405180910390fd5b600560030160149054906101000a900460ff161580156111ec57505f81115b15611201576001816111fe9190613b77565b90505b5f5f90505f8290505b8482101561136f575f60095f8381526020019081526020015f206040518060600160405290815f82015f9054906101000a900463ffffffff1663ffffffff1663ffffffff1681526020015f820160049054906101000a900467ffffffffffffffff1667ffffffffffffffff1667ffffffffffffffff1681526020015f8201600c9054906101000a900473ffffffffffffffffffffffffffffffffffffffff1673ffffffffffffffffffffffffffffffffffffffff1673ffffffffffffffffffffffffffffffffffffffff168152505090505f815f015163ffffffff1611801561130057505f816020015167ffffffffffffffff16115b801561133c57505f73ffffffffffffffffffffffffffffffffffffffff16816040015173ffffffffffffffffffffffffffffffffffffffff1614155b1561135057828061134c90613aba565b9350505b5f820361135d575061136f565b508061136890613baa565b905061120a565b508067ffffffffffffffff81111561138a576113896131ab565b5b6040519080825280602002602001820160405280156113c357816020015b6113b061300f565b8152602001906001900390816113a85790505b5092505f5f90505f8390505b828210156115a2575f60095f8381526020019081526020015f206040518060600160405290815f82015f9054906101000a900463ffffffff1663ffffffff1663ffffffff1681526020015f820160049054906101000a900467ffffffffffffffff1667ffffffffffffffff1667ffffffffffffffff1681526020015f8201600c9054906101000a900473ffffffffffffffffffffffffffffffffffffffff1673ffffffffffffffffffffffffffffffffffffffff1673ffffffffffffffffffffffffffffffffffffffff168152505090505f815f015163ffffffff161180156114c557505f816020015167ffffffffffffffff16115b801561150157505f73ffffffffffffffffffffffffffffffffffffffff16816040015173ffffffffffffffffffffffffffffffffffffffff1614155b15611583576040518060800160405280825f015163ffffffff16815260200161152d8360200151612c23565b8152602001826040015173ffffffffffffffffffffffffffffffffffffffff1681526020018381525086848151811061156957611568613b01565b5b6020026020010181905250828061157f90613aba565b9350505b5f820361159057506115a2565b508061159b90613baa565b90506113cf565b50505050919050565b7f000000000000000000000000000000000000000000000000000000000000000081565b5f5f5f9054906101000a900460ff16905090565b6115eb612280565b6115f3612c45565b5f60056040518060c00160405290815f820154815260200160018201548152602001600282015f9054906101000a900467ffffffffffffffff1667ffffffffffffffff1667ffffffffffffffff1681526020016002820160089054906101000a900467ffffffffffffffff1667ffffffffffffffff1667ffffffffffffffff168152602001600382015f9054906101000a900473ffffffffffffffffffffffffffffffffffffffff1673ffffffffffffffffffffffffffffffffffffffff1673ffffffffffffffffffffffffffffffffffffffff1681526020016003820160149054906101000a900460ff16151515158152505090505f5f5f60045f9054906101000a900477ffffffffffffffffffffffffffffffffffffffffffffffff16600460189054906101000a900466ffffffffffffff166004601f9054906101000a900460ff1692509250925084845f01511461178557846040517f452eaa5a00000000000000000000000000000000000000000000000000000000815260040161177c9190613395565b60405180910390fd5b836060015167ffffffffffffffff1642106117cc576040517f04a5e67c00000000000000000000000000000000000000000000000000000000815260040160405180910390fd5b8277ffffffffffffffffffffffffffffffffffffffffffffffff16341015611820576040517ff77bf49400000000000000000000000000000000000000000000000000000000815260040160405180910390fd5b60648160ff1685602001516118359190613bd1565b61183f9190613c3f565b846020015161184e9190613c6f565b341015611887576040517f4ec82d9500000000000000000000000000000000000000000000000000000000815260040160405180910390fd5b346005600101819055503360056003015f6101000a81548173ffffffffffffffffffffffffffffffffffffffff021916908373ffffffffffffffffffffffffffffffffffffffff1602179055505f8266ffffffffffffff1642866060015167ffffffffffffffff166118f99190613b77565b109050845f01517f1159164c56f277e6fc99c11731bd380e0347deb969b75523398734c252706ea333348460405161193393929190613ca2565b60405180910390a280156119e6578266ffffffffffffff16426119569190613c6f565b64ffffffffff16856060019067ffffffffffffffff16908167ffffffffffffffff16815250600560020160086101000a81548167ffffffffffffffff021916908367ffffffffffffffff160217905550845f01517f6e912a3a9105bdd2af817ba5adc14e6c127c1035b5b648faa29ca0d58ab8ff4e86606001516040516119dd9190613d07565b60405180910390a25b5f856080015190505f73ffffffffffffffffffffffffffffffffffffffff168173ffffffffffffffffffffffffffffffffffffffff1614611a3057611a2f818760200151612c8b565b5b505050505050611a3e612db7565b50565b611a496122c1565b5f73ffffffffffffffffffffffffffffffffffffffff168173ffffffffffffffffffffffffffffffffffffffff1603611aae576040517f7b5da9c000000000000000000000000000000000000000000000000000000000815260040160405180910390fd5b80600a5f6101000a81548173ffffffffffffffffffffffffffffffffffffffff021916908373ffffffffffffffffffffffffffffffffffffffff1602179055507f6cfddd24d2afc1b9f31d51f0ef77029fdde044799f0a87a2a09b7673b609742281604051611b1d919061381e565b60405180910390a150565b611b306122c1565b611b395f612dc0565b565b611b4361304f565b6040518060c0016040528060055f01548152602001600560010154815260200160056002015f9054906101000a900467ffffffffffffffff1667ffffffffffffffff168152602001600560020160089054906101000a900467ffffffffffffffff1667ffffffffffffffff16815260200160056003015f9054906101000a900473ffffffffffffffffffffffffffffffffffffffff1673ffffffffffffffffffffffffffffffffffffffff168152602001600560030160149054906101000a900460ff161515815250905090565b611c19612280565b611c216122c1565b5f8103611c5a576040517f6249244900000000000000000000000000000000000000000000000000000000815260040160405180910390fd5b806003819055507fd770aa5d8859528bbc6591dd02a6c17f76c515c44dcb848e8500303042341c12600354604051611c929190613395565b60405180910390a150565b611ca56122c1565b611cad612e83565b565b6201518081565b5f60025f9054906101000a900473ffffffffffffffffffffffffffffffffffffffff16905090565b60605f60055f015490505f8103611d21576040517f79021b3c00000000000000000000000000000000000000000000000000000000815260040160405180910390fd5b600560030160149054906101000a900460ff16158015611d4057505f81115b15611d5557600181611d529190613b77565b90505b8267ffffffffffffffff811115611d6f57611d6e6131ab565b5b604051908082528060200260200182016040528015611d9d5781602001602082028036833780820191505090505b5091505f5f9050611dac6130ab565b5f8390505b5f81118015611dbf57508583105b15611f385760095f8281526020019081526020015f206040518060600160405290815f82015f9054906101000a900463ffffffff1663ffffffff1663ffffffff1681526020015f820160049054906101000a900467ffffffffffffffff1667ffffffffffffffff1667ffffffffffffffff1681526020015f8201600c9054906101000a900473ffffffffffffffffffffffffffffffffffffffff1673ffffffffffffffffffffffffffffffffffffffff1673ffffffffffffffffffffffffffffffffffffffff168152505091505f825f015163ffffffff161480611ed257505f73ffffffffffffffffffffffffffffffffffffffff16826040015173ffffffffffffffffffffffffffffffffffffffff16145b80611eea57505f826020015167ffffffffffffffff16145b611f2757611efb8260200151612c23565b858481518110611f0e57611f0d613b01565b5b60200260200101818152505082611f2490613aba565b92505b80611f3190613baa565b9050611db1565b50818514611f72576040517f9ee522a900000000000000000000000000000000000000000000000000000000815260040160405180910390fd5b505050919050565b6005805f015490806001015490806002015f9054906101000a900467ffffffffffffffff16908060020160089054906101000a900467ffffffffffffffff1690806003015f9054906101000a900473ffffffffffffffffffffffffffffffffffffffff16908060030160149054906101000a900460ff16905086565b611ffe612ee4565b6120066122c1565b61200e612c45565b612016612348565b61201e612db7565b565b6004601f9054906101000a900460ff1681565b61203b6122c1565b5f8177ffffffffffffffffffffffffffffffffffffffffffffffff160361208e576040517ffb33f9b500000000000000000000000000000000000000000000000000000000815260040160405180910390fd5b8060045f6101000a81548177ffffffffffffffffffffffffffffffffffffffffffffffff021916908377ffffffffffffffffffffffffffffffffffffffffffffffff1602179055507f6ab2e127d7fdf53b8f304e59d3aab5bfe97979f52a85479691a6fab27a28a6b2816040516121059190613d50565b60405180910390a150565b600a5f9054906101000a900473ffffffffffffffffffffffffffffffffffffffff1681565b60045f9054906101000a900477ffffffffffffffffffffffffffffffffffffffffffffffff1681565b7f000000000000000000000000000000000000000000000000000000000000000081565b61218a6122c1565b612192612f24565b5f60056002015f9054906101000a900467ffffffffffffffff1667ffffffffffffffff1614806121d15750600560030160149054906101000a900460ff165b156121e0576121df816128e6565b5b50565b600460189054906101000a900466ffffffffffffff1681565b6122046122c1565b5f73ffffffffffffffffffffffffffffffffffffffff168173ffffffffffffffffffffffffffffffffffffffff1603612274575f6040517f1e4fbdf700000000000000000000000000000000000000000000000000000000815260040161226b919061381e565b60405180910390fd5b61227d81612dc0565b50565b6122886115cf565b156122bf576040517fd93c066500000000000000000000000000000000000000000000000000000000815260040160405180910390fd5b565b6122c9612f84565b73ffffffffffffffffffffffffffffffffffffffff166122e7611cb6565b73ffffffffffffffffffffffffffffffffffffffff16146123465761230a612f84565b6040517f118cdaa700000000000000000000000000000000000000000000000000000000815260040161233d919061381e565b60405180910390fd5b565b5f7f000000000000000000000000000000000000000000000000000000000000000073ffffffffffffffffffffffffffffffffffffffff166370a08231306040518263ffffffff1660e01b81526004016123a2919061381e565b602060405180830381865afa1580156123bd573d5f5f3e3d5ffd5b505050506040513d601f19601f820116820180604052508101906123e19190613d7d565b03612418576040517f79021b3c00000000000000000000000000000000000000000000000000000000815260040160405180910390fd5b5f60056040518060c00160405290815f820154815260200160018201548152602001600282015f9054906101000a900467ffffffffffffffff1667ffffffffffffffff1667ffffffffffffffff1681526020016002820160089054906101000a900467ffffffffffffffff1667ffffffffffffffff1667ffffffffffffffff168152602001600382015f9054906101000a900473ffffffffffffffffffffffffffffffffffffffff1673ffffffffffffffffffffffffffffffffffffffff1673ffffffffffffffffffffffffffffffffffffffff1681526020016003820160149054906101000a900460ff16151515158152505090505f816040015167ffffffffffffffff1603612555576040517f45f6f33600000000000000000000000000000000000000000000000000000000815260040160405180910390fd5b8060a0015115612591576040517f4f4fee1700000000000000000000000000000000000000000000000000000000815260040160405180910390fd5b806060015167ffffffffffffffff164210156125d9576040517f857889f700000000000000000000000000000000000000000000000000000000815260040160405180910390fd5b6001600560030160146101000a81548160ff0219169083151502179055505f73ffffffffffffffffffffffffffffffffffffffff16816080015173ffffffffffffffffffffffffffffffffffffffff16036126c2577f000000000000000000000000000000000000000000000000000000000000000073ffffffffffffffffffffffffffffffffffffffff166323b872dd3061dead845f01516040518463ffffffff1660e01b815260040161269093929190613da8565b5f604051808303815f87803b1580156126a7575f5ffd5b505af11580156126b9573d5f5f3e3d5ffd5b50505050612754565b7f000000000000000000000000000000000000000000000000000000000000000073ffffffffffffffffffffffffffffffffffffffff166323b872dd308360800151845f01516040518463ffffffff1660e01b815260040161272693929190613dfd565b5f604051808303815f87803b15801561273d575f5ffd5b505af115801561274f573d5f5f3e3d5ffd5b505050505b5f81602001511180156127b457505f73ffffffffffffffffffffffffffffffffffffffff16600a5f9054906101000a900473ffffffffffffffffffffffffffffffffffffffff1673ffffffffffffffffffffffffffffffffffffffff1614155b156127e9576127e8600a5f9054906101000a900473ffffffffffffffffffffffffffffffffffffffff168260200151612c8b565b5b5f60095f835f015181526020019081526020015f20905042815f015f6101000a81548163ffffffff021916908363ffffffff16021790555061282e8260200151612f8b565b815f0160046101000a81548167ffffffffffffffff021916908367ffffffffffffffff1602179055508160800151815f01600c6101000a81548173ffffffffffffffffffffffffffffffffffffffff021916908373ffffffffffffffffffffffffffffffffffffffff160217905550815f01517fc9f72b276a388619c6d185d146697036241880c36654b1a3ffdad07c24038d99836080015184602001516040516128da929190613e32565b60405180910390a25050565b5f816040516020016128f89190613eab565b604051602081830303815290604052805190602001205f1c90507f000000000000000000000000000000000000000000000000000000000000000073ffffffffffffffffffffffffffffffffffffffff1663eac2aa0982307f00000000000000000000000000000000000000000000000000000000000000007f00000000000000000000000000000000000000000000000000000000000000005f6040518663ffffffff1660e01b81526004016129b3959493929190613efa565b6020604051808303815f875af19250505080156129ee57506040513d601f19601f820116820180604052508101906129eb9190613d7d565b60015b612a6d576129fa613f57565b806308c379a003612a5e5750612a0e613f76565b80612a195750612a60565b612a21612e83565b7ff63212df4867fef3d461e9b3cb93f7337b231bfb99c82fad9c6eda92d399410581604051612a50919061404d565b60405180910390a150612a68565b505b3d5f5f3e3d5ffd5b612c1f565b5f4290505f7f000000000000000000000000000000000000000000000000000000000000000082612a9e919061407d565b90506040518060c001604052808581526020015f81526020018364ffffffffff1667ffffffffffffffff1681526020018264ffffffffff1667ffffffffffffffff1681526020015f73ffffffffffffffffffffffffffffffffffffffff1681526020015f151581525060055f820151815f0155602082015181600101556040820151816002015f6101000a81548167ffffffffffffffff021916908367ffffffffffffffff16021790555060608201518160020160086101000a81548167ffffffffffffffff021916908367ffffffffffffffff1602179055506080820151816003015f6101000a81548173ffffffffffffffffffffffffffffffffffffffff021916908373ffffffffffffffffffffffffffffffffffffffff16021790555060a08201518160030160146101000a81548160ff021916908315150217905550905050837fd6eddd1118d71820909c1197aa966dbc15ed6f508554252169cc3d5ccac756ca8383604051612c139291906140e5565b60405180910390a25050505b5050565b5f6305f5e1008267ffffffffffffffff16612c3e9190613bd1565b9050919050565b600260015403612c81576040517f3ee5aeb500000000000000000000000000000000000000000000000000000000815260040160405180910390fd5b6002600181905550565b612c958282612ff7565b612db3577f000000000000000000000000000000000000000000000000000000000000000073ffffffffffffffffffffffffffffffffffffffff1663d0e30db0826040518263ffffffff1660e01b81526004015f604051808303818588803b158015612cff575f5ffd5b505af1158015612d11573d5f5f3e3d5ffd5b50505050507f000000000000000000000000000000000000000000000000000000000000000073ffffffffffffffffffffffffffffffffffffffff1663a9059cbb83836040518363ffffffff1660e01b8152600401612d7192919061410c565b6020604051808303815f875af1158015612d8d573d5f5f3e3d5ffd5b505050506040513d601f19601f82011682018060405250810190612db1919061415d565b505b5050565b60018081905550565b5f60025f9054906101000a900473ffffffffffffffffffffffffffffffffffffffff1690508160025f6101000a81548173ffffffffffffffffffffffffffffffffffffffff021916908373ffffffffffffffffffffffffffffffffffffffff1602179055508173ffffffffffffffffffffffffffffffffffffffff168173ffffffffffffffffffffffffffffffffffffffff167f8be0079c531659141344cd1fd0a4f28419497f9722a3daafe3b4186f6b6457e060405160405180910390a35050565b612e8b612280565b60015f5f6101000a81548160ff0219169083151502179055507f62e78cea01bee320cd4e420270b5ea74000d11b0c9f74754ebdbfc544b05a258612ecd612f84565b604051612eda919061381e565b60405180910390a1565b612eec6115cf565b612f22576040517f8dfc202b00000000000000000000000000000000000000000000000000000000815260040160405180910390fd5b565b612f2c612ee4565b5f5f5f6101000a81548160ff0219169083151502179055507f5db9ee0a495bf2e6ff9c91a7834c1ba4fdd244a5e8aa4e537bd38aeae4b073aa612f6d612f84565b604051612f7a919061381e565b60405180910390a1565b5f33905090565b5f5f6305f5e10083612f9d9190613c3f565b905067ffffffffffffffff8016811115612fee57826040517f87a3017d000000000000000000000000000000000000000000000000000000008152600401612fe59190613395565b60405180910390fd5b80915050919050565b5f5f5f5f5f5f8688617530f190508091505092915050565b60405180608001604052805f63ffffffff1681526020015f81526020015f73ffffffffffffffffffffffffffffffffffffffff1681526020015f81525090565b6040518060c001604052805f81526020015f81526020015f67ffffffffffffffff1681526020015f67ffffffffffffffff1681526020015f73ffffffffffffffffffffffffffffffffffffffff1681526020015f151581525090565b60405180606001604052805f63ffffffff1681526020015f67ffffffffffffffff1681526020015f73ffffffffffffffffffffffffffffffffffffffff1681525090565b5f73ffffffffffffffffffffffffffffffffffffffff82169050919050565b5f819050919050565b5f61313161312c613127846130ef565b61310e565b6130ef565b9050919050565b5f61314282613117565b9050919050565b5f61315382613138565b9050919050565b61316381613149565b82525050565b5f60208201905061317c5f83018461315a565b92915050565b5f604051905090565b5f5ffd5b5f5ffd5b5f5ffd5b5f5ffd5b5f601f19601f8301169050919050565b7f4e487b71000000000000000000000000000000000000000000000000000000005f52604160045260245ffd5b6131e18261319b565b810181811067ffffffffffffffff82111715613200576131ff6131ab565b5b80604052505050565b5f613212613182565b905061321e82826131d8565b919050565b5f67ffffffffffffffff82111561323d5761323c6131ab565b5b6132468261319b565b9050602081019050919050565b828183375f83830152505050565b5f61327361326e84613223565b613209565b90508281526020810184848401111561328f5761328e613197565b5b61329a848285613253565b509392505050565b5f82601f8301126132b6576132b5613193565b5b81356132c6848260208601613261565b91505092915050565b5f602082840312156132e4576132e361318b565b5b5f82013567ffffffffffffffff8111156133015761330061318f565b5b61330d848285016132a2565b91505092915050565b5f66ffffffffffffff82169050919050565b61333181613316565b811461333b575f5ffd5b50565b5f8135905061334c81613328565b92915050565b5f602082840312156133675761336661318b565b5b5f6133748482850161333e565b91505092915050565b5f819050919050565b61338f8161337d565b82525050565b5f6020820190506133a85f830184613386565b92915050565b6133b78161337d565b81146133c1575f5ffd5b50565b5f813590506133d2816133ae565b92915050565b5f5f604083850312156133ee576133ed61318b565b5b5f6133fb858286016133c4565b925050602061340c858286016133c4565b9150509250929050565b5f81519050919050565b5f82825260208201905092915050565b5f819050602082019050919050565b5f63ffffffff82169050919050565b6134578161343f565b82525050565b6134668161337d565b82525050565b5f613476826130ef565b9050919050565b6134868161346c565b82525050565b608082015f8201516134a05f85018261344e565b5060208201516134b3602085018261345d565b5060408201516134c6604085018261347d565b5060608201516134d9606085018261345d565b50505050565b5f6134ea838361348c565b60808301905092915050565b5f602082019050919050565b5f61350c82613416565b6135168185613420565b935061352183613430565b805f5b8381101561355157815161353888826134df565b9750613543836134f6565b925050600181019050613524565b5085935050505092915050565b5f6020820190508181035f8301526135768184613502565b905092915050565b5f60ff82169050919050565b6135938161357e565b811461359d575f5ffd5b50565b5f813590506135ae8161358a565b92915050565b5f602082840312156135c9576135c861318b565b5b5f6135d6848285016135a0565b91505092915050565b5f6135e982613138565b9050919050565b6135f9816135df565b82525050565b5f6020820190506136125f8301846135f0565b92915050565b5f6020828403121561362d5761362c61318b565b5b5f61363a848285016133c4565b91505092915050565b5f61364d82613138565b9050919050565b61365d81613643565b82525050565b5f6020820190506136765f830184613654565b92915050565b5f8115159050919050565b6136908161367c565b82525050565b5f6020820190506136a95f830184613687565b92915050565b6136b88161346c565b81146136c2575f5ffd5b50565b5f813590506136d3816136af565b92915050565b5f602082840312156136ee576136ed61318b565b5b5f6136fb848285016136c5565b91505092915050565b5f67ffffffffffffffff82169050919050565b61372081613704565b82525050565b5f613730826130ef565b9050919050565b61374081613726565b82525050565b61374f8161367c565b82525050565b60c082015f8201516137695f85018261345d565b50602082015161377c602085018261345d565b50604082015161378f6040850182613717565b5060608201516137a26060850182613717565b5060808201516137b56080850182613737565b5060a08201516137c860a0850182613746565b50505050565b5f60c0820190506137e15f830184613755565b92915050565b6137f081613316565b82525050565b5f6020820190506138095f8301846137e7565b92915050565b6138188161346c565b82525050565b5f6020820190506138315f83018461380f565b92915050565b5f81519050919050565b5f82825260208201905092915050565b5f819050602082019050919050565b5f61386b838361345d565b60208301905092915050565b5f602082019050919050565b5f61388d82613837565b6138978185613841565b93506138a283613851565b805f5b838110156138d25781516138b98882613860565b97506138c483613877565b9250506001810190506138a5565b5085935050505092915050565b5f6020820190508181035f8301526138f78184613883565b905092915050565b61390881613704565b82525050565b61391781613726565b82525050565b5f60c0820190506139305f830189613386565b61393d6020830188613386565b61394a60408301876138ff565b61395760608301866138ff565b613964608083018561390e565b61397160a0830184613687565b979650505050505050565b6139858161357e565b82525050565b5f60208201905061399e5f83018461397c565b92915050565b5f77ffffffffffffffffffffffffffffffffffffffffffffffff82169050919050565b6139d0816139a4565b81146139da575f5ffd5b50565b5f813590506139eb816139c7565b92915050565b5f60208284031215613a0657613a0561318b565b5b5f613a13848285016139dd565b91505092915050565b613a25816139a4565b82525050565b5f602082019050613a3e5f830184613a1c565b92915050565b5f613a5e613a59613a5484613316565b61310e565b61337d565b9050919050565b613a6e81613a44565b82525050565b5f602082019050613a875f830184613a65565b92915050565b7f4e487b71000000000000000000000000000000000000000000000000000000005f52601160045260245ffd5b5f613ac48261337d565b91507fffffffffffffffffffffffffffffffffffffffffffffffffffffffffffffffff8203613af657613af5613a8d565b5b600182019050919050565b7f4e487b71000000000000000000000000000000000000000000000000000000005f52603260045260245ffd5b5f613b48613b43613b3e8461357e565b61310e565b61337d565b9050919050565b613b5881613b2e565b82525050565b5f602082019050613b715f830184613b4f565b92915050565b5f613b818261337d565b9150613b8c8361337d565b9250828203905081811115613ba457613ba3613a8d565b5b92915050565b5f613bb48261337d565b91505f8203613bc657613bc5613a8d565b5b600182039050919050565b5f613bdb8261337d565b9150613be68361337d565b9250828202613bf48161337d565b91508282048414831517613c0b57613c0a613a8d565b5b5092915050565b7f4e487b71000000000000000000000000000000000000000000000000000000005f52601260045260245ffd5b5f613c498261337d565b9150613c548361337d565b925082613c6457613c63613c12565b5b828204905092915050565b5f613c798261337d565b9150613c848361337d565b9250828201905080821115613c9c57613c9b613a8d565b5b92915050565b5f606082019050613cb55f83018661380f565b613cc26020830185613386565b613ccf6040830184613687565b949350505050565b5f613cf1613cec613ce784613704565b61310e565b61337d565b9050919050565b613d0181613cd7565b82525050565b5f602082019050613d1a5f830184613cf8565b92915050565b5f613d3a613d35613d30846139a4565b61310e565b61337d565b9050919050565b613d4a81613d20565b82525050565b5f602082019050613d635f830184613d41565b92915050565b5f81519050613d77816133ae565b92915050565b5f60208284031215613d9257613d9161318b565b5b5f613d9f84828501613d69565b91505092915050565b5f606082019050613dbb5f83018661380f565b613dc8602083018561380f565b613dd56040830184613386565b949350505050565b5f613de782613138565b9050919050565b613df781613ddd565b82525050565b5f606082019050613e105f83018661380f565b613e1d6020830185613dee565b613e2a6040830184613386565b949350505050565b5f604082019050613e455f830185613dee565b613e526020830184613386565b9392505050565b5f81519050919050565b5f81905092915050565b8281835e5f83830152505050565b5f613e8582613e59565b613e8f8185613e63565b9350613e9f818560208601613e6d565b80840191505092915050565b5f613eb68284613e7b565b915081905092915050565b5f819050919050565b5f613ee4613edf613eda84613ec1565b61310e565b613704565b9050919050565b613ef481613eca565b82525050565b5f60a082019050613f0d5f830188613386565b613f1a602083018761380f565b613f276040830186613386565b613f34606083018561380f565b613f416080830184613eeb565b9695505050505050565b5f8160e01c9050919050565b5f60033d1115613f735760045f5f3e613f705f51613f4b565b90505b90565b5f60443d1061400257613f87613182565b60043d036004823e80513d602482011167ffffffffffffffff82111715613faf575050614002565b808201805167ffffffffffffffff811115613fcd5750505050614002565b80602083010160043d038501811115613fea575050505050614002565b613ff9826020018501866131d8565b82955050505050505b90565b5f82825260208201905092915050565b5f61401f82613e59565b6140298185614005565b9350614039818560208601613e6d565b6140428161319b565b840191505092915050565b5f6020820190508181035f8301526140658184614015565b905092915050565b5f64ffffffffff82169050919050565b5f6140878261406d565b91506140928361406d565b9250828201905064ffffffffff8111156140af576140ae613a8d565b5b92915050565b5f6140cf6140ca6140c58461406d565b61310e565b61337d565b9050919050565b6140df816140b5565b82525050565b5f6040820190506140f85f8301856140d6565b61410560208301846140d6565b9392505050565b5f60408201905061411f5f83018561380f565b61412c6020830184613386565b9392505050565b61413c8161367c565b8114614146575f5ffd5b50565b5f8151905061415781614133565b92915050565b5f602082840312156141725761417161318b565b5b5f61417f84828501614149565b9150509291505056fea26469706673582212206cb6f9451ea3061ffb1c914c182f1c69cfae44f78a802f08088432ecb4cf615b64736f6c634300081e0033","linkReferences":{}},"methodIdentifiers":{"MAX_TIME_BUFFER()":"85317a29","auction()":"7d9f6db5","auctionDuration()":"0cbf54c8","auctionStorage()":"945c37cb","base()":"5001f3b5","createBid(uint256)":"659dd2b4","getPrices(uint256)":"91492956","getSettlements(uint256)":"46f920fd","getSettlements(uint256,uint256)":"151281e8","getSettlementsFromIdtoTimestamp(uint256,uint256)":"2c34064c","maxAuctionCount()":"13b3c4e3","minBidIncrementPercentage()":"b296024d","owner()":"8da5cb5b","pause()":"8456cb59","paused()":"5c975abb","paymentReceiver()":"cb37f3b2","registrationDuration()":"de90d111","renounceOwnership()":"715018a6","reservePrice()":"db2e1eed","resolver()":"04f3bcec","setMaxAuctionCount(uint256)":"827cb478","setMinBidIncrementPercentage(uint8)":"36ebdb38","setPaymentReceiver(address)":"65ebf99a","setReservePrice(uint192)":"c0555d98","setTimeBuffer(uint56)":"0ba4e9ea","settleAuction()":"a4d0a17e","settleCurrentAndCreateNewAuction(string)":"092c7ea8","timeBuffer()":"ec91f2a4","transferOwnership(address)":"f2fde38b","unpause(string)":"e79faa58","weth()":"3fc8cef3"},"id":43}