{"abi":[{"type":"constructor","inputs":[{"name":"pyth_","type":"address","internalType":"address"},{"name":"EthUsdPythPriceFeedId_","type":"bytes32","internalType":"bytes32"}],"stateMutability":"nonpayable"},{"type":"function","name":"discount1Year","inputs":[],"outputs":[{"name":"","type":"uint256","internalType":"uint256"}],"stateMutability":"view"},{"type":"function","name":"discount2Years","inputs":[],"outputs":[{"name":"","type":"uint256","internalType":"uint256"}],"stateMutability":"view"},{"type":"function","name":"discount3Years","inputs":[],"outputs":[{"name":"","type":"uint256","internalType":"uint256"}],"stateMutability":"view"},{"type":"function","name":"discount4Years","inputs":[],"outputs":[{"name":"","type":"uint256","internalType":"uint256"}],"stateMutability":"view"},{"type":"function","name":"discount5PlusYears","inputs":[],"outputs":[{"name":"","type":"uint256","internalType":"uint256"}],"stateMutability":"view"},{"type":"function","name":"getDiscounts","inputs":[],"outputs":[{"name":"year1","type":"uint256","internalType":"uint256"},{"name":"year2","type":"uint256","internalType":"uint256"},{"name":"year3","type":"uint256","internalType":"uint256"},{"name":"year4","type":"uint256","internalType":"uint256"},{"name":"year5Plus","type":"uint256","internalType":"uint256"}],"stateMutability":"view"},{"type":"function","name":"getPrices","inputs":[],"outputs":[{"name":"char1","type":"uint256","internalType":"uint256"},{"name":"char2","type":"uint256","internalType":"uint256"},{"name":"char3","type":"uint256","internalType":"uint256"},{"name":"char4","type":"uint256","internalType":"uint256"},{"name":"char5Plus","type":"uint256","internalType":"uint256"}],"stateMutability":"view"},{"type":"function","name":"owner","inputs":[],"outputs":[{"name":"","type":"address","internalType":"address"}],"stateMutability":"view"},{"type":"function","name":"price","inputs":[{"name":"label","type":"string","internalType":"string"},{"name":"expires","type":"uint256","internalType":"uint256"},{"name":"duration","type":"uint256","internalType":"uint256"}],"outputs":[{"name":"","type":"tuple","internalType":"struct IPriceOracle.Price","components":[{"name":"base","type":"uint256","internalType":"uint256"},{"name":"discount","type":"uint256","internalType":"uint256"}]}],"stateMutability":"view"},{"type":"function","name":"price","inputs":[{"name":"label","type":"string","internalType":"string"},{"name":"","type":"uint256","internalType":"uint256"},{"name":"duration","type":"uint256","internalType":"uint256"},{"name":"payment","type":"uint8","internalType":"enum IPriceOracle.Payment"}],"outputs":[{"name":"","type":"tuple","internalType":"struct IPriceOracle.Price","components":[{"name":"base","type":"uint256","internalType":"uint256"},{"name":"discount","type":"uint256","internalType":"uint256"}]}],"stateMutability":"view"},{"type":"function","name":"priceFor1Char","inputs":[],"outputs":[{"name":"","type":"uint256","internalType":"uint256"}],"stateMutability":"view"},{"type":"function","name":"priceFor2Char","inputs":[],"outputs":[{"name":"","type":"uint256","internalType":"uint256"}],"stateMutability":"view"},{"type":"function","name":"priceFor3Char","inputs":[],"outputs":[{"name":"","type":"uint256","internalType":"uint256"}],"stateMutability":"view"},{"type":"function","name":"priceFor4Char","inputs":[],"outputs":[{"name":"","type":"uint256","internalType":"uint256"}],"stateMutability":"view"},{"type":"function","name":"priceFor5PlusChar","inputs":[],"outputs":[{"name":"","type":"uint256","internalType":"uint256"}],"stateMutability":"view"},{"type":"function","name":"renounceOwnership","inputs":[],"outputs":[],"stateMutability":"nonpayable"},{"type":"function","name":"setDiscounts","inputs":[{"name":"year1","type":"uint256","internalType":"uint256"},{"name":"year2","type":"uint256","internalType":"uint256"},{"name":"year3","type":"uint256","internalType":"uint256"},{"name":"year4","type":"uint256","internalType":"uint256"},{"name":"year5Plus","type":"uint256","internalType":"uint256"}],"outputs":[],"stateMutability":"nonpayable"},{"type":"function","name":"setEthUsdPythPriceFeedId","inputs":[{"name":"EthUsdPythPriceFeedId_","type":"bytes32","internalType":"bytes32"}],"outputs":[],"stateMutability":"nonpayable"},{"type":"function","name":"setMinPriceInWei","inputs":[{"name":"minPriceInWei_","type":"uint256","internalType":"uint256"}],"outputs":[],"stateMutability":"nonpayable"},{"type":"function","name":"setPrices","inputs":[{"name":"char1","type":"uint256","internalType":"uint256"},{"name":"char2","type":"uint256","internalType":"uint256"},{"name":"char3","type":"uint256","internalType":"uint256"},{"name":"char4","type":"uint256","internalType":"uint256"},{"name":"char5Plus","type":"uint256","internalType":"uint256"}],"outputs":[],"stateMutability":"nonpayable"},{"type":"function","name":"setPyth","inputs":[{"name":"pyth_","type":"address","internalType":"address"}],"outputs":[],"stateMutability":"nonpayable"},{"type":"function","name":"transferOwnership","inputs":[{"name":"newOwner","type":"address","internalType":"address"}],"outputs":[],"stateMutability":"nonpayable"},{"type":"event","name":"DiscountsUpdated","inputs":[{"name":"year1","type":"uint256","indexed":false,"internalType":"uint256"},{"name":"year2","type":"uint256","indexed":false,"internalType":"uint256"},{"name":"year3","type":"uint256","indexed":false,"internalType":"uint256"},{"name":"year4","type":"uint256","indexed":false,"internalType":"uint256"},{"name":"year5Plus","type":"uint256","indexed":false,"internalType":"uint256"}],"anonymous":false},{"type":"event","name":"EthUsdPythPriceFeedIdSet","inputs":[{"name":"EthUsdPythPriceFeedId_","type":"bytes32","indexed":false,"internalType":"bytes32"}],"anonymous":false},{"type":"event","name":"MinPriceInWeiSet","inputs":[{"name":"minPriceInWei_","type":"uint256","indexed":false,"internalType":"uint256"}],"anonymous":false},{"type":"event","name":"OwnershipTransferred","inputs":[{"name":"previousOwner","type":"address","indexed":true,"internalType":"address"},{"name":"newOwner","type":"address","indexed":true,"internalType":"address"}],"anonymous":false},{"type":"event","name":"PricesUpdated","inputs":[{"name":"char1","type":"uint256","indexed":false,"internalType":"uint256"},{"name":"char2","type":"uint256","indexed":false,"internalType":"uint256"},{"name":"char3","type":"uint256","indexed":false,"internalType":"uint256"},{"name":"char4","type":"uint256","indexed":false,"internalType":"uint256"},{"name":"char5Plus","type":"uint256","indexed":false,"internalType":"uint256"}],"anonymous":false},{"type":"event","name":"PythSet","inputs":[{"name":"pyth_","type":"address","indexed":false,"internalType":"address"}],"anonymous":false},{"type":"error","name":"InvalidDiscount","inputs":[]},{"type":"error","name":"InvalidPyth","inputs":[]},{"type":"error","name":"InvalidUTF8Byte","inputs":[]},{"type":"error","name":"OwnableInvalidOwner","inputs":[{"name":"owner","type":"address","internalType":"address"}]},{"type":"error","name":"OwnableUnauthorizedAccount","inputs":[{"name":"account","type":"address","internalType":"address"}]},{"type":"error","name":"PriceTooLow","inputs":[]}],"bytecode":{"object":"0x6080604052631908b1006004556310089d40600555630a12bc4060065563041cdb4060075563017d78406008555f6009556005600a55600f600b55601e600c556028600d5534801561004f575f5ffd5b506040516124b73803806124b7833981810160405281019061007191906102f7565b335f73ffffffffffffffffffffffffffffffffffffffff168173ffffffffffffffffffffffffffffffffffffffff16036100e2575f6040517f1e4fbdf70000000000000000000000000000000000000000000000000000000081526004016100d99190610344565b60405180910390fd5b6100f1816101a560201b60201c565b505f73ffffffffffffffffffffffffffffffffffffffff168273ffffffffffffffffffffffffffffffffffffffff1603610157576040517ff5afe80d00000000000000000000000000000000000000000000000000000000815260040160405180910390fd5b8160015f6101000a81548173ffffffffffffffffffffffffffffffffffffffff021916908373ffffffffffffffffffffffffffffffffffffffff16021790555080600281905550505061035d565b5f5f5f9054906101000a900473ffffffffffffffffffffffffffffffffffffffff169050815f5f6101000a81548173ffffffffffffffffffffffffffffffffffffffff021916908373ffffffffffffffffffffffffffffffffffffffff1602179055508173ffffffffffffffffffffffffffffffffffffffff168173ffffffffffffffffffffffffffffffffffffffff167f8be0079c531659141344cd1fd0a4f28419497f9722a3daafe3b4186f6b6457e060405160405180910390a35050565b5f5ffd5b5f73ffffffffffffffffffffffffffffffffffffffff82169050919050565b5f6102938261026a565b9050919050565b6102a381610289565b81146102ad575f5ffd5b50565b5f815190506102be8161029a565b92915050565b5f819050919050565b6102d6816102c4565b81146102e0575f5ffd5b50565b5f815190506102f1816102cd565b92915050565b5f5f6040838503121561030d5761030c610266565b5b5f61031a858286016102b0565b925050602061032b858286016102e3565b9150509250929050565b61033e81610289565b82525050565b5f6020820190506103575f830184610335565b92915050565b61214d8061036a5f395ff3fe608060405234801561000f575f5ffd5b5060043610610140575f3560e01c8063865ebbb7116100b6578063bd9a548b1161007a578063bd9a548b1461031a578063c92e996c1461033c578063e6bc15961461036c578063ee22fd6f1461038a578063f2fde38b146103a6578063fb5aeaef146103c257610140565b8063865ebbb7146102845780638da5cb5b146102a25780638e16984e146102c0578063923c2713146102de578063a63fea45146102fc57610140565b806350e9a7151161010857806350e9a715146101d65780635c635a751461020657806363bb263514610222578063715018a6146102405780637bc6ec1a1461024a5780637dc156c51461026657610140565b806305fd2da0146101445780630b155ccc14610162578063216ea17d1461017e5780632f45fc2b1461019c5780633081e21e146101ba575b5f5ffd5b61014c6103e4565b604051610159919061171d565b60405180910390f35b61017c60048036038101906101779190611771565b6103ea565b005b6101866104c2565b604051610193919061171d565b60405180910390f35b6101a46104c8565b6040516101b1919061171d565b60405180910390f35b6101d460048036038101906101cf919061181b565b6104ce565b005b6101f060048036038101906101eb91906118a7565b610517565b6040516101fd9190611954565b60405180910390f35b610220600480360381019061021b919061196d565b610536565b005b61022a61057f565b604051610237919061171d565b60405180910390f35b610248610585565b005b610264600480360381019061025f9190611771565b610598565b005b61026e610609565b60405161027b919061171d565b60405180910390f35b61028c61060f565b604051610299919061171d565b60405180910390f35b6102aa610615565b6040516102b791906119d7565b60405180910390f35b6102c861063c565b6040516102d5919061171d565b60405180910390f35b6102e6610642565b6040516102f3919061171d565b60405180910390f35b610304610648565b604051610311919061171d565b60405180910390f35b61032261064e565b6040516103339594939291906119f0565b60405180910390f35b61035660048036038101906103519190611a64565b610673565b6040516103639190611954565b60405180910390f35b6103746106f0565b604051610381919061171d565b60405180910390f35b6103a4600480360381019061039f9190611b12565b6106f6565b005b6103c060048036038101906103bb9190611b12565b610778565b005b6103ca6107fc565b6040516103db9594939291906119f0565b60405180910390f35b60045481565b6103f2610821565b60648511806104015750606484115b8061040c5750606483115b806104175750606482115b806104225750606481115b15610459576040517f997ea36000000000000000000000000000000000000000000000000000000000815260040160405180910390fd5b8460098190555083600a8190555082600b8190555081600c8190555080600d819055507f8edb6e556078436804e186bb4df337c48dcef643987533fe55bafbad03fc532985858585856040516104b39594939291906119f0565b60405180910390a15050505050565b60085481565b600b5481565b6104d6610821565b806002819055507faf805355f6e7858a34ea8857d43453805a90e25e999da5a59956f1cbff8a0ad38160405161050c9190611b4c565b60405180910390a150565b61051f6116ed565b61052c858585855f610673565b9050949350505050565b61053e610821565b806003819055507ffe213f423cc686af7a64b44eb9810dfbc91529f12a14cecb255809099ad5f06281604051610574919061171d565b60405180910390a150565b600a5481565b61058d610821565b6105965f6108a8565b565b6105a0610821565b84600481905550836005819055508260068190555081600781905550806008819055507f6a40bdd3a45e084f5fca97b43d8f243d80b9ab02831e924b34872c53ff2a085e85858585856040516105fa9594939291906119f0565b60405180910390a15050505050565b60065481565b600c5481565b5f5f5f9054906101000a900473ffffffffffffffffffffffffffffffffffffffff16905090565b60095481565b600d5481565b60055481565b5f5f5f5f5f600454600554600654600754600854945094509450945094509091929394565b61067b6116ed565b5f5f610688888887610969565b915091505f600181111561069f5761069e611b65565b5b8460018111156106b2576106b1611b65565b5b036106ce576106c082610ab6565b91506106cb81610ab6565b90505b6040518060400160405280838152602001828152509250505095945050505050565b60075481565b6106fe610821565b8060015f6101000a81548173ffffffffffffffffffffffffffffffffffffffff021916908373ffffffffffffffffffffffffffffffffffffffff1602179055507f46b42f4e8500803ed21911081f9fad2d1b466f75d95552247151cc9fed56e68d8160405161076d91906119d7565b60405180910390a150565b610780610821565b5f73ffffffffffffffffffffffffffffffffffffffff168173ffffffffffffffffffffffffffffffffffffffff16036107f0575f6040517f1e4fbdf70000000000000000000000000000000000000000000000000000000081526004016107e791906119d7565b60405180910390fd5b6107f9816108a8565b50565b5f5f5f5f5f600954600a54600b54600c54600d54945094509450945094509091929394565b610829610bf7565b73ffffffffffffffffffffffffffffffffffffffff16610847610615565b73ffffffffffffffffffffffffffffffffffffffff16146108a65761086a610bf7565b6040517f118cdaa700000000000000000000000000000000000000000000000000000000815260040161089d91906119d7565b60405180910390fd5b565b5f5f5f9054906101000a900473ffffffffffffffffffffffffffffffffffffffff169050815f5f6101000a81548173ffffffffffffffffffffffffffffffffffffffff021916908373ffffffffffffffffffffffffffffffffffffffff1602179055508173ffffffffffffffffffffffffffffffffffffffff168173ffffffffffffffffffffffffffffffffffffffff167f8be0079c531659141344cd1fd0a4f28419497f9722a3daafe3b4186f6b6457e060405160405180910390a35050565b5f5f5f6109b886868080601f0160208091040260200160405190810160405280939291908181526020018383808284375f81840152601f19601f82011690508083019250505050505050610bfe565b90505f600182036109cd576004549050610a0c565b600282036109df576005549050610a0b565b600382036109f1576006549050610a0a565b60048203610a03576007549050610a09565b60085490505b5b5b5b5f6301e133808611610a22576009549050610a6a565b6303c267008611610a3757600a549050610a69565b6305a39a808611610a4c57600b549050610a68565b630784ce008611610a6157600c549050610a67565b600d5490505b5b5b5b5f6301e133808784610a7c9190611bbf565b610a869190611c2d565b90505f60648383610a979190611bbf565b610aa19190611c2d565b90508181965096505050505050935093915050565b5f5f60015f9054906101000a900473ffffffffffffffffffffffffffffffffffffffff1673ffffffffffffffffffffffffffffffffffffffff1663a4ae35e0600254633b9aca006040518363ffffffff1660e01b8152600401610b1a929190611c9f565b608060405180830381865afa158015610b35573d5f5f3e3d5ffd5b505050506040513d601f19601f82011682018060405250810190610b599190611e84565b90505f81604001517fffffffffffffffffffffffffffffffffffffffffffffffffffffffffffffffff610b8c9190611eaf565b600a610b989190612026565b670de0b6b3a7640000835f015167ffffffffffffffff16610bb99190611bbf565b610bc39190611c2d565b90505f816c0c9f2c9cd04674edea40000000610bdf9190611c2d565b90508085610bed9190611bbf565b9350505050919050565b5f33905090565b5f5f8290505f5f90505f5f90505f835190505b80821015610d64575f610c248584610d70565b90505f8184610c339190612070565b90505b8281108015610c4b5750610c4a8682610fe1565b5b15610c6c57610c5a8682610d70565b81610c659190612070565b9050610c36565b5b8281108015610c825750610c8186826114b7565b5b15610d0857610c918682610d70565b81610c9c9190612070565b905082811015610cfe575f610cb18783610d70565b90508082610cbf9190612070565b91505b8382108015610cd75750610cd68783610fe1565b5b15610cf857610ce68783610d70565b82610cf19190612070565b9150610cc2565b50610d03565b610d08565b610c6d565b610d1286856115d2565b8015610d1d57508281105b8015610d2f5750610d2e86826115d2565b5b15610d4c57610d3e8682610d70565b81610d499190612070565b90505b8480610d57906120a3565b9550508093505050610c11565b82945050505050919050565b5f5f838381518110610d8557610d846120ea565b5b602001015160f81c60f81b60f81c905060808160ff161015610dab576001915050610fdb565b60e08160ff16108015610dca57508351600184610dc89190612070565b105b8015610e085750608060c085600186610de39190612070565b81518110610df457610df36120ea565b5b602001015160f81c60f81b60f81c1660ff16145b15610e17576002915050610fdb565b60f08160ff16108015610e3657508351600284610e349190612070565b105b8015610e745750608060c085600186610e4f9190612070565b81518110610e6057610e5f6120ea565b5b602001015160f81c60f81b60f81c1660ff16145b8015610eb25750608060c085600286610e8d9190612070565b81518110610e9e57610e9d6120ea565b5b602001015160f81c60f81b60f81c1660ff16145b15610ec1576003915050610fdb565b60f88160ff16108015610ee057508351600384610ede9190612070565b105b8015610f1e5750608060c085600186610ef99190612070565b81518110610f0a57610f096120ea565b5b602001015160f81c60f81b60f81c1660ff16145b8015610f5c5750608060c085600286610f379190612070565b81518110610f4857610f476120ea565b5b602001015160f81c60f81b60f81c1660ff16145b8015610f9a5750608060c085600386610f759190612070565b81518110610f8657610f856120ea565b5b602001015160f81c60f81b60f81c1660ff16145b15610fa9576004915050610fdb565b6040517fc2e135fe00000000000000000000000000000000000000000000000000000000815260040160405180910390fd5b92915050565b5f5f838381518110610ff657610ff56120ea565b5b602001015160f81c60f81b60f81c905060cc8160ff16148061101b575060cd8160ff16145b1561102a5760019150506114b1565b60e28160ff16148015611049575083516002846110479190612070565b105b156110e6575f8460018561105d9190612070565b8151811061106e5761106d6120ea565b5b602001015160f81c60f81b60f81c90505f8560028661108d9190612070565b8151811061109e5761109d6120ea565b5b602001015160f81c60f81b60f81c905060808260ff161480156110d25750608f8160ff1614806110d15750608e8160ff16145b5b156110e357600193505050506114b1565b50505b60f08160ff16148015611105575083516003846111039190612070565b105b15611212575f846001856111199190612070565b8151811061112a576111296120ea565b5b602001015160f81c60f81b60f81c90505f856002866111499190612070565b8151811061115a576111596120ea565b5b602001015160f81c60f81b60f81c90505f866003876111799190612070565b8151811061118a576111896120ea565b5b602001015160f81c60f81b60f81c9050609f8360ff161480156111b05750608f8260ff16145b80156111d0575060bb8160ff16101580156111cf575060bf8160ff1611155b5b806111fc5750609f8360ff161480156111ec575060a48260ff16145b80156111fb575060b08160ff16145b5b1561120e5760019450505050506114b1565b5050505b60ef8160ff161480156112315750835160028461122f9190612070565b105b156112c0575f846001856112459190612070565b81518110611256576112556120ea565b5b602001015160f81c60f81b60f81c90505f856002866112759190612070565b81518110611286576112856120ea565b5b602001015160f81c60f81b60f81c905060b88260ff161480156112ac5750608f8160ff16145b156112bd57600193505050506114b1565b50505b60e28160ff161480156112df575083516002846112dd9190612070565b105b1561136e575f846001856112f39190612070565b81518110611304576113036120ea565b5b602001015160f81c60f81b60f81c90505f856002866113239190612070565b81518110611334576113336120ea565b5b602001015160f81c60f81b60f81c905060838260ff1614801561135a575060a38160ff16145b1561136b57600193505050506114b1565b50505b60f38160ff1614801561138d5750835160028461138b9190612070565b105b80156113e7575060a060f81b846001856113a79190612070565b815181106113b8576113b76120ea565b5b602001015160f81c60f81b7effffffffffffffffffffffffffffffffffffffffffffffffffffffffffffff1916145b80156114425750608060f81b846002856114019190612070565b81518110611412576114116120ea565b5b602001015160f81c60f81b7effffffffffffffffffffffffffffffffffffffffffffffffffffffffffffff191610155b801561149d5750609f60f81b8460028561145c9190612070565b8151811061146d5761146c6120ea565b5b602001015160f81c60f81b7effffffffffffffffffffffffffffffffffffffffffffffffffffffffffffff191611155b156114ac5760019150506114b1565b5f9150505b92915050565b5f60e260f81b8383815181106114d0576114cf6120ea565b5b602001015160f81c60f81b7effffffffffffffffffffffffffffffffffffffffffffffffffffffffffffff1916148015611516575082516002836115149190612070565b105b80156115705750608060f81b836001846115309190612070565b81518110611541576115406120ea565b5b602001015160f81c60f81b7effffffffffffffffffffffffffffffffffffffffffffffffffffffffffffff1916145b80156115ca5750608d60f81b8360028461158a9190612070565b8151811061159b5761159a6120ea565b5b602001015160f81c60f81b7effffffffffffffffffffffffffffffffffffffffffffffffffffffffffffff1916145b905092915050565b5f60f060f81b8383815181106115eb576115ea6120ea565b5b602001015160f81c60f81b7effffffffffffffffffffffffffffffffffffffffffffffffffffffffffffff19161480156116315750825160038361162f9190612070565b105b801561168b5750609f60f81b8360018461164b9190612070565b8151811061165c5761165b6120ea565b5b602001015160f81c60f81b7effffffffffffffffffffffffffffffffffffffffffffffffffffffffffffff1916145b80156116e55750608760f81b836002846116a59190612070565b815181106116b6576116b56120ea565b5b602001015160f81c60f81b7effffffffffffffffffffffffffffffffffffffffffffffffffffffffffffff1916145b905092915050565b60405180604001604052805f81526020015f81525090565b5f819050919050565b61171781611705565b82525050565b5f6020820190506117305f83018461170e565b92915050565b5f604051905090565b5f5ffd5b5f5ffd5b61175081611705565b811461175a575f5ffd5b50565b5f8135905061176b81611747565b92915050565b5f5f5f5f5f60a0868803121561178a5761178961173f565b5b5f6117978882890161175d565b95505060206117a88882890161175d565b94505060406117b98882890161175d565b93505060606117ca8882890161175d565b92505060806117db8882890161175d565b9150509295509295909350565b5f819050919050565b6117fa816117e8565b8114611804575f5ffd5b50565b5f81359050611815816117f1565b92915050565b5f602082840312156118305761182f61173f565b5b5f61183d84828501611807565b91505092915050565b5f5ffd5b5f5ffd5b5f5ffd5b5f5f83601f84011261186757611866611846565b5b8235905067ffffffffffffffff8111156118845761188361184a565b5b6020830191508360018202830111156118a05761189f61184e565b5b9250929050565b5f5f5f5f606085870312156118bf576118be61173f565b5b5f85013567ffffffffffffffff8111156118dc576118db611743565b5b6118e887828801611852565b945094505060206118fb8782880161175d565b925050604061190c8782880161175d565b91505092959194509250565b61192181611705565b82525050565b604082015f82015161193b5f850182611918565b50602082015161194e6020850182611918565b50505050565b5f6040820190506119675f830184611927565b92915050565b5f602082840312156119825761198161173f565b5b5f61198f8482850161175d565b91505092915050565b5f73ffffffffffffffffffffffffffffffffffffffff82169050919050565b5f6119c182611998565b9050919050565b6119d1816119b7565b82525050565b5f6020820190506119ea5f8301846119c8565b92915050565b5f60a082019050611a035f83018861170e565b611a10602083018761170e565b611a1d604083018661170e565b611a2a606083018561170e565b611a37608083018461170e565b9695505050505050565b60028110611a4d575f5ffd5b50565b5f81359050611a5e81611a41565b92915050565b5f5f5f5f5f60808688031215611a7d57611a7c61173f565b5b5f86013567ffffffffffffffff811115611a9a57611a99611743565b5b611aa688828901611852565b95509550506020611ab98882890161175d565b9350506040611aca8882890161175d565b9250506060611adb88828901611a50565b9150509295509295909350565b611af1816119b7565b8114611afb575f5ffd5b50565b5f81359050611b0c81611ae8565b92915050565b5f60208284031215611b2757611b2661173f565b5b5f611b3484828501611afe565b91505092915050565b611b46816117e8565b82525050565b5f602082019050611b5f5f830184611b3d565b92915050565b7f4e487b71000000000000000000000000000000000000000000000000000000005f52602160045260245ffd5b7f4e487b71000000000000000000000000000000000000000000000000000000005f52601160045260245ffd5b5f611bc982611705565b9150611bd483611705565b9250828202611be281611705565b91508282048414831517611bf957611bf8611b92565b5b5092915050565b7f4e487b71000000000000000000000000000000000000000000000000000000005f52601260045260245ffd5b5f611c3782611705565b9150611c4283611705565b925082611c5257611c51611c00565b5b828204905092915050565b5f819050919050565b5f819050919050565b5f611c89611c84611c7f84611c5d565b611c66565b611705565b9050919050565b611c9981611c6f565b82525050565b5f604082019050611cb25f830185611b3d565b611cbf6020830184611c90565b9392505050565b5f5ffd5b5f601f19601f8301169050919050565b7f4e487b71000000000000000000000000000000000000000000000000000000005f52604160045260245ffd5b611d1082611cca565b810181811067ffffffffffffffff82111715611d2f57611d2e611cda565b5b80604052505050565b5f611d41611736565b9050611d4d8282611d07565b919050565b5f8160070b9050919050565b611d6781611d52565b8114611d71575f5ffd5b50565b5f81519050611d8281611d5e565b92915050565b5f67ffffffffffffffff82169050919050565b611da481611d88565b8114611dae575f5ffd5b50565b5f81519050611dbf81611d9b565b92915050565b5f8160030b9050919050565b611dda81611dc5565b8114611de4575f5ffd5b50565b5f81519050611df581611dd1565b92915050565b5f81519050611e0981611747565b92915050565b5f60808284031215611e2457611e23611cc6565b5b611e2e6080611d38565b90505f611e3d84828501611d74565b5f830152506020611e5084828501611db1565b6020830152506040611e6484828501611de7565b6040830152506060611e7884828501611dfb565b60608301525092915050565b5f60808284031215611e9957611e9861173f565b5b5f611ea684828501611e0f565b91505092915050565b5f611eb982611dc5565b9150611ec483611dc5565b9250828202611ed281611dc5565b9150808214611ee457611ee3611b92565b5b5092915050565b5f8160011c9050919050565b5f5f8291508390505b6001851115611f4057808604811115611f1c57611f1b611b92565b5b6001851615611f2b5780820291505b8081029050611f3985611eeb565b9450611f00565b94509492505050565b5f82611f585760019050612013565b81611f65575f9050612013565b8160018114611f7b5760028114611f8557611fb4565b6001915050612013565b60ff841115611f9757611f96611b92565b5b8360020a915084821115611fae57611fad611b92565b5b50612013565b5060208310610133831016604e8410600b8410161715611fe95782820a905083811115611fe457611fe3611b92565b5b612013565b611ff68484846001611ef7565b9250905081840481111561200d5761200c611b92565b5b81810290505b9392505050565b5f60ff82169050919050565b5f61203082611705565b915061203b8361201a565b92506120687fffffffffffffffffffffffffffffffffffffffffffffffffffffffffffffffff8484611f49565b905092915050565b5f61207a82611705565b915061208583611705565b925082820190508082111561209d5761209c611b92565b5b92915050565b5f6120ad82611705565b91507fffffffffffffffffffffffffffffffffffffffffffffffffffffffffffffffff82036120df576120de611b92565b5b600182019050919050565b7f4e487b71000000000000000000000000000000000000000000000000000000005f52603260045260245ffdfea264697066735822122074e1db4f0096ad375a049945acc5b9ed984475a2b4350bbecb0ac023b9472fcc64736f6c634300081e0033","linkReferences":{}},"methodIdentifiers":{"discount1Year()":"8e16984e","discount2Years()":"63bb2635","discount3Years()":"2f45fc2b","discount4Years()":"865ebbb7","discount5PlusYears()":"923c2713","getDiscounts()":"fb5aeaef","getPrices()":"bd9a548b","owner()":"8da5cb5b","price(string,uint256,uint256)":"50e9a715","price(string,uint256,uint256,uint8)":"c92e996c","priceFor1Char()":"05fd2da0","priceFor2Char()":"a63fea45","priceFor3Char()":"7dc156c5","priceFor4Char()":"e6bc1596","priceFor5PlusChar()":"216ea17d","renounceOwnership()":"715018a6","setDiscounts(uint256,uint256,uint256,uint256,uint256)":"0b155ccc","setEthUsdPythPriceFeedId(bytes32)":"3081e21e","setMinPriceInWei(uint256)":"5c635a75","setPrices(uint256,uint256,uint256,uint256,uint256)":"7bc6ec1a","setPyth(address)":"ee22fd6f","transferOwnership(address)":"f2fde38b"},"id":53}