{"abi":[{"type":"constructor","inputs":[{"name":"registry_","type":"address","internalType":"contract LNS"},{"name":"owner_","type":"address","internalType":"address"},{"name":"baseNode_","type":"bytes32","internalType":"bytes32"},{"name":"tokenURI_","type":"string","internalType":"string"},{"name":"collectionURI_","type":"string","internalType":"string"}],"stateMutability":"nonpayable"},{"type":"function","name":"addController","inputs":[{"name":"controller","type":"address","internalType":"address"}],"outputs":[],"stateMutability":"nonpayable"},{"type":"function","name":"approve","inputs":[{"name":"to","type":"address","internalType":"address"},{"name":"tokenId","type":"uint256","internalType":"uint256"}],"outputs":[],"stateMutability":"nonpayable"},{"type":"function","name":"balanceOf","inputs":[{"name":"owner","type":"address","internalType":"address"}],"outputs":[{"name":"","type":"uint256","internalType":"uint256"}],"stateMutability":"view"},{"type":"function","name":"baseNode","inputs":[],"outputs":[{"name":"","type":"bytes32","internalType":"bytes32"}],"stateMutability":"view"},{"type":"function","name":"contractURI","inputs":[],"outputs":[{"name":"","type":"string","internalType":"string"}],"stateMutability":"view"},{"type":"function","name":"controllers","inputs":[{"name":"controller","type":"address","internalType":"address"}],"outputs":[{"name":"isApproved","type":"bool","internalType":"bool"}],"stateMutability":"view"},{"type":"function","name":"getApproved","inputs":[{"name":"tokenId","type":"uint256","internalType":"uint256"}],"outputs":[{"name":"","type":"address","internalType":"address"}],"stateMutability":"view"},{"type":"function","name":"isApprovedForAll","inputs":[{"name":"owner","type":"address","internalType":"address"},{"name":"operator","type":"address","internalType":"address"}],"outputs":[{"name":"","type":"bool","internalType":"bool"}],"stateMutability":"view"},{"type":"function","name":"isAvailable","inputs":[{"name":"id","type":"uint256","internalType":"uint256"}],"outputs":[{"name":"","type":"bool","internalType":"bool"}],"stateMutability":"view"},{"type":"function","name":"name","inputs":[],"outputs":[{"name":"","type":"string","internalType":"string"}],"stateMutability":"view"},{"type":"function","name":"nameExpires","inputs":[{"name":"node","type":"bytes32","internalType":"bytes32"}],"outputs":[{"name":"expiry","type":"uint256","internalType":"uint256"}],"stateMutability":"view"},{"type":"function","name":"owner","inputs":[],"outputs":[{"name":"","type":"address","internalType":"address"}],"stateMutability":"view"},{"type":"function","name":"ownerOf","inputs":[{"name":"tokenId","type":"uint256","internalType":"uint256"}],"outputs":[{"name":"","type":"address","internalType":"address"}],"stateMutability":"view"},{"type":"function","name":"registerWithRecord","inputs":[{"name":"id","type":"uint256","internalType":"uint256"},{"name":"owner","type":"address","internalType":"address"},{"name":"duration","type":"uint256","internalType":"uint256"},{"name":"resolver","type":"address","internalType":"address"},{"name":"ttl","type":"uint64","internalType":"uint64"}],"outputs":[{"name":"","type":"uint256","internalType":"uint256"}],"stateMutability":"nonpayable"},{"type":"function","name":"registry","inputs":[],"outputs":[{"name":"","type":"address","internalType":"contract LNS"}],"stateMutability":"view"},{"type":"function","name":"removeController","inputs":[{"name":"controller","type":"address","internalType":"address"}],"outputs":[],"stateMutability":"nonpayable"},{"type":"function","name":"renew","inputs":[{"name":"id","type":"uint256","internalType":"uint256"},{"name":"duration","type":"uint256","internalType":"uint256"}],"outputs":[{"name":"","type":"uint256","internalType":"uint256"}],"stateMutability":"nonpayable"},{"type":"function","name":"renounceOwnership","inputs":[],"outputs":[],"stateMutability":"nonpayable"},{"type":"function","name":"safeTransferFrom","inputs":[{"name":"from","type":"address","internalType":"address"},{"name":"to","type":"address","internalType":"address"},{"name":"tokenId","type":"uint256","internalType":"uint256"}],"outputs":[],"stateMutability":"nonpayable"},{"type":"function","name":"safeTransferFrom","inputs":[{"name":"from","type":"address","internalType":"address"},{"name":"to","type":"address","internalType":"address"},{"name":"tokenId","type":"uint256","internalType":"uint256"},{"name":"data","type":"bytes","internalType":"bytes"}],"outputs":[],"stateMutability":"nonpayable"},{"type":"function","name":"setApprovalForAll","inputs":[{"name":"operator","type":"address","internalType":"address"},{"name":"approved","type":"bool","internalType":"bool"}],"outputs":[],"stateMutability":"nonpayable"},{"type":"function","name":"setContractURI","inputs":[{"name":"collectionURI_","type":"string","internalType":"string"}],"outputs":[],"stateMutability":"nonpayable"},{"type":"function","name":"setResolver","inputs":[{"name":"resolver","type":"address","internalType":"address"}],"outputs":[],"stateMutability":"nonpayable"},{"type":"function","name":"setTokenURI","inputs":[{"name":"baseURI_","type":"string","internalType":"string"}],"outputs":[],"stateMutability":"nonpayable"},{"type":"function","name":"supportsInterface","inputs":[{"name":"interfaceID","type":"bytes4","internalType":"bytes4"}],"outputs":[{"name":"","type":"bool","internalType":"bool"}],"stateMutability":"pure"},{"type":"function","name":"symbol","inputs":[],"outputs":[{"name":"","type":"string","internalType":"string"}],"stateMutability":"view"},{"type":"function","name":"tokenURI","inputs":[{"name":"tokenId","type":"uint256","internalType":"uint256"}],"outputs":[{"name":"","type":"string","internalType":"string"}],"stateMutability":"view"},{"type":"function","name":"transferFrom","inputs":[{"name":"from","type":"address","internalType":"address"},{"name":"to","type":"address","internalType":"address"},{"name":"tokenId","type":"uint256","internalType":"uint256"}],"outputs":[],"stateMutability":"nonpayable"},{"type":"function","name":"transferOwnership","inputs":[{"name":"newOwner","type":"address","internalType":"address"}],"outputs":[],"stateMutability":"nonpayable"},{"type":"event","name":"Approval","inputs":[{"name":"owner","type":"address","indexed":true,"internalType":"address"},{"name":"approved","type":"address","indexed":true,"internalType":"address"},{"name":"tokenId","type":"uint256","indexed":true,"internalType":"uint256"}],"anonymous":false},{"type":"event","name":"ApprovalForAll","inputs":[{"name":"owner","type":"address","indexed":true,"internalType":"address"},{"name":"operator","type":"address","indexed":true,"internalType":"address"},{"name":"approved","type":"bool","indexed":false,"internalType":"bool"}],"anonymous":false},{"type":"event","name":"BatchMetadataUpdate","inputs":[{"name":"_fromTokenId","type":"uint256","indexed":false,"internalType":"uint256"},{"name":"_toTokenId","type":"uint256","indexed":false,"internalType":"uint256"}],"anonymous":false},{"type":"event","name":"ContractURIUpdated","inputs":[],"anonymous":false},{"type":"event","name":"ControllerAdded","inputs":[{"name":"controller","type":"address","indexed":true,"internalType":"address"}],"anonymous":false},{"type":"event","name":"ControllerRemoved","inputs":[{"name":"controller","type":"address","indexed":true,"internalType":"address"}],"anonymous":false},{"type":"event","name":"NameRegistered","inputs":[{"name":"id","type":"uint256","indexed":true,"internalType":"uint256"},{"name":"owner","type":"address","indexed":true,"internalType":"address"},{"name":"expires","type":"uint256","indexed":false,"internalType":"uint256"}],"anonymous":false},{"type":"event","name":"NameRegisteredWithRecord","inputs":[{"name":"id","type":"uint256","indexed":true,"internalType":"uint256"},{"name":"owner","type":"address","indexed":true,"internalType":"address"},{"name":"expires","type":"uint256","indexed":false,"internalType":"uint256"},{"name":"resolver","type":"address","indexed":false,"internalType":"address"},{"name":"ttl","type":"uint64","indexed":false,"internalType":"uint64"}],"anonymous":false},{"type":"event","name":"NameRenewed","inputs":[{"name":"id","type":"uint256","indexed":true,"internalType":"uint256"},{"name":"expires","type":"uint256","indexed":false,"internalType":"uint256"}],"anonymous":false},{"type":"event","name":"OwnershipTransferred","inputs":[{"name":"previousOwner","type":"address","indexed":true,"internalType":"address"},{"name":"newOwner","type":"address","indexed":true,"internalType":"address"}],"anonymous":false},{"type":"event","name":"Transfer","inputs":[{"name":"from","type":"address","indexed":true,"internalType":"address"},{"name":"to","type":"address","indexed":true,"internalType":"address"},{"name":"tokenId","type":"uint256","indexed":true,"internalType":"uint256"}],"anonymous":false},{"type":"error","name":"ERC721IncorrectOwner","inputs":[{"name":"sender","type":"address","internalType":"address"},{"name":"tokenId","type":"uint256","internalType":"uint256"},{"name":"owner","type":"address","internalType":"address"}]},{"type":"error","name":"ERC721InsufficientApproval","inputs":[{"name":"operator","type":"address","internalType":"address"},{"name":"tokenId","type":"uint256","internalType":"uint256"}]},{"type":"error","name":"ERC721InvalidApprover","inputs":[{"name":"approver","type":"address","internalType":"address"}]},{"type":"error","name":"ERC721InvalidOperator","inputs":[{"name":"operator","type":"address","internalType":"address"}]},{"type":"error","name":"ERC721InvalidOwner","inputs":[{"name":"owner","type":"address","internalType":"address"}]},{"type":"error","name":"ERC721InvalidReceiver","inputs":[{"name":"receiver","type":"address","internalType":"address"}]},{"type":"error","name":"ERC721InvalidSender","inputs":[{"name":"sender","type":"address","internalType":"address"}]},{"type":"error","name":"ERC721NonexistentToken","inputs":[{"name":"tokenId","type":"uint256","internalType":"uint256"}]},{"type":"error","name":"Expired","inputs":[{"name":"tokenId","type":"uint256","internalType":"uint256"}]},{"type":"error","name":"NonexistentToken","inputs":[{"name":"tokenId","type":"uint256","internalType":"uint256"}]},{"type":"error","name":"NotApprovedOwner","inputs":[{"name":"tokenId","type":"uint256","internalType":"uint256"},{"name":"sender","type":"address","internalType":"address"}]},{"type":"error","name":"NotAvailable","inputs":[{"name":"tokenId","type":"uint256","internalType":"uint256"}]},{"type":"error","name":"NotRegisteredOrInGrace","inputs":[{"name":"tokenId","type":"uint256","internalType":"uint256"}]},{"type":"error","name":"OnlyController","inputs":[]},{"type":"error","name":"OwnableInvalidOwner","inputs":[{"name":"owner","type":"address","internalType":"address"}]},{"type":"error","name":"OwnableUnauthorizedAccount","inputs":[{"name":"account","type":"address","internalType":"address"}]},{"type":"error","name":"RegistrarNotLive","inputs":[]}],"bytecode":{"object":"0x60c060405234801561000f575f5ffd5b50604051613e4b380380613e4b8339818101604052810190610031919061048c565b836040518060400160405280600881526020017f4c69746e616d65730000000000000000000000000000000000000000000000008152506040518060400160405280600481526020017ff09f94a500000000000000000000000000000000000000000000000000000000815250815f90816100ac919061074b565b5080600190816100bc919061074b565b5050505f73ffffffffffffffffffffffffffffffffffffffff168173ffffffffffffffffffffffffffffffffffffffff160361012f575f6040517f1e4fbdf70000000000000000000000000000000000000000000000000000000081526004016101269190610829565b60405180910390fd5b61013e816101b460201b60201c565b5061014e846101b460201b60201c565b8473ffffffffffffffffffffffffffffffffffffffff1660808173ffffffffffffffffffffffffffffffffffffffff16815250508260a081815250508160089081610199919061074b565b5080600990816101a9919061074b565b505050505050610842565b5f60065f9054906101000a900473ffffffffffffffffffffffffffffffffffffffff1690508160065f6101000a81548173ffffffffffffffffffffffffffffffffffffffff021916908373ffffffffffffffffffffffffffffffffffffffff1602179055508173ffffffffffffffffffffffffffffffffffffffff168173ffffffffffffffffffffffffffffffffffffffff167f8be0079c531659141344cd1fd0a4f28419497f9722a3daafe3b4186f6b6457e060405160405180910390a35050565b5f604051905090565b5f5ffd5b5f5ffd5b5f73ffffffffffffffffffffffffffffffffffffffff82169050919050565b5f6102b182610288565b9050919050565b5f6102c2826102a7565b9050919050565b6102d2816102b8565b81146102dc575f5ffd5b50565b5f815190506102ed816102c9565b92915050565b6102fc816102a7565b8114610306575f5ffd5b50565b5f81519050610317816102f3565b92915050565b5f819050919050565b61032f8161031d565b8114610339575f5ffd5b50565b5f8151905061034a81610326565b92915050565b5f5ffd5b5f5ffd5b5f601f19601f8301169050919050565b7f4e487b71000000000000000000000000000000000000000000000000000000005f52604160045260245ffd5b61039e82610358565b810181811067ffffffffffffffff821117156103bd576103bc610368565b5b80604052505050565b5f6103cf610277565b90506103db8282610395565b919050565b5f67ffffffffffffffff8211156103fa576103f9610368565b5b61040382610358565b9050602081019050919050565b8281835e5f83830152505050565b5f61043061042b846103e0565b6103c6565b90508281526020810184848401111561044c5761044b610354565b5b610457848285610410565b509392505050565b5f82601f83011261047357610472610350565b5b815161048384826020860161041e565b91505092915050565b5f5f5f5f5f60a086880312156104a5576104a4610280565b5b5f6104b2888289016102df565b95505060206104c388828901610309565b94505060406104d48882890161033c565b935050606086015167ffffffffffffffff8111156104f5576104f4610284565b5b6105018882890161045f565b925050608086015167ffffffffffffffff81111561052257610521610284565b5b61052e8882890161045f565b9150509295509295909350565b5f81519050919050565b7f4e487b71000000000000000000000000000000000000000000000000000000005f52602260045260245ffd5b5f600282049050600182168061058957607f821691505b60208210810361059c5761059b610545565b5b50919050565b5f819050815f5260205f209050919050565b5f6020601f8301049050919050565b5f82821b905092915050565b5f600883026105fe7fffffffffffffffffffffffffffffffffffffffffffffffffffffffffffffffff826105c3565b61060886836105c3565b95508019841693508086168417925050509392505050565b5f819050919050565b5f819050919050565b5f61064c61064761064284610620565b610629565b610620565b9050919050565b5f819050919050565b61066583610632565b61067961067182610653565b8484546105cf565b825550505050565b5f5f905090565b610690610681565b61069b81848461065c565b505050565b5b818110156106be576106b35f82610688565b6001810190506106a1565b5050565b601f821115610703576106d4816105a2565b6106dd846105b4565b810160208510156106ec578190505b6107006106f8856105b4565b8301826106a0565b50505b505050565b5f82821c905092915050565b5f6107235f1984600802610708565b1980831691505092915050565b5f61073b8383610714565b9150826002028217905092915050565b6107548261053b565b67ffffffffffffffff81111561076d5761076c610368565b5b6107778254610572565b6107828282856106c2565b5f60209050601f8311600181146107b3575f84156107a1578287015190505b6107ab8582610730565b865550610812565b601f1984166107c1866105a2565b5f5b828110156107e8578489015182556001820191506020850194506020810190506107c3565b868310156108055784890151610801601f891682610714565b8355505b6001600288020188555050505b505050505050565b610823816102a7565b82525050565b5f60208201905061083c5f83018461081a565b92915050565b60805160a0516135a26108a95f395f81816108150152818161092d01528181610d310152818161103f0152818161124a015261142801525f81816107d9015281816108f101528181610ae401528181610cf50152818161120e01526113ec01526135a25ff3fe608060405234801561000f575f5ffd5b50600436106101cd575f3560e01c8063938e3d7b11610102578063da8c229e116100a0578063e985e9c51161006f578063e985e9c51461053b578063eac2aa091461056b578063f2fde38b1461059b578063f6a74ed7146105b7576101cd565b8063da8c229e146104b3578063ddf7fcb0146104e3578063e0df5b6f14610501578063e8a3d4851461051d576101cd565b8063a7fc7a07116100dc578063a7fc7a071461041b578063b88d4fde14610437578063c475abff14610453578063c87b56dd14610483576101cd565b8063938e3d7b146103c557806395d89b41146103e1578063a22cb465146103ff576101cd565b80634e543b261161016f578063715018a611610149578063715018a61461034f578063727e4ea7146103595780637b103999146103895780638da5cb5b146103a7576101cd565b80634e543b26146102d35780636352211e146102ef57806370a082311461031f576101cd565b8063095ea7b3116101ab578063095ea7b31461024f57806323b872dd1461026b5780633a178d991461028757806342842e0e146102b7576101cd565b806301ffc9a7146101d157806306fdde0314610201578063081812fc1461021f575b5f5ffd5b6101eb60048036038101906101e69190612667565b6105d3565b6040516101f891906126ac565b60405180910390f35b61020961070c565b6040516102169190612735565b60405180910390f35b61023960048036038101906102349190612788565b61079b565b60405161024691906127f2565b60405180910390f35b61026960048036038101906102649190612835565b6107b6565b005b61028560048036038101906102809190612873565b6107cc565b005b6102a1600480360381019061029c9190612788565b61089c565b6040516102ae91906126ac565b60405180910390f35b6102d160048036038101906102cc9190612873565b6108c8565b005b6102ed60048036038101906102e891906128c3565b6108e7565b005b61030960048036038101906103049190612788565b61099a565b60405161031691906127f2565b60405180910390f35b610339600480360381019061033491906128c3565b610a04565b60405161034691906128fd565b60405180910390f35b610357610aba565b005b610373600480360381019061036e9190612949565b610acd565b60405161038091906128fd565b60405180910390f35b610391610ae2565b60405161039e91906129cf565b60405180910390f35b6103af610b06565b6040516103bc91906127f2565b60405180910390f35b6103df60048036038101906103da9190612b14565b610b2e565b005b6103e9610b75565b6040516103f69190612735565b60405180910390f35b61041960048036038101906104149190612b85565b610c05565b005b610435600480360381019061043091906128c3565b610c1b565b005b610451600480360381019061044c9190612c61565b610cbe565b005b61046d60048036038101906104689190612ce1565b610cdb565b60405161047a91906128fd565b60405180910390f35b61049d60048036038101906104989190612788565b610f4a565b6040516104aa9190612735565b60405180910390f35b6104cd60048036038101906104c891906128c3565b611020565b6040516104da91906126ac565b60405180910390f35b6104eb61103d565b6040516104f89190612d2e565b60405180910390f35b61051b60048036038101906105169190612b14565b611061565b005b6105256110d6565b6040516105329190612735565b60405180910390f35b61055560048036038101906105509190612d47565b611166565b60405161056291906126ac565b60405180910390f35b61058560048036038101906105809190612dc2565b6111f4565b60405161059291906128fd565b60405180910390f35b6105b560048036038101906105b091906128c3565b6114fb565b005b6105d160048036038101906105cc91906128c3565b61157f565b005b5f7f01ffc9a7000000000000000000000000000000000000000000000000000000007bffffffffffffffffffffffffffffffffffffffffffffffffffffffff1916827bffffffffffffffffffffffffffffffffffffffffffffffffffffffff1916148061069d57507f80ac58cd000000000000000000000000000000000000000000000000000000007bffffffffffffffffffffffffffffffffffffffffffffffffffffffff1916827bffffffffffffffffffffffffffffffffffffffffffffffffffffffff1916145b8061070557507f28ed4f6c74b219a5819055dfbcd2f1837c046c364cf01fabb6799e4f440d6f137bffffffffffffffffffffffffffffffffffffffffffffffffffffffff1916827bffffffffffffffffffffffffffffffffffffffffffffffffffffffff1916145b9050919050565b60605f805461071a90612e66565b80601f016020809104026020016040519081016040528092919081815260200182805461074690612e66565b80156107915780601f1061076857610100808354040283529160200191610791565b820191905f5260205f20905b81548152906001019060200180831161077457829003601f168201915b5050505050905090565b5f6107a582611621565b506107af826116a7565b9050919050565b6107c882826107c36116e0565b6116e7565b5050565b6107d78383836116f9565b7f000000000000000000000000000000000000000000000000000000000000000073ffffffffffffffffffffffffffffffffffffffff166306ab59237f0000000000000000000000000000000000000000000000000000000000000000835f1b856040518463ffffffff1660e01b815260040161085693929190612e96565b6020604051808303815f875af1158015610872573d5f5f3e3d5ffd5b505050506040513d601f19601f820116820180604052508101906108969190612edf565b50505050565b5f4262278d0060075f855f1b81526020019081526020015f20546108c09190612f37565b109050919050565b6108e283838360405180602001604052805f815250610cbe565b505050565b6108ef6117f8565b7f000000000000000000000000000000000000000000000000000000000000000073ffffffffffffffffffffffffffffffffffffffff16631896f70a7f0000000000000000000000000000000000000000000000000000000000000000836040518363ffffffff1660e01b815260040161096a929190612f6a565b5f604051808303815f87803b158015610981575f5ffd5b505af1158015610993573d5f5f3e3d5ffd5b5050505050565b5f814260075f835f1b81526020019081526020015f2054116109f357806040517ff80dbaea0000000000000000000000000000000000000000000000000000000081526004016109ea91906128fd565b60405180910390fd5b6109fc8361187f565b915050919050565b5f5f73ffffffffffffffffffffffffffffffffffffffff168273ffffffffffffffffffffffffffffffffffffffff1603610a75575f6040517f89c62b64000000000000000000000000000000000000000000000000000000008152600401610a6c91906127f2565b60405180910390fd5b60035f8373ffffffffffffffffffffffffffffffffffffffff1673ffffffffffffffffffffffffffffffffffffffff1681526020019081526020015f20549050919050565b610ac26117f8565b610acb5f611890565b565b6007602052805f5260405f205f915090505481565b7f000000000000000000000000000000000000000000000000000000000000000081565b5f60065f9054906101000a900473ffffffffffffffffffffffffffffffffffffffff16905090565b610b366117f8565b8060099081610b459190613128565b507fa5d4097edda6d87cb9329af83fb3712ef77eeb13738ffe43cc35a4ce305ad96260405160405180910390a150565b606060018054610b8490612e66565b80601f0160208091040260200160405190810160405280929190818152602001828054610bb090612e66565b8015610bfb5780601f10610bd257610100808354040283529160200191610bfb565b820191905f5260205f20905b815481529060010190602001808311610bde57829003601f168201915b5050505050905090565b610c17610c106116e0565b8383611953565b5050565b610c236117f8565b6001600a5f8373ffffffffffffffffffffffffffffffffffffffff1673ffffffffffffffffffffffffffffffffffffffff1681526020019081526020015f205f6101000a81548160ff0219169083151502179055508073ffffffffffffffffffffffffffffffffffffffff167f0a8bb31534c0ed46f380cb867bd5c803a189ced9a764e30b3a4991a9901d747460405160405180910390a250565b610cc98484846107cc565b610cd584848484611abc565b50505050565b5f3073ffffffffffffffffffffffffffffffffffffffff167f000000000000000000000000000000000000000000000000000000000000000073ffffffffffffffffffffffffffffffffffffffff166302571be37f00000000000000000000000000000000000000000000000000000000000000006040518263ffffffff1660e01b8152600401610d6c9190612d2e565b602060405180830381865afa158015610d87573d5f5f3e3d5ffd5b505050506040513d601f19601f82011682018060405250810190610dab919061320b565b73ffffffffffffffffffffffffffffffffffffffff1614610df8576040517fc2c91ee800000000000000000000000000000000000000000000000000000000815260040160405180910390fd5b600a5f3373ffffffffffffffffffffffffffffffffffffffff1673ffffffffffffffffffffffffffffffffffffffff1681526020019081526020015f205f9054906101000a900460ff16610e78576040517f5990781300000000000000000000000000000000000000000000000000000000815260040160405180910390fd5b5f60075f855f1b81526020019081526020015f205490504262278d0082610e9f9190612f37565b1015610ee257836040517f7b795970000000000000000000000000000000000000000000000000000000008152600401610ed991906128fd565b60405180910390fd5b8281610eee9190612f37565b90508060075f865f1b81526020019081526020015f2081905550837f9b87a00e30f1ac65d898f070f8a3488fe60517182d0a2098e1b4b93a54aa9bd682604051610f3891906128fd565b60405180910390a28091505092915050565b60605f73ffffffffffffffffffffffffffffffffffffffff16610f6c83611c6e565b73ffffffffffffffffffffffffffffffffffffffff1603610fc457816040517f2f4163e7000000000000000000000000000000000000000000000000000000008152600401610fbb91906128fd565b60405180910390fd5b5f60088054610fd290612e66565b905011610fed5760405180602001604052805f815250611019565b6008610ff883611ca7565b6040516020016110099291906132f0565b6040516020818303038152906040525b9050919050565b600a602052805f5260405f205f915054906101000a900460ff1681565b7f000000000000000000000000000000000000000000000000000000000000000081565b6110696117f8565b80600890816110789190613128565b507f6bd5c950a8d8df17f772f5af37cb3655737899cbf903264b9795592da439661c60017fffffffffffffffffffffffffffffffffffffffffffffffffffffffffffffffff6040516110cb92919061334c565b60405180910390a150565b6060600980546110e590612e66565b80601f016020809104026020016040519081016040528092919081815260200182805461111190612e66565b801561115c5780601f106111335761010080835404028352916020019161115c565b820191905f5260205f20905b81548152906001019060200180831161113f57829003601f168201915b5050505050905090565b5f60055f8473ffffffffffffffffffffffffffffffffffffffff1673ffffffffffffffffffffffffffffffffffffffff1681526020019081526020015f205f8373ffffffffffffffffffffffffffffffffffffffff1673ffffffffffffffffffffffffffffffffffffffff1681526020019081526020015f205f9054906101000a900460ff16905092915050565b5f3073ffffffffffffffffffffffffffffffffffffffff167f000000000000000000000000000000000000000000000000000000000000000073ffffffffffffffffffffffffffffffffffffffff166302571be37f00000000000000000000000000000000000000000000000000000000000000006040518263ffffffff1660e01b81526004016112859190612d2e565b602060405180830381865afa1580156112a0573d5f5f3e3d5ffd5b505050506040513d601f19601f820116820180604052508101906112c4919061320b565b73ffffffffffffffffffffffffffffffffffffffff1614611311576040517fc2c91ee800000000000000000000000000000000000000000000000000000000815260040160405180910390fd5b600a5f3373ffffffffffffffffffffffffffffffffffffffff1673ffffffffffffffffffffffffffffffffffffffff1681526020019081526020015f205f9054906101000a900460ff16611391576040517f5990781300000000000000000000000000000000000000000000000000000000815260040160405180910390fd5b8561139b8161089c565b6113dc57806040517f0551b8de0000000000000000000000000000000000000000000000000000000081526004016113d391906128fd565b60405180910390fd5b5f6113e8888888611d71565b90507f000000000000000000000000000000000000000000000000000000000000000073ffffffffffffffffffffffffffffffffffffffff16635ef2c7f07f00000000000000000000000000000000000000000000000000000000000000008a5f1b8a89896040518663ffffffff1660e01b815260040161146d959493929190613382565b5f604051808303815f87803b158015611484575f5ffd5b505af1158015611496573d5f5f3e3d5ffd5b505050508673ffffffffffffffffffffffffffffffffffffffff16887ffd724d251af149ea2929b9061ddab2bb31e2d87778cc0acfa1d68add62e222e88388886040516114e5939291906133d3565b60405180910390a3809250505095945050505050565b6115036117f8565b5f73ffffffffffffffffffffffffffffffffffffffff168173ffffffffffffffffffffffffffffffffffffffff1603611573575f6040517f1e4fbdf700000000000000000000000000000000000000000000000000000000815260040161156a91906127f2565b60405180910390fd5b61157c81611890565b50565b6115876117f8565b5f600a5f8373ffffffffffffffffffffffffffffffffffffffff1673ffffffffffffffffffffffffffffffffffffffff1681526020019081526020015f205f6101000a81548160ff0219169083151502179055508073ffffffffffffffffffffffffffffffffffffffff167f33d83959be2573f5453b12eb9d43b3499bc57d96bd2f067ba44803c859e8111360405160405180910390a250565b5f5f61162c83611c6e565b90505f73ffffffffffffffffffffffffffffffffffffffff168173ffffffffffffffffffffffffffffffffffffffff160361169e57826040517f7e27328900000000000000000000000000000000000000000000000000000000815260040161169591906128fd565b60405180910390fd5b80915050919050565b5f60045f8381526020019081526020015f205f9054906101000a900473ffffffffffffffffffffffffffffffffffffffff169050919050565b5f33905090565b6116f48383836001611dee565b505050565b5f73ffffffffffffffffffffffffffffffffffffffff168273ffffffffffffffffffffffffffffffffffffffff1603611769575f6040517f64a0ae9200000000000000000000000000000000000000000000000000000000815260040161176091906127f2565b60405180910390fd5b5f61177c83836117776116e0565b611fad565b90508373ffffffffffffffffffffffffffffffffffffffff168173ffffffffffffffffffffffffffffffffffffffff16146117f2578382826040517f64283d7b0000000000000000000000000000000000000000000000000000000081526004016117e993929190613408565b60405180910390fd5b50505050565b6118006116e0565b73ffffffffffffffffffffffffffffffffffffffff1661181e610b06565b73ffffffffffffffffffffffffffffffffffffffff161461187d576118416116e0565b6040517f118cdaa700000000000000000000000000000000000000000000000000000000815260040161187491906127f2565b60405180910390fd5b565b5f61188982611621565b9050919050565b5f60065f9054906101000a900473ffffffffffffffffffffffffffffffffffffffff1690508160065f6101000a81548173ffffffffffffffffffffffffffffffffffffffff021916908373ffffffffffffffffffffffffffffffffffffffff1602179055508173ffffffffffffffffffffffffffffffffffffffff168173ffffffffffffffffffffffffffffffffffffffff167f8be0079c531659141344cd1fd0a4f28419497f9722a3daafe3b4186f6b6457e060405160405180910390a35050565b5f73ffffffffffffffffffffffffffffffffffffffff168273ffffffffffffffffffffffffffffffffffffffff16036119c357816040517f5b08ba180000000000000000000000000000000000000000000000000000000081526004016119ba91906127f2565b60405180910390fd5b8060055f8573ffffffffffffffffffffffffffffffffffffffff1673ffffffffffffffffffffffffffffffffffffffff1681526020019081526020015f205f8473ffffffffffffffffffffffffffffffffffffffff1673ffffffffffffffffffffffffffffffffffffffff1681526020019081526020015f205f6101000a81548160ff0219169083151502179055508173ffffffffffffffffffffffffffffffffffffffff168373ffffffffffffffffffffffffffffffffffffffff167f17307eab39ab6107e8899845ad3d59bd9653f200f220920489ca2b5937696c3183604051611aaf91906126ac565b60405180910390a3505050565b5f8373ffffffffffffffffffffffffffffffffffffffff163b1115611c68578273ffffffffffffffffffffffffffffffffffffffff1663150b7a02611aff6116e0565b8685856040518563ffffffff1660e01b8152600401611b21949392919061348f565b6020604051808303815f875af1925050508015611b5c57506040513d601f19601f82011682018060405250810190611b5991906134ed565b60015b611bdd573d805f8114611b8a576040519150601f19603f3d011682016040523d82523d5f602084013e611b8f565b606091505b505f815103611bd557836040517f64a0ae92000000000000000000000000000000000000000000000000000000008152600401611bcc91906127f2565b60405180910390fd5b805181602001fd5b63150b7a0260e01b7bffffffffffffffffffffffffffffffffffffffffffffffffffffffff1916817bffffffffffffffffffffffffffffffffffffffffffffffffffffffff191614611c6657836040517f64a0ae92000000000000000000000000000000000000000000000000000000008152600401611c5d91906127f2565b60405180910390fd5b505b50505050565b5f60025f8381526020019081526020015f205f9054906101000a900473ffffffffffffffffffffffffffffffffffffffff169050919050565b60605f6001611cb5846121b8565b0190505f8167ffffffffffffffff811115611cd357611cd26129f0565b5b6040519080825280601f01601f191660200182016040528015611d055781602001600182028036833780820191505090505b5090505f82602001820190505b600115611d66578080600190039150507f3031323334353637383961626364656600000000000000000000000000000000600a86061a8153600a8581611d5b57611d5a613518565b5b0494505f8503611d12575b819350505050919050565b5f8142611d7e9190612f37565b90508060075f865f1b81526020019081526020015f20819055505f73ffffffffffffffffffffffffffffffffffffffff16611db885611c6e565b73ffffffffffffffffffffffffffffffffffffffff1614611ddd57611ddc84612309565b5b611de7838561238b565b9392505050565b8080611e2657505f73ffffffffffffffffffffffffffffffffffffffff168273ffffffffffffffffffffffffffffffffffffffff1614155b15611f58575f611e3584611621565b90505f73ffffffffffffffffffffffffffffffffffffffff168373ffffffffffffffffffffffffffffffffffffffff1614158015611e9f57508273ffffffffffffffffffffffffffffffffffffffff168173ffffffffffffffffffffffffffffffffffffffff1614155b8015611eb25750611eb08184611166565b155b15611ef457826040517fa9fbf51f000000000000000000000000000000000000000000000000000000008152600401611eeb91906127f2565b60405180910390fd5b8115611f5657838573ffffffffffffffffffffffffffffffffffffffff168273ffffffffffffffffffffffffffffffffffffffff167f8c5be1e5ebec7d5bd14f71427d1e84f3dd0314c0f7b2291e5b200ac8c7c3b92560405160405180910390a45b505b8360045f8581526020019081526020015f205f6101000a81548173ffffffffffffffffffffffffffffffffffffffff021916908373ffffffffffffffffffffffffffffffffffffffff16021790555050505050565b5f5f611fb884611c6e565b90505f73ffffffffffffffffffffffffffffffffffffffff168373ffffffffffffffffffffffffffffffffffffffff1614611ff957611ff881848661247e565b5b5f73ffffffffffffffffffffffffffffffffffffffff168173ffffffffffffffffffffffffffffffffffffffff1614612084576120385f855f5f611dee565b600160035f8373ffffffffffffffffffffffffffffffffffffffff1673ffffffffffffffffffffffffffffffffffffffff1681526020019081526020015f205f82825403925050819055505b5f73ffffffffffffffffffffffffffffffffffffffff168573ffffffffffffffffffffffffffffffffffffffff161461210357600160035f8773ffffffffffffffffffffffffffffffffffffffff1673ffffffffffffffffffffffffffffffffffffffff1681526020019081526020015f205f82825401925050819055505b8460025f8681526020019081526020015f205f6101000a81548173ffffffffffffffffffffffffffffffffffffffff021916908373ffffffffffffffffffffffffffffffffffffffff160217905550838573ffffffffffffffffffffffffffffffffffffffff168273ffffffffffffffffffffffffffffffffffffffff167fddf252ad1be2c89b69c2b068fc378daa952ba7f163c4a11628f55a4df523b3ef60405160405180910390a4809150509392505050565b5f5f5f90507a184f03e93ff9f4daa797ed6e38ed64bf6a1f0100000000000000008310612214577a184f03e93ff9f4daa797ed6e38ed64bf6a1f010000000000000000838161220a57612209613518565b5b0492506040810190505b6d04ee2d6d415b85acef81000000008310612251576d04ee2d6d415b85acef8100000000838161224757612246613518565b5b0492506020810190505b662386f26fc10000831061228057662386f26fc10000838161227657612275613518565b5b0492506010810190505b6305f5e10083106122a9576305f5e100838161229f5761229e613518565b5b0492506008810190505b61271083106122ce5761271083816122c4576122c3613518565b5b0492506004810190505b606483106122f157606483816122e7576122e6613518565b5b0492506002810190505b600a8310612300576001810190505b80915050919050565b5f6123155f835f611fad565b90505f73ffffffffffffffffffffffffffffffffffffffff168173ffffffffffffffffffffffffffffffffffffffff160361238757816040517f7e27328900000000000000000000000000000000000000000000000000000000815260040161237e91906128fd565b60405180910390fd5b5050565b5f73ffffffffffffffffffffffffffffffffffffffff168273ffffffffffffffffffffffffffffffffffffffff16036123fb575f6040517f64a0ae920000000000000000000000000000000000000000000000000000000081526004016123f291906127f2565b60405180910390fd5b5f61240783835f611fad565b90505f73ffffffffffffffffffffffffffffffffffffffff168173ffffffffffffffffffffffffffffffffffffffff1614612479575f6040517f73c6ac6e00000000000000000000000000000000000000000000000000000000815260040161247091906127f2565b60405180910390fd5b505050565b612489838383612541565b61253c575f73ffffffffffffffffffffffffffffffffffffffff168373ffffffffffffffffffffffffffffffffffffffff16036124fd57806040517f7e2732890000000000000000000000000000000000000000000000000000000081526004016124f491906128fd565b60405180910390fd5b81816040517f177e802f000000000000000000000000000000000000000000000000000000008152600401612533929190613545565b60405180910390fd5b505050565b5f5f73ffffffffffffffffffffffffffffffffffffffff168373ffffffffffffffffffffffffffffffffffffffff16141580156125f857508273ffffffffffffffffffffffffffffffffffffffff168473ffffffffffffffffffffffffffffffffffffffff1614806125b957506125b88484611166565b5b806125f757508273ffffffffffffffffffffffffffffffffffffffff166125df836116a7565b73ffffffffffffffffffffffffffffffffffffffff16145b5b90509392505050565b5f604051905090565b5f5ffd5b5f5ffd5b5f7fffffffff0000000000000000000000000000000000000000000000000000000082169050919050565b61264681612612565b8114612650575f5ffd5b50565b5f813590506126618161263d565b92915050565b5f6020828403121561267c5761267b61260a565b5b5f61268984828501612653565b91505092915050565b5f8115159050919050565b6126a681612692565b82525050565b5f6020820190506126bf5f83018461269d565b92915050565b5f81519050919050565b5f82825260208201905092915050565b8281835e5f83830152505050565b5f601f19601f8301169050919050565b5f612707826126c5565b61271181856126cf565b93506127218185602086016126df565b61272a816126ed565b840191505092915050565b5f6020820190508181035f83015261274d81846126fd565b905092915050565b5f819050919050565b61276781612755565b8114612771575f5ffd5b50565b5f813590506127828161275e565b92915050565b5f6020828403121561279d5761279c61260a565b5b5f6127aa84828501612774565b91505092915050565b5f73ffffffffffffffffffffffffffffffffffffffff82169050919050565b5f6127dc826127b3565b9050919050565b6127ec816127d2565b82525050565b5f6020820190506128055f8301846127e3565b92915050565b612814816127d2565b811461281e575f5ffd5b50565b5f8135905061282f8161280b565b92915050565b5f5f6040838503121561284b5761284a61260a565b5b5f61285885828601612821565b925050602061286985828601612774565b9150509250929050565b5f5f5f6060848603121561288a5761288961260a565b5b5f61289786828701612821565b93505060206128a886828701612821565b92505060406128b986828701612774565b9150509250925092565b5f602082840312156128d8576128d761260a565b5b5f6128e584828501612821565b91505092915050565b6128f781612755565b82525050565b5f6020820190506129105f8301846128ee565b92915050565b5f819050919050565b61292881612916565b8114612932575f5ffd5b50565b5f813590506129438161291f565b92915050565b5f6020828403121561295e5761295d61260a565b5b5f61296b84828501612935565b91505092915050565b5f819050919050565b5f61299761299261298d846127b3565b612974565b6127b3565b9050919050565b5f6129a88261297d565b9050919050565b5f6129b98261299e565b9050919050565b6129c9816129af565b82525050565b5f6020820190506129e25f8301846129c0565b92915050565b5f5ffd5b5f5ffd5b7f4e487b71000000000000000000000000000000000000000000000000000000005f52604160045260245ffd5b612a26826126ed565b810181811067ffffffffffffffff82111715612a4557612a446129f0565b5b80604052505050565b5f612a57612601565b9050612a638282612a1d565b919050565b5f67ffffffffffffffff821115612a8257612a816129f0565b5b612a8b826126ed565b9050602081019050919050565b828183375f83830152505050565b5f612ab8612ab384612a68565b612a4e565b905082815260208101848484011115612ad457612ad36129ec565b5b612adf848285612a98565b509392505050565b5f82601f830112612afb57612afa6129e8565b5b8135612b0b848260208601612aa6565b91505092915050565b5f60208284031215612b2957612b2861260a565b5b5f82013567ffffffffffffffff811115612b4657612b4561260e565b5b612b5284828501612ae7565b91505092915050565b612b6481612692565b8114612b6e575f5ffd5b50565b5f81359050612b7f81612b5b565b92915050565b5f5f60408385031215612b9b57612b9a61260a565b5b5f612ba885828601612821565b9250506020612bb985828601612b71565b9150509250929050565b5f67ffffffffffffffff821115612bdd57612bdc6129f0565b5b612be6826126ed565b9050602081019050919050565b5f612c05612c0084612bc3565b612a4e565b905082815260208101848484011115612c2157612c206129ec565b5b612c2c848285612a98565b509392505050565b5f82601f830112612c4857612c476129e8565b5b8135612c58848260208601612bf3565b91505092915050565b5f5f5f5f60808587031215612c7957612c7861260a565b5b5f612c8687828801612821565b9450506020612c9787828801612821565b9350506040612ca887828801612774565b925050606085013567ffffffffffffffff811115612cc957612cc861260e565b5b612cd587828801612c34565b91505092959194509250565b5f5f60408385031215612cf757612cf661260a565b5b5f612d0485828601612774565b9250506020612d1585828601612774565b9150509250929050565b612d2881612916565b82525050565b5f602082019050612d415f830184612d1f565b92915050565b5f5f60408385031215612d5d57612d5c61260a565b5b5f612d6a85828601612821565b9250506020612d7b85828601612821565b9150509250929050565b5f67ffffffffffffffff82169050919050565b612da181612d85565b8114612dab575f5ffd5b50565b5f81359050612dbc81612d98565b92915050565b5f5f5f5f5f60a08688031215612ddb57612dda61260a565b5b5f612de888828901612774565b9550506020612df988828901612821565b9450506040612e0a88828901612774565b9350506060612e1b88828901612821565b9250506080612e2c88828901612dae565b9150509295509295909350565b7f4e487b71000000000000000000000000000000000000000000000000000000005f52602260045260245ffd5b5f6002820490506001821680612e7d57607f821691505b602082108103612e9057612e8f612e39565b5b50919050565b5f606082019050612ea95f830186612d1f565b612eb66020830185612d1f565b612ec360408301846127e3565b949350505050565b5f81519050612ed98161291f565b92915050565b5f60208284031215612ef457612ef361260a565b5b5f612f0184828501612ecb565b91505092915050565b7f4e487b71000000000000000000000000000000000000000000000000000000005f52601160045260245ffd5b5f612f4182612755565b9150612f4c83612755565b9250828201905080821115612f6457612f63612f0a565b5b92915050565b5f604082019050612f7d5f830185612d1f565b612f8a60208301846127e3565b9392505050565b5f819050815f5260205f209050919050565b5f6020601f8301049050919050565b5f82821b905092915050565b5f60088302612fed7fffffffffffffffffffffffffffffffffffffffffffffffffffffffffffffffff82612fb2565b612ff78683612fb2565b95508019841693508086168417925050509392505050565b5f61302961302461301f84612755565b612974565b612755565b9050919050565b5f819050919050565b6130428361300f565b61305661304e82613030565b848454612fbe565b825550505050565b5f5f905090565b61306d61305e565b613078818484613039565b505050565b5b8181101561309b576130905f82613065565b60018101905061307e565b5050565b601f8211156130e0576130b181612f91565b6130ba84612fa3565b810160208510156130c9578190505b6130dd6130d585612fa3565b83018261307d565b50505b505050565b5f82821c905092915050565b5f6131005f19846008026130e5565b1980831691505092915050565b5f61311883836130f1565b9150826002028217905092915050565b613131826126c5565b67ffffffffffffffff81111561314a576131496129f0565b5b6131548254612e66565b61315f82828561309f565b5f60209050601f831160018114613190575f841561317e578287015190505b613188858261310d565b8655506131ef565b601f19841661319e86612f91565b5f5b828110156131c5578489015182556001820191506020850194506020810190506131a0565b868310156131e257848901516131de601f8916826130f1565b8355505b6001600288020188555050505b505050505050565b5f815190506132058161280b565b92915050565b5f602082840312156132205761321f61260a565b5b5f61322d848285016131f7565b91505092915050565b5f81905092915050565b5f815461324c81612e66565b6132568186613236565b9450600182165f81146132705760018114613285576132b7565b60ff19831686528115158202860193506132b7565b61328e85612f91565b5f5b838110156132af57815481890152600182019150602081019050613290565b838801955050505b50505092915050565b5f6132ca826126c5565b6132d48185613236565b93506132e48185602086016126df565b80840191505092915050565b5f6132fb8285613240565b915061330782846132c0565b91508190509392505050565b5f819050919050565b5f61333661333161332c84613313565b612974565b612755565b9050919050565b6133468161331c565b82525050565b5f60408201905061335f5f83018561333d565b61336c60208301846128ee565b9392505050565b61337c81612d85565b82525050565b5f60a0820190506133955f830188612d1f565b6133a26020830187612d1f565b6133af60408301866127e3565b6133bc60608301856127e3565b6133c96080830184613373565b9695505050505050565b5f6060820190506133e65f8301866128ee565b6133f360208301856127e3565b6134006040830184613373565b949350505050565b5f60608201905061341b5f8301866127e3565b61342860208301856128ee565b61343560408301846127e3565b949350505050565b5f81519050919050565b5f82825260208201905092915050565b5f6134618261343d565b61346b8185613447565b935061347b8185602086016126df565b613484816126ed565b840191505092915050565b5f6080820190506134a25f8301876127e3565b6134af60208301866127e3565b6134bc60408301856128ee565b81810360608301526134ce8184613457565b905095945050505050565b5f815190506134e78161263d565b92915050565b5f602082840312156135025761350161260a565b5b5f61350f848285016134d9565b91505092915050565b7f4e487b71000000000000000000000000000000000000000000000000000000005f52601260045260245ffd5b5f6040820190506135585f8301856127e3565b61356560208301846128ee565b939250505056fea2646970667358221220d037022051934dfdc2552b4ea188b1cb1f459739a44d6701ed7cd367f257d97864736f6c634300081e0033","linkReferences":{}},"methodIdentifiers":{"addController(address)":"a7fc7a07","approve(address,uint256)":"095ea7b3","balanceOf(address)":"70a08231","baseNode()":"ddf7fcb0","contractURI()":"e8a3d485","controllers(address)":"da8c229e","getApproved(uint256)":"081812fc","isApprovedForAll(address,address)":"e985e9c5","isAvailable(uint256)":"3a178d99","name()":"06fdde03","nameExpires(bytes32)":"727e4ea7","owner()":"8da5cb5b","ownerOf(uint256)":"6352211e","registerWithRecord(uint256,address,uint256,address,uint64)":"eac2aa09","registry()":"7b103999","removeController(address)":"f6a74ed7","renew(uint256,uint256)":"c475abff","renounceOwnership()":"715018a6","safeTransferFrom(address,address,uint256)":"42842e0e","safeTransferFrom(address,address,uint256,bytes)":"b88d4fde","setApprovalForAll(address,bool)":"a22cb465","setContractURI(string)":"938e3d7b","setResolver(address)":"4e543b26","setTokenURI(string)":"e0df5b6f","supportsInterface(bytes4)":"01ffc9a7","symbol()":"95d89b41","tokenURI(uint256)":"c87b56dd","transferFrom(address,address,uint256)":"23b872dd","transferOwnership(address)":"f2fde38b"},"id":51}