{"abi":[{"type":"constructor","inputs":[{"name":"_registry","type":"address","internalType":"address"},{"name":"_urls","type":"string[]","internalType":"string[]"}],"stateMutability":"nonpayable"},{"type":"function","name":"_resolveSingle","inputs":[{"name":"name","type":"bytes","internalType":"bytes"},{"name":"data","type":"bytes","internalType":"bytes"},{"name":"gateways","type":"string[]","internalType":"string[]"},{"name":"callbackFunction","type":"bytes4","internalType":"bytes4"},{"name":"metaData","type":"bytes","internalType":"bytes"}],"outputs":[{"name":"","type":"bytes","internalType":"bytes"},{"name":"","type":"address","internalType":"address"}],"stateMutability":"view"},{"type":"function","name":"batchGatewayURLs","inputs":[{"name":"","type":"uint256","internalType":"uint256"}],"outputs":[{"name":"","type":"string","internalType":"string"}],"stateMutability":"view"},{"type":"function","name":"findResolver","inputs":[{"name":"name","type":"bytes","internalType":"bytes"}],"outputs":[{"name":"","type":"address","internalType":"contract LitDefaultResolver"},{"name":"","type":"bytes32","internalType":"bytes32"},{"name":"","type":"uint256","internalType":"uint256"}],"stateMutability":"view"},{"type":"function","name":"owner","inputs":[],"outputs":[{"name":"","type":"address","internalType":"address"}],"stateMutability":"view"},{"type":"function","name":"registry","inputs":[],"outputs":[{"name":"","type":"address","internalType":"contract LNS"}],"stateMutability":"view"},{"type":"function","name":"renounceOwnership","inputs":[],"outputs":[],"stateMutability":"nonpayable"},{"type":"function","name":"resolve","inputs":[{"name":"name","type":"bytes","internalType":"bytes"},{"name":"data","type":"bytes","internalType":"bytes"},{"name":"gateways","type":"string[]","internalType":"string[]"}],"outputs":[{"name":"","type":"bytes","internalType":"bytes"},{"name":"","type":"address","internalType":"address"}],"stateMutability":"view"},{"type":"function","name":"resolve","inputs":[{"name":"name","type":"bytes","internalType":"bytes"},{"name":"data","type":"bytes[]","internalType":"bytes[]"}],"outputs":[{"name":"","type":"bytes[]","internalType":"bytes[]"},{"name":"","type":"address","internalType":"address"}],"stateMutability":"view"},{"type":"function","name":"resolve","inputs":[{"name":"name","type":"bytes","internalType":"bytes"},{"name":"data","type":"bytes[]","internalType":"bytes[]"},{"name":"gateways","type":"string[]","internalType":"string[]"}],"outputs":[{"name":"","type":"bytes[]","internalType":"bytes[]"},{"name":"","type":"address","internalType":"address"}],"stateMutability":"view"},{"type":"function","name":"resolve","inputs":[{"name":"name","type":"bytes","internalType":"bytes"},{"name":"data","type":"bytes","internalType":"bytes"}],"outputs":[{"name":"","type":"bytes","internalType":"bytes"},{"name":"","type":"address","internalType":"address"}],"stateMutability":"view"},{"type":"function","name":"resolveCallback","inputs":[{"name":"response","type":"bytes","internalType":"bytes"},{"name":"extraData","type":"bytes","internalType":"bytes"}],"outputs":[{"name":"","type":"bytes[]","internalType":"bytes[]"},{"name":"","type":"address","internalType":"address"}],"stateMutability":"view"},{"type":"function","name":"resolveSingleCallback","inputs":[{"name":"response","type":"bytes","internalType":"bytes"},{"name":"extraData","type":"bytes","internalType":"bytes"}],"outputs":[{"name":"","type":"bytes","internalType":"bytes"},{"name":"","type":"address","internalType":"address"}],"stateMutability":"view"},{"type":"function","name":"reverse","inputs":[{"name":"reverseName","type":"bytes","internalType":"bytes"},{"name":"gateways","type":"string[]","internalType":"string[]"}],"outputs":[{"name":"","type":"string","internalType":"string"},{"name":"","type":"address","internalType":"address"},{"name":"","type":"address","internalType":"address"},{"name":"","type":"address","internalType":"address"}],"stateMutability":"view"},{"type":"function","name":"reverse","inputs":[{"name":"reverseName","type":"bytes","internalType":"bytes"}],"outputs":[{"name":"","type":"string","internalType":"string"},{"name":"","type":"address","internalType":"address"},{"name":"","type":"address","internalType":"address"},{"name":"","type":"address","internalType":"address"}],"stateMutability":"view"},{"type":"function","name":"reverseCallback","inputs":[{"name":"response","type":"bytes","internalType":"bytes"},{"name":"extraData","type":"bytes","internalType":"bytes"}],"outputs":[{"name":"","type":"string","internalType":"string"},{"name":"","type":"address","internalType":"address"},{"name":"","type":"address","internalType":"address"},{"name":"","type":"address","internalType":"address"}],"stateMutability":"view"},{"type":"function","name":"setGatewayURLs","inputs":[{"name":"_urls","type":"string[]","internalType":"string[]"}],"outputs":[],"stateMutability":"nonpayable"},{"type":"function","name":"supportsInterface","inputs":[{"name":"interfaceId","type":"bytes4","internalType":"bytes4"}],"outputs":[{"name":"","type":"bool","internalType":"bool"}],"stateMutability":"view"},{"type":"function","name":"transferOwnership","inputs":[{"name":"newOwner","type":"address","internalType":"address"}],"outputs":[],"stateMutability":"nonpayable"},{"type":"event","name":"OwnershipTransferred","inputs":[{"name":"previousOwner","type":"address","indexed":true,"internalType":"address"},{"name":"newOwner","type":"address","indexed":true,"internalType":"address"}],"anonymous":false},{"type":"error","name":"ArrayLengthsMustMatch","inputs":[]},{"type":"error","name":"InvalidEncryptedLabelLength","inputs":[]},{"type":"error","name":"InvalidRegistry","inputs":[]},{"type":"error","name":"OffchainLookup","inputs":[{"name":"sender","type":"address","internalType":"address"},{"name":"urls","type":"string[]","internalType":"string[]"},{"name":"callData","type":"bytes","internalType":"bytes"},{"name":"callbackFunction","type":"bytes4","internalType":"bytes4"},{"name":"extraData","type":"bytes","internalType":"bytes"}]},{"type":"error","name":"OwnableInvalidOwner","inputs":[{"name":"owner","type":"address","internalType":"address"}]},{"type":"error","name":"OwnableUnauthorizedAccount","inputs":[{"name":"account","type":"address","internalType":"address"}]},{"type":"error","name":"ResolverNotFound","inputs":[]},{"type":"error","name":"ResolverWildcardNotSupported","inputs":[]}],"bytecode":{"object":"0x60a060405234801561000f575f5ffd5b506040516158d23803806158d283398181016040528101906100319190610585565b335f73ffffffffffffffffffffffffffffffffffffffff168173ffffffffffffffffffffffffffffffffffffffff16036100a2575f6040517f1e4fbdf700000000000000000000000000000000000000000000000000000000815260040161009991906105ee565b60405180910390fd5b6100b18161016960201b60201c565b505f73ffffffffffffffffffffffffffffffffffffffff168273ffffffffffffffffffffffffffffffffffffffff1603610117576040517f11a1e69700000000000000000000000000000000000000000000000000000000815260040160405180910390fd5b8173ffffffffffffffffffffffffffffffffffffffff1660808173ffffffffffffffffffffffffffffffffffffffff1681525050806001908051906020019061016192919061022a565b5050506108e6565b5f5f5f9054906101000a900473ffffffffffffffffffffffffffffffffffffffff169050815f5f6101000a81548173ffffffffffffffffffffffffffffffffffffffff021916908373ffffffffffffffffffffffffffffffffffffffff1602179055508173ffffffffffffffffffffffffffffffffffffffff168173ffffffffffffffffffffffffffffffffffffffff167f8be0079c531659141344cd1fd0a4f28419497f9722a3daafe3b4186f6b6457e060405160405180910390a35050565b828054828255905f5260205f20908101928215610270579160200282015b8281111561026f57825182908161025f9190610817565b5091602001919060010190610248565b5b50905061027d9190610281565b5090565b5b808211156102a0575f818161029791906102a4565b50600101610282565b5090565b5080546102b09061063e565b5f825580601f106102c157506102de565b601f0160209004905f5260205f20908101906102dd91906102e1565b5b50565b5b808211156102f8575f815f9055506001016102e2565b5090565b5f604051905090565b5f5ffd5b5f5ffd5b5f73ffffffffffffffffffffffffffffffffffffffff82169050919050565b5f6103368261030d565b9050919050565b6103468161032c565b8114610350575f5ffd5b50565b5f815190506103618161033d565b92915050565b5f5ffd5b5f601f19601f8301169050919050565b7f4e487b71000000000000000000000000000000000000000000000000000000005f52604160045260245ffd5b6103b18261036b565b810181811067ffffffffffffffff821117156103d0576103cf61037b565b5b80604052505050565b5f6103e26102fc565b90506103ee82826103a8565b919050565b5f67ffffffffffffffff82111561040d5761040c61037b565b5b602082029050602081019050919050565b5f5ffd5b5f5ffd5b5f67ffffffffffffffff8211156104405761043f61037b565b5b6104498261036b565b9050602081019050919050565b8281835e5f83830152505050565b5f61047661047184610426565b6103d9565b90508281526020810184848401111561049257610491610422565b5b61049d848285610456565b509392505050565b5f82601f8301126104b9576104b8610367565b5b81516104c9848260208601610464565b91505092915050565b5f6104e46104df846103f3565b6103d9565b905080838252602082019050602084028301858111156105075761050661041e565b5b835b8181101561054e57805167ffffffffffffffff81111561052c5761052b610367565b5b80860161053989826104a5565b85526020850194505050602081019050610509565b5050509392505050565b5f82601f83011261056c5761056b610367565b5b815161057c8482602086016104d2565b91505092915050565b5f5f6040838503121561059b5761059a610305565b5b5f6105a885828601610353565b925050602083015167ffffffffffffffff8111156105c9576105c8610309565b5b6105d585828601610558565b9150509250929050565b6105e88161032c565b82525050565b5f6020820190506106015f8301846105df565b92915050565b5f81519050919050565b7f4e487b71000000000000000000000000000000000000000000000000000000005f52602260045260245ffd5b5f600282049050600182168061065557607f821691505b60208210810361066857610667610611565b5b50919050565b5f819050815f5260205f209050919050565b5f6020601f8301049050919050565b5f82821b905092915050565b5f600883026106ca7fffffffffffffffffffffffffffffffffffffffffffffffffffffffffffffffff8261068f565b6106d4868361068f565b95508019841693508086168417925050509392505050565b5f819050919050565b5f819050919050565b5f61071861071361070e846106ec565b6106f5565b6106ec565b9050919050565b5f819050919050565b610731836106fe565b61074561073d8261071f565b84845461069b565b825550505050565b5f5f905090565b61075c61074d565b610767818484610728565b505050565b5b8181101561078a5761077f5f82610754565b60018101905061076d565b5050565b601f8211156107cf576107a08161066e565b6107a984610680565b810160208510156107b8578190505b6107cc6107c485610680565b83018261076c565b50505b505050565b5f82821c905092915050565b5f6107ef5f19846008026107d4565b1980831691505092915050565b5f61080783836107e0565b9150826002028217905092915050565b61082082610607565b67ffffffffffffffff8111156108395761083861037b565b5b610843825461063e565b61084e82828561078e565b5f60209050601f83116001811461087f575f841561086d578287015190505b61087785826107fc565b8655506108de565b601f19841661088d8661066e565b5f5b828110156108b45784890151825560018201915060208501945060208101905061088f565b868310156108d157848901516108cd601f8916826107e0565b8355505b6001600288020188555050505b505050505050565b608051614fcd6109055f395f81816106c101526119a80152614fcd5ff3fe608060405234801561000f575f5ffd5b5060043610610114575f3560e01c80638e5ea8df116100a0578063b241d0d31161006f578063b241d0d314610334578063b4a8580114610367578063e0a8541214610398578063ec11c823146103c9578063f2fde38b146103fc57610114565b80638e5ea8df146102855780639061b923146102a1578063a1cbcbaf146102d2578063a6b164191461030457610114565b8063715018a6116100e7578063715018a6146101dd57806376286c00146101e75780637b103999146102185780638da5cb5b146102365780638e25a0f31461025457610114565b806301ffc9a7146101185780630667cfea14610148578063206c74c9146101795780636dc4fb73146101aa575b5f5ffd5b610132600480360381019061012d9190612ba3565b610418565b60405161013f9190612be8565b60405180910390f35b610162600480360381019061015d9190612f16565b610491565b60405161017092919061305e565b60405180910390f35b610193600480360381019061018e919061316a565b6104c4565b6040516101a19291906132e6565b60405180910390f35b6101c460048036038101906101bf9190613314565b6105ab565b6040516101d494939291906133e4565b60405180910390f35b6101e5610679565b005b61020160048036038101906101fc919061342e565b61068c565b60405161020f9291906132e6565b60405180910390f35b6102206106bf565b60405161022d9190613532565b60405180910390f35b61023e6106e3565b60405161024b919061354b565b60405180910390f35b61026e60048036038101906102699190613564565b61070a565b60405161027c92919061305e565b60405180910390f35b61029f600480360381019061029a919061364e565b6107c0565b005b6102bb60048036038101906102b69190613695565b6107e2565b6040516102c992919061305e565b60405180910390f35b6102ec60048036038101906102e7919061370e565b6108e0565b6040516102fb939291906137a9565b60405180910390f35b61031e60048036038101906103199190613808565b61090a565b60405161032b9190613833565b60405180910390f35b61034e60048036038101906103499190613853565b6109b0565b60405161035e94939291906133e4565b60405180910390f35b610381600480360381019061037c9190613314565b610aab565b60405161038f9291906132e6565b60405180910390f35b6103b260048036038101906103ad9190613314565b610adb565b6040516103c092919061305e565b60405180910390f35b6103e360048036038101906103de919061370e565b610b25565b6040516103f394939291906133e4565b60405180910390f35b610416600480360381019061041191906138f6565b610c12565b005b5f7f9061b923000000000000000000000000000000000000000000000000000000007bffffffffffffffffffffffffffffffffffffffffffffffffffffffff1916827bffffffffffffffffffffffffffffffffffffffffffffffffffffffff1916148061048a575061048982610c96565b5b9050919050565b60605f6104b78686868663e0a8541260e01b60405180602001604052805f81525061070a565b9150915094509492505050565b60605f61059f8585856001805480602002602001604051908101604052809291908181526020015f905b82821015610596578382905f5260205f2001805461050b9061394e565b80601f01602080910402602001604051908101604052809291908181526020018280546105379061394e565b80156105825780601f1061055957610100808354040283529160200191610582565b820191905f5260205f20905b81548152906001019060200180831161056557829003601f168201915b5050505050815260200190600101906104ee565b5050505061068c565b91509150935093915050565b60605f5f5f5f5f5f5f6105c88c8c8c8c636dc4fb7360e01b610cff565b93509350935093505f8151111561063c575f5f828060200190518101906105ef9190613a27565b915091505f865f8151811061060757610606613a81565b5b60200260200101518060200190518101906106229190613aae565b9050828183889a509a509a509a505050505050505061066e565b610661845f8151811061065257610651613a81565b5b6020026020010151848461110c565b9750975097509750505050505b945094509450949050565b610681611279565b61068a5f611300565b565b60605f6106b28686868663b4a8580160e01b60405180602001604052805f8152506113c1565b9150915094509492505050565b7f000000000000000000000000000000000000000000000000000000000000000081565b5f5f5f9054906101000a900473ffffffffffffffffffffffffffffffffffffffff16905090565b60605f5f600167ffffffffffffffff81111561072957610728612c76565b5b60405190808252806020026020018201604052801561075c57816020015b60608152602001906001900390816107475790505b50905086815f8151811061077357610772613a81565b5b60200260200101819052505f5f61078e8b8b858b8b8b6113c1565b91509150815f815181106107a5576107a4613a81565b5b60200260200101518194509450505050965096945050505050565b6107c8611279565b80600190805190602001906107de929190612984565b5050565b60605f6108d48585856001805480602002602001604051908101604052809291908181526020015f905b828210156108b4578382905f5260205f200180546108299061394e565b80601f01602080910402602001604051908101604052809291908181526020018280546108559061394e565b80156108a05780601f10610877576101008083540402835291602001916108a0565b820191905f5260205f20905b81548152906001019060200180831161088357829003601f168201915b50505050508152602001906001019061080c565b5050505063e0a8541260e01b60405180602001604052805f81525061070a565b91509150935093915050565b5f5f5f5f5f5f6108f188885f611559565b9250925092508282829550955095505050509250925092565b60018181548110610919575f80fd5b905f5260205f20015f9150905080546109319061394e565b80601f016020809104026020016040519081016040528092919081815260200182805461095d9061394e565b80156109a85780601f1061097f576101008083540402835291602001916109a8565b820191905f5260205f20905b81548152906001019060200180831161098b57829003601f168201915b505050505081565b60605f5f5f5f610a0c5f89898080601f0160208091040260200160405190810160405280939291908181526020018383808284375f81840152601f19601f82011690508083019250505050505050611aa490919063ffffffff16565b604051602401610a1c9190613ad9565b60405160208183030381529060405263691f343160e01b6020820180517bffffffffffffffffffffffffffffffffffffffffffffffffffffffff838183161783525050505090505f5f610a888a8a858b636dc4fb7360e01b60405180602001604052805f81525061070a565b91509150610a9782828a61110c565b965096509650965050505093509350935093565b60605f5f5f610ac48888888863b4a8580160e01b610cff565b505091509150818193509350505094509492505050565b60605f5f5f610af48888888863e0a8541260e01b610cff565b505091509150815f81518110610b0d57610b0c613a81565b5b60200260200101518193509350505094509492505050565b60605f5f5f610c0186866001805480602002602001604051908101604052809291908181526020015f905b82821015610bf8578382905f5260205f20018054610b6d9061394e565b80601f0160208091040260200160405190810160405280929190818152602001828054610b999061394e565b8015610be45780601f10610bbb57610100808354040283529160200191610be4565b820191905f5260205f20905b815481529060010190602001808311610bc757829003601f168201915b505050505081526020019060010190610b50565b505050506109b0565b935093509350935092959194509250565b610c1a611279565b5f73ffffffffffffffffffffffffffffffffffffffff168173ffffffffffffffffffffffffffffffffffffffff1603610c8a575f6040517f1e4fbdf7000000000000000000000000000000000000000000000000000000008152600401610c81919061354b565b60405180910390fd5b610c9381611300565b50565b5f7f01ffc9a7000000000000000000000000000000000000000000000000000000007bffffffffffffffffffffffffffffffffffffffffffffffffffffffff1916827bffffffffffffffffffffffffffffffffffffffffffffffffffffffff1916149050919050565b60605f606080610d0d6129db565b8581606001907bffffffffffffffffffffffffffffffffffffffffffffffffffffffff191690817bffffffffffffffffffffffffffffffffffffffffffffffffffffffff1916815250505f5f8b8b810190610d689190613bdc565b9150915060608a8a810190610d7d9190613db5565b886080018960a0018a6040018b60c0018499508590528590528573ffffffffffffffffffffffffffffffffffffffff1673ffffffffffffffffffffffffffffffffffffffff1681525085151515158152505050505050805182511115610de1575f5ffd5b805167ffffffffffffffff811115610dfc57610dfb612c76565b5b604051908082528060200260200182016040528015610e2f57816020015b6060815260200190600190039081610e1a5790505b508460200181905250805167ffffffffffffffff811115610e5357610e52612c76565b5b604051908082528060200260200182016040528015610e815781602001602082028036833780820191505090505b508460e001819052505f5f90505f5f90505b82518110156110da575f60e01b7bffffffffffffffffffffffffffffffffffffffffffffffffffffffff1916838281518110610ed257610ed1613a81565b5b60200260200101515f01517bffffffffffffffffffffffffffffffffffffffffffffffffffffffff191603610f4757828181518110610f1457610f13613a81565b5b60200260200101516020015186602001518281518110610f3757610f36613a81565b5b60200260200101819052506110cd565b848281518110610f5a57610f59613a81565b5b602002602001015115610fd45760018660e001518281518110610f8057610f7f613a81565b5b602002602001019015159081151581525050838281518110610fa557610fa4613a81565b5b602002602001015186602001518281518110610fc457610fc3613a81565b5b60200260200101819052506110bd565b828181518110610fe757610fe6613a81565b5b60200260200101515f015184838151811061100557611004613a81565b5b60200260200101518483815181106110205761101f613a81565b5b60200260200101516020015160405160240161103d929190613e80565b604051602081830303815290604052907bffffffffffffffffffffffffffffffffffffffffffffffffffffffff19166020820180517bffffffffffffffffffffffffffffffffffffffffffffffffffffffff8381831617835250505050866020015182815181106110b1576110b0613a81565b5b60200260200101819052505b6001826110ca9190613ee2565b91505b8080600101915050610e93565b506110e485611c72565b8560a0015186604001518760c001519850985098509850505050505095509550955095915050565b60605f5f5f5f878060200190518101906111269190613f15565b90505f5f61113383612141565b915091505f816040516024016111499190613ad9565b604051602081830303815290604052633b3b57de60e01b6020820180517bffffffffffffffffffffffffffffffffffffffffffffffffffffffff838183161783525050505090505f848b6040516020016111a4929190613f5c565b60405160208183030381529060405290505f5f3073ffffffffffffffffffffffffffffffffffffffff16638e25a0f387868f636dc4fb7360e01b886040518663ffffffff1660e01b81526004016111ff95949392919061409c565b5f60405180830381865afa158015611219573d5f5f3e3d5ffd5b505050506040513d5f823e3d601f19601f82011682018060405250810190611241919061418b565b915091505f8280602001905181019061125a9190613aae565b905087818f849b509b509b509b50505050505050505093509350935093565b61128161241f565b73ffffffffffffffffffffffffffffffffffffffff1661129f6106e3565b73ffffffffffffffffffffffffffffffffffffffff16146112fe576112c261241f565b6040517f118cdaa70000000000000000000000000000000000000000000000000000000081526004016112f5919061354b565b60405180910390fd5b565b5f5f5f9054906101000a900473ffffffffffffffffffffffffffffffffffffffff169050815f5f6101000a81548173ffffffffffffffffffffffffffffffffffffffff021916908373ffffffffffffffffffffffffffffffffffffffff1602179055508173ffffffffffffffffffffffffffffffffffffffff168173ffffffffffffffffffffffffffffffffffffffff167f8be0079c531659141344cd1fd0a4f28419497f9722a3daafe3b4186f6b6457e060405160405180910390a35050565b60605f5f5f6113d08a8a6108e0565b92505091508192505f73ffffffffffffffffffffffffffffffffffffffff168373ffffffffffffffffffffffffffffffffffffffff160361143d576040517f7199966d00000000000000000000000000000000000000000000000000000000815260040160405180910390fd5b5f5f82141590506115496040518061010001604052808d8d8080601f0160208091040260200160405190810160405280939291908181526020018383808284375f81840152601f19601f8201169050808301925050505050505081526020018b81526020018a8152602001897bffffffffffffffffffffffffffffffffffffffffffffffffffffffff1916815260200183151581526020018673ffffffffffffffffffffffffffffffffffffffff1681526020018881526020018b5167ffffffffffffffff81111561151257611511612c76565b5b6040519080825280602002602001820160405280156115405781602001602082028036833780820191505090505b50815250611c72565b9450505050965096945050505050565b5f5f5f858590508410611576575f5f5f1b85925092509250611a9b565b5f86868681811061158a57611589613a81565b5b9050013560f81c60f81b60f81c60ff1690505f81036115b4575f5f5f1b8693509350935050611a9b565b86869050600182876115c69190613ee2565b6115d09190613ee2565b11156115e7575f5f5f1b8693509350935050611a9b565b5f600182876115f69190613ee2565b6116009190613ee2565b90505f6042831480156116605750605b60f81b898960018a6116229190613ee2565b81811061163257611631613a81565b5b9050013560f81c60f81b7effffffffffffffffffffffffffffffffffffffffffffffffffffffffffffff1916145b80156116b95750605d60f81b898960018561167b91906141e5565b81811061168b5761168a613a81565b5b9050013560f81c60f81b7effffffffffffffffffffffffffffffffffffffffffffffffffffffffffffff1916145b1561192e575f898960028a6116ce9190613ee2565b906001866116dc91906141e5565b926116e993929190614220565b8080601f0160208091040260200160405190810160405280939291908181526020018383808284375f81840152601f19601f8201169050808301925050505050505090506040815114611768576040517f9bf46a6300000000000000000000000000000000000000000000000000000000815260040160405180910390fd5b5f5f90505b604081101561190c575f82828151811061178a57611789613a81565b5b602001015160f81c60f81b9050603060f81b817effffffffffffffffffffffffffffffffffffffffffffffffffffffffffffff1916101580156117f35750603960f81b817effffffffffffffffffffffffffffffffffffffffffffffffffffffffffffff191611155b1580156118595750604160f81b817effffffffffffffffffffffffffffffffffffffffffffffffffffffffffffff1916101580156118575750604660f81b817effffffffffffffffffffffffffffffffffffffffffffffffffffffffffffff191611155b155b80156118be5750606160f81b817effffffffffffffffffffffffffffffffffffffffffffffffffffffffffffff1916101580156118bc5750606660f81b817effffffffffffffffffffffffffffffffffffffffffffffffffffffffffffff191611155b155b156118fe576040517f08c379a00000000000000000000000000000000000000000000000000000000081526004016118f5906142ca565b60405180910390fd5b50808060010191505061176d565b506119235f6040836124269092919063ffffffff16565b508092505050611965565b888860018961193d9190613ee2565b90849261194c93929190614220565b60405161195a929190614316565b604051809103902090505b5f5f5f6119738c8c87611559565b9250925092505f828560405160200161198d92919061434e565b6040516020818303038152906040528051906020012090505f7f000000000000000000000000000000000000000000000000000000000000000073ffffffffffffffffffffffffffffffffffffffff16630178b8bf836040518263ffffffff1660e01b81526004016119ff9190613ad9565b602060405180830381865afa158015611a1a573d5f5f3e3d5ffd5b505050506040513d601f19601f82011682018060405250810190611a3e9190614379565b90505f73ffffffffffffffffffffffffffffffffffffffff168173ffffffffffffffffffffffffffffffffffffffff1614611a895780828d9a509a509a505050505050505050611a9b565b8482849a509a509a5050505050505050505b93509350939050565b5f5f5f90505f8390505b8451811015611af3575f5f611ac38784612550565b80925081935050505f5f1b8203611adb575050611af3565b8380611ae6906143a4565b9450508092505050611aae565b5f8267ffffffffffffffff811115611b0e57611b0d612c76565b5b604051908082528060200260200182016040528015611b3c5781602001602082028036833780820191505090505b5090505f8590505f5f90505b8751821015611bfc575f5f611b5d8a85612550565b80925081935050505f5f1b8203611bc45760018a51611b7c91906141e5565b8414611bbd576040517f08c379a0000000000000000000000000000000000000000000000000000000008152600401611bb490614435565b60405180910390fd5b5050611bfc565b81858481518110611bd857611bd7613a81565b5b6020026020010181815250508280611bef906143a4565b9350508093505050611b48565b5f5f5f1b90505b5f861115611c63578580611c1690614453565b96505080848781518110611c2d57611c2c613a81565b5b6020026020010151604051602001611c4692919061434e565b604051602081830303815290604052805190602001209050611c03565b80965050505050505092915050565b60605f82602001515190508260e00151518114611cbb576040517f587543d100000000000000000000000000000000000000000000000000000000815260040160405180910390fd5b5f5f90505f8267ffffffffffffffff811115611cda57611cd9612c76565b5b604051908082528060200260200182016040528015611d1357816020015b611d00612a54565b815260200190600190039081611cf85790505b5090505f8367ffffffffffffffff811115611d3157611d30612c76565b5b604051908082528060200260200182016040528015611d6a57816020015b611d57612a8a565b815260200190600190039081611d4f5790505b5090508367ffffffffffffffff811115611d8757611d86612c76565b5b604051908082528060200260200182016040528015611dba57816020015b6060815260200190600190039081611da55790505b5094505f5f875f0151511490505f611dd58860a0015161260a565b905087608001518015611de6575080155b15611e1d576040517f82c2c72800000000000000000000000000000000000000000000000000000000815260040160405180910390fd5b5f5f90505b8681101561202d575f89602001518281518110611e4257611e41613a81565b5b602002602001015190505f8a60e001518381518110611e6457611e63613a81565b5b602002602001015190508015611e9a57818a8481518110611e8857611e87613a81565b5b60200260200101819052505050612020565b84158015611ea55750835b15611f08578a5f015182604051602401611ec0929190613e80565b604051602081830303815290604052639061b92360e01b6020820180517bffffffffffffffffffffffffffffffffffffffffffffffffffffffff838183161783525050505091505b5f5f5f5f611f1a8f60a00151876126b8565b93509350935093508315611f935782806020019051810190611f3c91906145c6565b8b8d81518110611f4f57611f4e613a81565b5b6020026020010181905250818a8881518110611f6e57611f6d613a81565b5b602002602001018190525060018c611f869190613ee2565b9b50505050505050612020565b808015611f9d5750875b15611fb95782806020019051810190611fb6919061460d565b92505b828e8881518110611fcd57611fcc613a81565b5b60200260200101819052508e602001518781518110611fef57611fee613a81565b5b60200260200101518a888151811061200a57612009613a81565b5b6020026020010151602001819052505050505050505b8080600101915050611e22565b505f85036120405750505050505061213c565b84845230886040015163a780bab660e01b8660405160240161206291906147f5565b604051602081830303815290604052907bffffffffffffffffffffffffffffffffffffffffffffffffffffffff19166020820180517bffffffffffffffffffffffffffffffffffffffffffffffffffffffff83818316178352505050508a606001518b608001518c60a001518d604001518e60c001518a6040516020016120ed959493929190614919565b6040516020818303038152906040526040517f556f183000000000000000000000000000000000000000000000000000000000815260040161213395949392919061497f565b60405180910390fd5b919050565b60605f5f5f90505f8490505f8151905060028161215e9190613ee2565b67ffffffffffffffff81111561217757612176612c76565b5b6040519080825280601f01601f1916602001820160405280156121a95781602001600182028036833780820191505090505b5094505f5f1b93505f8103612205575f60f81b855f815181106121cf576121ce613a81565b5b60200101907effffffffffffffffffffffffffffffffffffffffffffffffffffffffffffff191690815f1a90535050505061241a565b5f6001820390505b5f811061238e577f2e0000000000000000000000000000000000000000000000000000000000000083828151811061224857612247613a81565b5b602001015160f81c60f81b7effffffffffffffffffffffffffffffffffffffffffffffffffffffffffffff19160361230f578360f81b86600183018151811061229457612293613a81565b5b60200101907effffffffffffffffffffffffffffffffffffffffffffffffffffffffffffff191690815f1a905350846122de600183018660ff16866128c99092919063ffffffff16565b6040516020016122ef92919061434e565b6040516020818303038152906040528051906020012094505f9350612378565b60018401935082818151811061232857612327613a81565b5b602001015160f81c60f81b86600183018151811061234957612348613a81565b5b60200101907effffffffffffffffffffffffffffffffffffffffffffffffffffffffffffff191690815f1a9053505b5f81031561238e5780806001900391505061220d565b50836123a85f8560ff16856128c99092919063ffffffff16565b6040516020016123b992919061434e565b6040516020818303038152906040528051906020012093508260f81b855f815181106123e8576123e7613a81565b5b60200101907effffffffffffffffffffffffffffffffffffffffffffffffffffffffffffff191690815f1a9053505050505b915091565b5f33905090565b5f5f5f6002858561243791906141e5565b6124419190614a12565b1461245157815f91509150612548565b82841015806124605750845183115b15612472575f5f1b5f91509150612548565b600190508451831115612483575f5ffd5b6124e4565b5f603a8210602f831116156124a2576030820390506124df565b604782106040831116156124be57600a604183030190506124df565b606782106060831116156124da57600a606183030190506124df565b60ff90505b919050565b60208501845b8481101561254557612500818301515f1a612488565b612511600183018401515f1a612488565b60ff811460ff83141715612529575f94505050612545565b808260041b17808760081b1796505050506002810190506124ea565b50505b935093915050565b5f5f83518310612595576040517f08c379a000000000000000000000000000000000000000000000000000000000815260040161258c90614a8c565b60405180910390fd5b5f8484815181106125a9576125a8613a81565b5b602001015160f81c60f81b60f81c60ff1690505f8111156125e2576125db856001866125d59190613ee2565b836128c9565b92506125e8565b5f5f1b92505b600181856125f69190613ee2565b6126009190613ee2565b9150509250929050565b5f8173ffffffffffffffffffffffffffffffffffffffff166301ffc9a761c3507f9061b923000000000000000000000000000000000000000000000000000000006040518363ffffffff1660e01b81526004016126679190614aaa565b6020604051808303818786fa935050505080156126a257506040513d601f19601f8201168201806040525081019061269f9190614ad7565b60015b6126ae575f90506126b3565b809150505b919050565b5f60606126c3612a8a565b5f6126ce86866128f3565b90505f6126d9612911565b905081156126fd575f6126ec5f83612918565b8460019450945094509450506128c0565b600481106128be575f6127115f6004612918565b90505f61272a6004808561272591906141e5565b612918565b905063556f183060e01b7bffffffffffffffffffffffffffffffffffffffffffffffffffffffff19168261275d90614b31565b7bffffffffffffffffffffffffffffffffffffffffffffffffffffffff191603612883575f5f5f5f5f8580602001905181019061279a9190614bab565b945094509450945094508d73ffffffffffffffffffffffffffffffffffffffff168573ffffffffffffffffffffffffffffffffffffffff16036128795760405180606001604052808673ffffffffffffffffffffffffffffffffffffffff168152602001858152602001848152506040516020016128189190614cca565b6040516020818303038152906040529a506040518060400160405280837bffffffffffffffffffffffffffffffffffffffffffffffffffffffff1916815260200182815250995060018b8b5f9b509b509b509b5050505050505050506128c0565b50505050506128bb565b8181604051602001612896929190614d1a565b60405160208183030381529060405295505f86865f96509650965096505050506128c0565b50505b505b92959194509250565b5f835182846128d89190613ee2565b11156128e2575f5ffd5b818360208601012090509392505050565b5f823b6128fe575f5ffd5b5f5f835160208501865afa905092915050565b5f3d905090565b60608167ffffffffffffffff81111561293457612933612c76565b5b6040519080825280601f01601f1916602001820160405280156129665781602001600182028036833780820191505090505b5090503d8284011115612977575f5ffd5b8183602083013e92915050565b828054828255905f5260205f209081019282156129ca579160200282015b828111156129c95782518290816129b99190614ec8565b50916020019190600101906129a2565b5b5090506129d79190612ac2565b5090565b6040518061010001604052806060815260200160608152602001606081526020015f7bffffffffffffffffffffffffffffffffffffffffffffffffffffffff191681526020015f151581526020015f73ffffffffffffffffffffffffffffffffffffffff16815260200160608152602001606081525090565b60405180606001604052805f73ffffffffffffffffffffffffffffffffffffffff16815260200160608152602001606081525090565b60405180604001604052805f7bffffffffffffffffffffffffffffffffffffffffffffffffffffffff19168152602001606081525090565b5b80821115612ae1575f8181612ad89190612ae5565b50600101612ac3565b5090565b508054612af19061394e565b5f825580601f10612b025750612b1f565b601f0160209004905f5260205f2090810190612b1e9190612b22565b5b50565b5b80821115612b39575f815f905550600101612b23565b5090565b5f604051905090565b5f5ffd5b5f5ffd5b5f7fffffffff0000000000000000000000000000000000000000000000000000000082169050919050565b612b8281612b4e565b8114612b8c575f5ffd5b50565b5f81359050612b9d81612b79565b92915050565b5f60208284031215612bb857612bb7612b46565b5b5f612bc584828501612b8f565b91505092915050565b5f8115159050919050565b612be281612bce565b82525050565b5f602082019050612bfb5f830184612bd9565b92915050565b5f5ffd5b5f5ffd5b5f5ffd5b5f5f83601f840112612c2257612c21612c01565b5b8235905067ffffffffffffffff811115612c3f57612c3e612c05565b5b602083019150836001820283011115612c5b57612c5a612c09565b5b9250929050565b5f5ffd5b5f601f19601f8301169050919050565b7f4e487b71000000000000000000000000000000000000000000000000000000005f52604160045260245ffd5b612cac82612c66565b810181811067ffffffffffffffff82111715612ccb57612cca612c76565b5b80604052505050565b5f612cdd612b3d565b9050612ce98282612ca3565b919050565b5f67ffffffffffffffff821115612d0857612d07612c76565b5b612d1182612c66565b9050602081019050919050565b828183375f83830152505050565b5f612d3e612d3984612cee565b612cd4565b905082815260208101848484011115612d5a57612d59612c62565b5b612d65848285612d1e565b509392505050565b5f82601f830112612d8157612d80612c01565b5b8135612d91848260208601612d2c565b91505092915050565b5f67ffffffffffffffff821115612db457612db3612c76565b5b602082029050602081019050919050565b5f67ffffffffffffffff821115612ddf57612dde612c76565b5b612de882612c66565b9050602081019050919050565b5f612e07612e0284612dc5565b612cd4565b905082815260208101848484011115612e2357612e22612c62565b5b612e2e848285612d1e565b509392505050565b5f82601f830112612e4a57612e49612c01565b5b8135612e5a848260208601612df5565b91505092915050565b5f612e75612e7084612d9a565b612cd4565b90508083825260208201905060208402830185811115612e9857612e97612c09565b5b835b81811015612edf57803567ffffffffffffffff811115612ebd57612ebc612c01565b5b808601612eca8982612e36565b85526020850194505050602081019050612e9a565b5050509392505050565b5f82601f830112612efd57612efc612c01565b5b8135612f0d848260208601612e63565b91505092915050565b5f5f5f5f60608587031215612f2e57612f2d612b46565b5b5f85013567ffffffffffffffff811115612f4b57612f4a612b4a565b5b612f5787828801612c0d565b9450945050602085013567ffffffffffffffff811115612f7a57612f79612b4a565b5b612f8687828801612d6d565b925050604085013567ffffffffffffffff811115612fa757612fa6612b4a565b5b612fb387828801612ee9565b91505092959194509250565b5f81519050919050565b5f82825260208201905092915050565b8281835e5f83830152505050565b5f612ff182612fbf565b612ffb8185612fc9565b935061300b818560208601612fd9565b61301481612c66565b840191505092915050565b5f73ffffffffffffffffffffffffffffffffffffffff82169050919050565b5f6130488261301f565b9050919050565b6130588161303e565b82525050565b5f6040820190508181035f8301526130768185612fe7565b9050613085602083018461304f565b9392505050565b5f67ffffffffffffffff8211156130a6576130a5612c76565b5b602082029050602081019050919050565b5f6130c96130c48461308c565b612cd4565b905080838252602082019050602084028301858111156130ec576130eb612c09565b5b835b8181101561313357803567ffffffffffffffff81111561311157613110612c01565b5b80860161311e8982612d6d565b855260208501945050506020810190506130ee565b5050509392505050565b5f82601f83011261315157613150612c01565b5b81356131618482602086016130b7565b91505092915050565b5f5f5f6040848603121561318157613180612b46565b5b5f84013567ffffffffffffffff81111561319e5761319d612b4a565b5b6131aa86828701612c0d565b9350935050602084013567ffffffffffffffff8111156131cd576131cc612b4a565b5b6131d98682870161313d565b9150509250925092565b5f81519050919050565b5f82825260208201905092915050565b5f819050602082019050919050565b5f82825260208201905092915050565b5f61322682612fbf565b613230818561320c565b9350613240818560208601612fd9565b61324981612c66565b840191505092915050565b5f61325f838361321c565b905092915050565b5f602082019050919050565b5f61327d826131e3565b61328781856131ed565b935083602082028501613299856131fd565b805f5b858110156132d457848403895281516132b58582613254565b94506132c083613267565b925060208a0199505060018101905061329c565b50829750879550505050505092915050565b5f6040820190508181035f8301526132fe8185613273565b905061330d602083018461304f565b9392505050565b5f5f5f5f6040858703121561332c5761332b612b46565b5b5f85013567ffffffffffffffff81111561334957613348612b4a565b5b61335587828801612c0d565b9450945050602085013567ffffffffffffffff81111561337857613377612b4a565b5b61338487828801612c0d565b925092505092959194509250565b5f81519050919050565b5f82825260208201905092915050565b5f6133b682613392565b6133c0818561339c565b93506133d0818560208601612fd9565b6133d981612c66565b840191505092915050565b5f6080820190508181035f8301526133fc81876133ac565b905061340b602083018661304f565b613418604083018561304f565b613425606083018461304f565b95945050505050565b5f5f5f5f6060858703121561344657613445612b46565b5b5f85013567ffffffffffffffff81111561346357613462612b4a565b5b61346f87828801612c0d565b9450945050602085013567ffffffffffffffff81111561349257613491612b4a565b5b61349e8782880161313d565b925050604085013567ffffffffffffffff8111156134bf576134be612b4a565b5b6134cb87828801612ee9565b91505092959194509250565b5f819050919050565b5f6134fa6134f56134f08461301f565b6134d7565b61301f565b9050919050565b5f61350b826134e0565b9050919050565b5f61351c82613501565b9050919050565b61352c81613512565b82525050565b5f6020820190506135455f830184613523565b92915050565b5f60208201905061355e5f83018461304f565b92915050565b5f5f5f5f5f5f60a0878903121561357e5761357d612b46565b5b5f87013567ffffffffffffffff81111561359b5761359a612b4a565b5b6135a789828a01612c0d565b9650965050602087013567ffffffffffffffff8111156135ca576135c9612b4a565b5b6135d689828a01612d6d565b945050604087013567ffffffffffffffff8111156135f7576135f6612b4a565b5b61360389828a01612ee9565b935050606061361489828a01612b8f565b925050608087013567ffffffffffffffff81111561363557613634612b4a565b5b61364189828a01612d6d565b9150509295509295509295565b5f6020828403121561366357613662612b46565b5b5f82013567ffffffffffffffff8111156136805761367f612b4a565b5b61368c84828501612ee9565b91505092915050565b5f5f5f604084860312156136ac576136ab612b46565b5b5f84013567ffffffffffffffff8111156136c9576136c8612b4a565b5b6136d586828701612c0d565b9350935050602084013567ffffffffffffffff8111156136f8576136f7612b4a565b5b61370486828701612d6d565b9150509250925092565b5f5f6020838503121561372457613723612b46565b5b5f83013567ffffffffffffffff81111561374157613740612b4a565b5b61374d85828601612c0d565b92509250509250929050565b5f61376382613501565b9050919050565b61377381613759565b82525050565b5f819050919050565b61378b81613779565b82525050565b5f819050919050565b6137a381613791565b82525050565b5f6060820190506137bc5f83018661376a565b6137c96020830185613782565b6137d6604083018461379a565b949350505050565b6137e781613791565b81146137f1575f5ffd5b50565b5f81359050613802816137de565b92915050565b5f6020828403121561381d5761381c612b46565b5b5f61382a848285016137f4565b91505092915050565b5f6020820190508181035f83015261384b81846133ac565b905092915050565b5f5f5f6040848603121561386a57613869612b46565b5b5f84013567ffffffffffffffff81111561388757613886612b4a565b5b61389386828701612c0d565b9350935050602084013567ffffffffffffffff8111156138b6576138b5612b4a565b5b6138c286828701612ee9565b9150509250925092565b6138d58161303e565b81146138df575f5ffd5b50565b5f813590506138f0816138cc565b92915050565b5f6020828403121561390b5761390a612b46565b5b5f613918848285016138e2565b91505092915050565b7f4e487b71000000000000000000000000000000000000000000000000000000005f52602260045260245ffd5b5f600282049050600182168061396557607f821691505b60208210810361397857613977613921565b5b50919050565b5f61399061398b84612dc5565b612cd4565b9050828152602081018484840111156139ac576139ab612c62565b5b6139b7848285612fd9565b509392505050565b5f82601f8301126139d3576139d2612c01565b5b81516139e384826020860161397e565b91505092915050565b5f6139f68261301f565b9050919050565b613a06816139ec565b8114613a10575f5ffd5b50565b5f81519050613a21816139fd565b92915050565b5f5f60408385031215613a3d57613a3c612b46565b5b5f83015167ffffffffffffffff811115613a5a57613a59612b4a565b5b613a66858286016139bf565b9250506020613a7785828601613a13565b9150509250929050565b7f4e487b71000000000000000000000000000000000000000000000000000000005f52603260045260245ffd5b5f60208284031215613ac357613ac2612b46565b5b5f613ad084828501613a13565b91505092915050565b5f602082019050613aec5f830184613782565b92915050565b5f67ffffffffffffffff821115613b0c57613b0b612c76565b5b602082029050602081019050919050565b613b2681612bce565b8114613b30575f5ffd5b50565b5f81359050613b4181613b1d565b92915050565b5f613b59613b5484613af2565b612cd4565b90508083825260208201905060208402830185811115613b7c57613b7b612c09565b5b835b81811015613ba55780613b918882613b33565b845260208401935050602081019050613b7e565b5050509392505050565b5f82601f830112613bc357613bc2612c01565b5b8135613bd3848260208601613b47565b91505092915050565b5f5f60408385031215613bf257613bf1612b46565b5b5f83013567ffffffffffffffff811115613c0f57613c0e612b4a565b5b613c1b85828601613baf565b925050602083013567ffffffffffffffff811115613c3c57613c3b612b4a565b5b613c488582860161313d565b9150509250929050565b5f81359050613c60816139fd565b92915050565b5f67ffffffffffffffff821115613c8057613c7f612c76565b5b602082029050602081019050919050565b5f5ffd5b5f5ffd5b5f60408284031215613cae57613cad613c91565b5b613cb86040612cd4565b90505f613cc784828501612b8f565b5f83015250602082013567ffffffffffffffff811115613cea57613ce9613c95565b5b613cf684828501612d6d565b60208301525092915050565b5f613d14613d0f84613c66565b612cd4565b90508083825260208201905060208402830185811115613d3757613d36612c09565b5b835b81811015613d7e57803567ffffffffffffffff811115613d5c57613d5b612c01565b5b808601613d698982613c99565b85526020850194505050602081019050613d39565b5050509392505050565b5f82601f830112613d9c57613d9b612c01565b5b8135613dac848260208601613d02565b91505092915050565b5f5f5f5f5f60a08688031215613dce57613dcd612b46565b5b5f613ddb88828901613b33565b9550506020613dec88828901613c52565b945050604086013567ffffffffffffffff811115613e0d57613e0c612b4a565b5b613e1988828901612ee9565b935050606086013567ffffffffffffffff811115613e3a57613e39612b4a565b5b613e4688828901612d6d565b925050608086013567ffffffffffffffff811115613e6757613e66612b4a565b5b613e7388828901613d88565b9150509295509295909350565b5f6040820190508181035f830152613e988185612fe7565b90508181036020830152613eac8184612fe7565b90509392505050565b7f4e487b71000000000000000000000000000000000000000000000000000000005f52601160045260245ffd5b5f613eec82613791565b9150613ef783613791565b9250828201905080821115613f0f57613f0e613eb5565b5b92915050565b5f60208284031215613f2a57613f29612b46565b5b5f82015167ffffffffffffffff811115613f4757613f46612b4a565b5b613f53848285016139bf565b91505092915050565b5f6040820190508181035f830152613f7481856133ac565b9050613f83602083018461304f565b9392505050565b5f81519050919050565b5f82825260208201905092915050565b5f819050602082019050919050565b5f82825260208201905092915050565b5f613fcd82613392565b613fd78185613fb3565b9350613fe7818560208601612fd9565b613ff081612c66565b840191505092915050565b5f6140068383613fc3565b905092915050565b5f602082019050919050565b5f61402482613f8a565b61402e8185613f94565b93508360208202850161404085613fa4565b805f5b8581101561407b578484038952815161405c8582613ffb565b94506140678361400e565b925060208a01995050600181019050614043565b50829750879550505050505092915050565b61409681612b4e565b82525050565b5f60a0820190508181035f8301526140b48188612fe7565b905081810360208301526140c88187612fe7565b905081810360408301526140dc818661401a565b90506140eb606083018561408d565b81810360808301526140fd8184612fe7565b90509695505050505050565b5f61411b61411684612cee565b612cd4565b90508281526020810184848401111561413757614136612c62565b5b614142848285612fd9565b509392505050565b5f82601f83011261415e5761415d612c01565b5b815161416e848260208601614109565b91505092915050565b5f81519050614185816138cc565b92915050565b5f5f604083850312156141a1576141a0612b46565b5b5f83015167ffffffffffffffff8111156141be576141bd612b4a565b5b6141ca8582860161414a565b92505060206141db85828601614177565b9150509250929050565b5f6141ef82613791565b91506141fa83613791565b925082820390508181111561421257614211613eb5565b5b92915050565b5f5ffd5b5f5ffd5b5f5f8585111561423357614232614218565b5b838611156142445761424361421c565b5b6001850283019150848603905094509492505050565b7f496e76616c6964206865782063686172616374657220696e20656e63727970745f8201527f6564206c6162656c000000000000000000000000000000000000000000000000602082015250565b5f6142b460288361339c565b91506142bf8261425a565b604082019050919050565b5f6020820190508181035f8301526142e1816142a8565b9050919050565b5f81905092915050565b5f6142fd83856142e8565b935061430a838584612d1e565b82840190509392505050565b5f6143228284866142f2565b91508190509392505050565b5f819050919050565b61434861434382613779565b61432e565b82525050565b5f6143598285614337565b6020820191506143698284614337565b6020820191508190509392505050565b5f6020828403121561438e5761438d612b46565b5b5f61439b84828501614177565b91505092915050565b5f6143ae82613791565b91507fffffffffffffffffffffffffffffffffffffffffffffffffffffffffffffffff82036143e0576143df613eb5565b5b600182019050919050565b7f6e616d65686173683a204a756e6b20617420656e64206f66206e616d650000005f82015250565b5f61441f601d8361339c565b915061442a826143eb565b602082019050919050565b5f6020820190508181035f83015261444c81614413565b9050919050565b5f61445d82613791565b91505f820361446f5761446e613eb5565b5b600182039050919050565b5f61448c61448784612d9a565b612cd4565b905080838252602082019050602084028301858111156144af576144ae612c09565b5b835b818110156144f657805167ffffffffffffffff8111156144d4576144d3612c01565b5b8086016144e189826139bf565b855260208501945050506020810190506144b1565b5050509392505050565b5f82601f83011261451457614513612c01565b5b815161452484826020860161447a565b91505092915050565b5f6060828403121561454257614541613c91565b5b61454c6060612cd4565b90505f61455b84828501614177565b5f83015250602082015167ffffffffffffffff81111561457e5761457d613c95565b5b61458a84828501614500565b602083015250604082015167ffffffffffffffff8111156145ae576145ad613c95565b5b6145ba8482850161414a565b60408301525092915050565b5f602082840312156145db576145da612b46565b5b5f82015167ffffffffffffffff8111156145f8576145f7612b4a565b5b6146048482850161452d565b91505092915050565b5f6020828403121561462257614621612b46565b5b5f82015167ffffffffffffffff81111561463f5761463e612b4a565b5b61464b8482850161414a565b91505092915050565b5f81519050919050565b5f82825260208201905092915050565b5f819050602082019050919050565b6146868161303e565b82525050565b5f82825260208201905092915050565b5f6146a682613f8a565b6146b0818561468c565b9350836020820285016146c285613fa4565b805f5b858110156146fd57848403895281516146de8582613ffb565b94506146e98361400e565b925060208a019950506001810190506146c5565b50829750879550505050505092915050565b5f606083015f8301516147245f86018261467d565b506020830151848203602086015261473c828261469c565b91505060408301518482036040860152614756828261321c565b9150508091505092915050565b5f61476e838361470f565b905092915050565b5f602082019050919050565b5f61478c82614654565b614796818561465e565b9350836020820285016147a88561466e565b805f5b858110156147e357848403895281516147c48582614763565b94506147cf83614776565b925060208a019950506001810190506147ab565b50829750879550505050505092915050565b5f6020820190508181035f83015261480d8184614782565b905092915050565b5f81519050919050565b5f82825260208201905092915050565b5f819050602082019050919050565b61484781612b4e565b82525050565b5f604083015f8301516148625f86018261483e565b506020830151848203602086015261487a828261321c565b9150508091505092915050565b5f614892838361484d565b905092915050565b5f602082019050919050565b5f6148b082614815565b6148ba818561481f565b9350836020820285016148cc8561482f565b805f5b8581101561490757848403895281516148e88582614887565b94506148f38361489a565b925060208a019950506001810190506148cf565b50829750879550505050505092915050565b5f60a08201905061492c5f830188612bd9565b614939602083018761304f565b818103604083015261494b818661401a565b9050818103606083015261495f8185612fe7565b9050818103608083015261497381846148a6565b90509695505050505050565b5f60a0820190506149925f83018861304f565b81810360208301526149a4818761401a565b905081810360408301526149b88186612fe7565b90506149c7606083018561408d565b81810360808301526149d98184612fe7565b90509695505050505050565b7f4e487b71000000000000000000000000000000000000000000000000000000005f52601260045260245ffd5b5f614a1c82613791565b9150614a2783613791565b925082614a3757614a366149e5565b5b828206905092915050565b7f726561644c6162656c3a20496e646578206f7574206f6620626f756e647300005f82015250565b5f614a76601e8361339c565b9150614a8182614a42565b602082019050919050565b5f6020820190508181035f830152614aa381614a6a565b9050919050565b5f602082019050614abd5f83018461408d565b92915050565b5f81519050614ad181613b1d565b92915050565b5f60208284031215614aec57614aeb612b46565b5b5f614af984828501614ac3565b91505092915050565b5f819050602082019050919050565b5f614b1c8251612b4e565b80915050919050565b5f82821b905092915050565b5f614b3b82612fbf565b82614b4584614b02565b9050614b5081614b11565b92506004821015614b9057614b8b7fffffffff0000000000000000000000000000000000000000000000000000000083600403600802614b25565b831692505b5050919050565b5f81519050614ba581612b79565b92915050565b5f5f5f5f5f60a08688031215614bc457614bc3612b46565b5b5f614bd188828901613a13565b955050602086015167ffffffffffffffff811115614bf257614bf1612b4a565b5b614bfe88828901614500565b945050604086015167ffffffffffffffff811115614c1f57614c1e612b4a565b5b614c2b8882890161414a565b9350506060614c3c88828901614b97565b925050608086015167ffffffffffffffff811115614c5d57614c5c612b4a565b5b614c698882890161414a565b9150509295509295909350565b5f606083015f830151614c8b5f86018261467d565b5060208301518482036020860152614ca3828261469c565b91505060408301518482036040860152614cbd828261321c565b9150508091505092915050565b5f6020820190508181035f830152614ce28184614c76565b905092915050565b5f614cf482612fbf565b614cfe81856142e8565b9350614d0e818560208601612fd9565b80840191505092915050565b5f614d258285614cea565b9150614d318284614cea565b91508190509392505050565b5f819050815f5260205f209050919050565b5f6020601f8301049050919050565b5f60088302614d8d7fffffffffffffffffffffffffffffffffffffffffffffffffffffffffffffffff82614b25565b614d978683614b25565b95508019841693508086168417925050509392505050565b5f614dc9614dc4614dbf84613791565b6134d7565b613791565b9050919050565b5f819050919050565b614de283614daf565b614df6614dee82614dd0565b848454614d5e565b825550505050565b5f5f905090565b614e0d614dfe565b614e18818484614dd9565b505050565b5b81811015614e3b57614e305f82614e05565b600181019050614e1e565b5050565b601f821115614e8057614e5181614d3d565b614e5a84614d4f565b81016020851015614e69578190505b614e7d614e7585614d4f565b830182614e1d565b50505b505050565b5f82821c905092915050565b5f614ea05f1984600802614e85565b1980831691505092915050565b5f614eb88383614e91565b9150826002028217905092915050565b614ed182613392565b67ffffffffffffffff811115614eea57614ee9612c76565b5b614ef4825461394e565b614eff828285614e3f565b5f60209050601f831160018114614f30575f8415614f1e578287015190505b614f288582614ead565b865550614f8f565b601f198416614f3e86614d3d565b5f5b82811015614f6557848901518255600182019150602085019450602081019050614f40565b86831015614f825784890151614f7e601f891682614e91565b8355505b6001600288020188555050505b50505050505056fea26469706673582212205a16d1fcaef38f307de46378a04d44d315697fd199554d9dfa0faf833469174164736f6c634300081e0033","linkReferences":{}},"methodIdentifiers":{"_resolveSingle(bytes,bytes,string[],bytes4,bytes)":"8e25a0f3","batchGatewayURLs(uint256)":"a6b16419","findResolver(bytes)":"a1cbcbaf","owner()":"8da5cb5b","registry()":"7b103999","renounceOwnership()":"715018a6","resolve(bytes,bytes)":"9061b923","resolve(bytes,bytes,string[])":"0667cfea","resolve(bytes,bytes[])":"206c74c9","resolve(bytes,bytes[],string[])":"76286c00","resolveCallback(bytes,bytes)":"b4a85801","resolveSingleCallback(bytes,bytes)":"e0a85412","reverse(bytes)":"ec11c823","reverse(bytes,string[])":"b241d0d3","reverseCallback(bytes,bytes)":"6dc4fb73","setGatewayURLs(string[])":"8e5ea8df","supportsInterface(bytes4)":"01ffc9a7","transferOwnership(address)":"f2fde38b"},"id":60}